:020000040800F2
:10000000C00A0120DD0100082935000891210008FF
:100010002735000869030008D544000800000000E7
:10002000000000000000000000000000993F0008F0
:10003000E5040008000000004B3500089B3F000865
:10004000F7010008F7010008F7010008F7010008B0
:10005000F7010008F7010008F7010008F7010008A0
:10006000F7010008F7010008F7010008F701000890
:10007000F7010008F7010008F7010008F701000880
:10008000F7010008F7010008F7010008F701000870
:10009000F7010008F7010008F7010008F701000860
:1000A000F7010008F7010008F7010008F701000850
:1000B000F7010008F7010008F7010008F701000840
:1000C000F7010008F7010008F7010008F701000830
:1000D000F7010008F7010008F7010008F701000820
:1000E000F7010008F7010008F7010008F701000810
:1000F000F7010008F7010008F7010008F701000800
:10010000F7010008F7010008F7010008F7010008EF
:10011000F7010008F7010008F7010008F7010008DF
:10012000F7010008F7010008F7010008F7010008CF
:10013000F7010008F7010008F7010008F7010008BF
:10014000F7010008F7010008F7010008F7010008AF
:10015000F7010008F7010008F7010008F70100089F
:10016000F7010008F7010008F7010008F70100088F
:10017000F7010008F7010008F7010008000000007F
:10018000F7010008F7010008F7010008F70100086F
:10019000F7010008F7010008F7010008F70100085F
:1001A000F7010008F7010008F7010008F70100084F
:1001B000F7010008F7010008F7010008F70100083F
:1001C000F7010008F7010008DFF80CD000F040F854
:1001D00000480047B9460008C00A01200648804789
:1001E00006480047FEE7FEE7FEE7FEE7FEE7FEE71C
:1001F000FEE7FEE7FEE7FEE7FD3F0008C901000855
:1002000040EA01039B0703D009E008C9121F08C098
:10021000042AFAD203E011F8013B00F8013B521E18
:10022000F9D2704730B50B46014600202022012448
:1002300009E021FA02F59D4205D303FA02F5491BB4
:1002400004FA02F52844151EA2F10102F1DC30BDCA
:10025000064C074D06E0E06840F0010394E8070013
:1002600098471034AC42F6D3FFF7B2FF146200088F
:100270003462000810B590B00220019003F038FB02
:1002800010B1042010B010BD03F086FB08B10120AE
:10029000F8E74FF480700890312002900020099018
:1002A0000A904FF080710B91079001210C910D90F5
:1002B0000E900F9041F288340C4802A9224600F0BB
:1002C00098FE08B10120DDE7084801A9224600F0A8
:1002D000A3FF08B10120D5E74FF4487003F070F98F
:1002E00008B10120CEE70020CCE700007802012011
:1002F000F0B58FB007460D461446194E0022022174
:10030000304600F089FCB0150790032001903015AD
:100310000890C00004900295002009904FF0807171
:100320000A9106900B940C900D900E9041F2883437
:100330000C4801A9224600F05CFE10B101200FB06C
:10034000F0BD08482246394600F0F9FE08B1012008
:10035000F5E701223046022100F05EFC0020EEE7C6
:100360000020024078020120FEE7000030B5A7B06F
:100370002D48016841F001010160016801F00101AF
:100380000091016841F001010160006800F0010086
:100390000090802001900420129001A800F0A2FF9C
:1003A00021481430016841F010010160006800F03C
:1003B000100000904FF40070229002202390012042
:1003C00024900320259007242694184D22A928461E
:1003D00000F032FB29152291269422A9284600F02C
:1003E0002BFB144C124820604FF4E1306060002079
:1003F000A060E06020610C216161A061E061206289
:100400006062204601F030FE00222520114600F0F7
:1004100005FD252000F0F7FC2068016841F020016F
:10042000016027B030BD00003038024000000240BB
:100430000010014084000120F0B5059E0468656C41
:10044000274F05F0404597FAA7F7B7FA87F7BB4063
:1004500033431D4365640368DA634268B2F5403F85
:1004600002D00068C160F0BD01F07F4301F47F0756
:1004700001F47F46CCB2856801F47F4201F47F0C21
:1004800042EA0C02BDB1012D18D001F47F02C1F384
:10049000C401D20C022D13D0032D17D0190F3A0D21
:1004A000330B24091B0143EA022242EA01322243B0
:1004B00000688263F0BD1A432243F9E72243F7E75D
:1004C000B30A5B0143EAC2220A43F1E7DB0FF40AF5
:1004D000640144EA822242EAC3320A43E8E70000A8
:1004E0000000FF3F704701B502E00098401E0090F9
:1004F00000980028F9D108BD2DE9F74F83B0804658
:1005000089460026DFF8BCA0DFF8BCB0DAF80400AA
:1005100000EB40000BEB80008068C188019185886A
:10052000E81D029020F00700401BC0B2009042E09E
:100530000298C108059801FB060001290AD002298A
:100540000AD0017842788078090441EA02270743FB
:10055000002429E00778FBE74178007841EA00278A
:10056000F6E70098291B0144491E012088403842C3
:100570000CD0DAF80400494600EB40005BF820207C
:1005800008EB040080B202F07FF80CE0DAF8040017
:10059000494600EB40000BEB8000426808EB04008A
:1005A00080B202F071F8641CAC42DAD309F101099F
:1005B0001FFA89F9761C01988642B9D306B0BDE8C6
:1005C000F08F00002C0001206002012030B5D1E93D
:1005D00001230D681A43D1E9033423431A434B69BD
:1005E0001A438B691A43D1E90734496A012D08D0AF
:1005F00005686FF30E051A4322430A432A4302603B
:100600000BE0056825F4F845234329430B43416873
:100610006FF30E010A4303604260002030BD42695F
:1006200042EA4101416100207047F8B50646144690
:10063000D1E9000210438A68C968521E520142EA99
:100640004121084300900098306100F0EDFA054622
:1006500009E0601C07D024B100F0E6FA401BA0427C
:1006600001D90320F8BDB0698006F2D40020F8BD9E
:10067000F0B54B680C685B1E4D69641E44EA0314B8
:100680008B686D1E5B1E44EA0326CB680C69896982
:100690005B1E641E491E012A0DD0826802F0704262
:1006A00046EA033343EA044343EA055343EA01615C
:1006B0001143816010E08268084F3A401B0343EA0F
:1006C00005531343C26802F0704246EA044444EA08
:1006D000016111438360C1600020F0BDFF0F0FFF77
:1006E00070B505460C46104E3078002803D103F053
:1006F00069F801203070220AE1B2A13AC2EB02107F
:1007000000EB421001EB4001A13901EBC100810176
:10071000C81701EB5070C1102846482201F5AA0104
:10072000FFF7E6FD002070BD2C000120F0B500EBC6
:100730000112183243684FF4403590F83830012BDD
:100740002BD0012680F83860022380F8393095FAE2
:10075000A5F597685468B5FA85F52346AF403C4344
:10076000204D0A2B1BD0092B19D04FF07F47D3689F
:1007700097FAA7F7B7FA87F7BB402343A1B10168FF
:10078000CC69AC431C43CC610368116819615168A2
:100790000A291CD009291AD01EE00220F0BDD36816
:1007A00003F07F432343E9E701684C6AAC431C43F1
:1007B0004C6203681168996151680A2901D00929BE
:1007C0000AD1D168026821F07F41916204E0D168CA
:1007D000026821F07F4111623830467000210170BB
:1007E0000020F0BD0F0003FF70B50446002C04D0BC
:1007F00094F83900002510B106E0012070BD84F89E
:100800003850204600F01EF8022084F83900206895
:100810000168626821F44031114301602068416B36
:10082000A26821F00701114341632068016CE2686E
:100830006FF30D0111430164E563012084F8390071
:10084000002070BD70472DE9F84304460D46002690
:100850000096206800684FF004074FF00308C007B7
:1008600038D000F0E1F9814630E04068009000980F
:1008700010F0210F17D00098800603D5E06B40F0F0
:100880000200E0630098C00703D0E06B40F0010075
:10089000E06321682120886084F8397084F838602A
:1008A0000120BDE8F883681C10D02DB100F0BCF920
:1008B000A0EB0900A84209D9E06B40F02000E063FA
:1008C00084F8398084F838600320EAE720684168BA
:1008D0008907CAD52068C169890602D4406A8006A2
:1008E0003ED500F0A1F9814636E0406800900098BE
:1008F00010F0290F1DD00098000703D5E06B40F0E1
:100900000400E0630098800603D5E06B40F002002D
:10091000E0630098C00703D0E06B40F00100E063A3
:1009200021682920886084F8397084F838600120B3
:10093000B7E7681C10D02DB100F076F9A0EB0900E4
:10094000A84209D9E06B40F02000E06384F83980C8
:1009500084F838600320A4E720684168C906C4D53C
:10096000216812208860012084F8390084F83860FA
:10097000002096E738B50446049894F83850012DC5
:1009800010D0012584F83850022584F839500090A1
:100990002046FFF751FD2068016841F00101016028
:1009A000002038BD022038BD2DE9F0410446A76D76
:1009B00000F03AF9054694F835000026022806D0E2
:1009C0008020606584F834600120BDE8F0812068F3
:1009D000016821F0160101602068416921F0800161
:1009E0004161206C08B9A06C20B12068016821F039
:1009F000080101602068016821F0010101600BE03D
:100A000000F012F9401B052806D92020343420625A
:100A1000267003206070D8E720680068C007EFD117
:100A200034343F2094F828108840B86026700120A4
:100A300060700020C9E700002DE9F84F0022DFF8C0
:100A4000A491DFF8A0814FF0010E09F108094FF0E1
:100A50000F0C09F1040A0EFA02F60B683340B34298
:100A600071D14C68022C01D0122C11D1D40800EBAA
:100A700084073D6A5407E40E0CFA04FB25EA0B05D3
:100A8000D1F810B00BFA04FB4BEA050BC7F820B005
:100A9000076854000325A540AF4391F804B00BF05C
:100AA000030B0BFA04FB4BEA070BC0F800B04F68CE
:100AB000012F05D0022F03D0112F01D0122F11D1F9
:100AC0008768AF43D1F80CB00BFA04FB4BEA070B75
:100AD000C0F808B04768B7430E79C6F300169640D1
:100AE0003E434660C668AE438D68A5403543C56049
:100AF0004C68E4006FD53C4C256845F48045256082
:100B0000246804F480440094384C22F00305254402
:100B1000D5F808789407260F0CFA06F4A743344C4E
:100B2000A04201D100242EE0324CA04201D1012488
:100B300029E0314CA04201D1022424E02F4CA042F4
:100B400002D103241FE046E02D4CA04201D1042431
:100B500019E02C4CA04201D1052414E02A4CA042FB
:100B600001D106240FE0294CA04201D107240AE05C
:100B7000274CA04201D1082405E0264CA04201D117
:100B8000092400E00A24B4403C43C5F80848D8F8DA
:100B900000409C434D68ED0300D51C43C8F800405D
:100BA000104D2D1D2C689C434E68B60300D51C4388
:100BB0002C60D9F800409C434D68ED0200D51C43E1
:100BC000C9F80040DAF800409C434D68AD0200D5FA
:100BD0001C43CAF80040521C102AFFF43CAFBDE889
:100BE000F88F0000003C01404438024000300140D2
:100BF000000002400004024000080240000C0240D5
:100C0000001002400014024000180240001C024084
:100C10000020024000240240002A01D08161704778
:100C200009048161704700000148006870470000B6
:100C30000400012002480168491C0160704700005F
:100C40000400012010B5044607484FF47A7200688A
:100C5000B0FBF2F001F0F4F900222146501E00F042
:100C6000DDF8002010BD0000000001202DE9F0415A
:100C700004460F46154694F8A00001281ED0012610
:100C800084F8A060022084F8A10005EB85003946B5
:100C900000EBC500342204EB80003830FFF7B0FAD7
:100CA0002A463946204602F08FFB2068466284F8C7
:100CB000A160002084F8A000BDE8F0810220FBE7DD
:100CC00070B50446002C04D094F8A100002510B1A2
:100CD00006E0012070BD84F8A050204600F070F8B6
:100CE000022084F8A1002068816921F070418161AF
:100CF000D4E901100143D4E9030210430143206801
:100D0000826911438161206882682C490A408260AF
:100D1000A08A020420688368A66933431343836072
:100D20002068C2680A40C260A08B02042068C368C1
:100D3000266A33431343C360206802690A40026194
:100D4000A08C020420680369A66A3343134303613D
:100D5000206842690A404261A08D0104206842690E
:100D6000236B1A430A43426194F83500020294F857
:100D7000360001042068C36A03F07F43C362206821
:100D8000C36A114394F8346033430B43C362206851
:100D9000416B41F0040141632068416B41F0020165
:100DA00041632068816941F001018161C4F8A45068
:100DB000012084F8A100002070BD000000F800F0C0
:100DC000704770B50446084694F8A010012918D061
:100DD000012584F8A050022184F8A11002EB8201C1
:100DE00001EBC20104EB810138314861204602F079
:100DF000EBFA2068456284F8A150002084F8A00036
:100E000070BD022070BD012100F01F029140400919
:100E1000800000F1E020C0F800117047F0B40D46EA
:100E20000D4B1B68C3F30223C3F10704042C00D944
:100E30000424191D072901D2002300E0DB1E01262E
:100E400006FA04F1491E294099409E40761E16403C
:100E50003143F0BC02F069BB0CED00E0F8B5194875
:100E6000016841F080510160006800F080500090FE
:100E7000154C206840F480302060FFF7D5FE054611
:100E80004FF47A7606E0FFF7CFFE401BB04201D95F
:100E90000320F8BD6068C003F5D5206840F4003039
:100EA0002060FFF7C1FE054606E0FFF7BDFE401BD0
:100EB000B04201D90320F8BD60688003F5D5002059
:100EC000F8BD00004038024000700040F8B504460C
:100ED0000025FFF7A9FE064694F83900800731D5B2
:100EE000002084F838002068016849070BD50168A4
:100EF00021F004010160606BFFF756FD18B1E06B53
:100F000040F00400E0632068016841F002010160E4
:100F1000206C0122022133460090204602F016FD8B
:100F200005465DB921680220C8600022206C20219E
:100F300033460090204602F009FD054615B9012010
:100F400084F839002846F8BD2DE9F84F04460E46CE
:100F500015461F46FFF768FE824694F838000128C0
:100F60000ED04FF0010884F8388094F839004FF023
:100F70000009012806D0022084F83890BDE8F88FD7
:100F80000220FBE7C4F83C90422084F8390000229C
:100F9000202153462046009702F0D8FC0028EBD1D0
:100FA0002168286888622168686848622168A868A2
:100FB000C86220682969026822F4400242F4800273
:100FC00011430160E868B0624FF00062314620468C
:100FD00002F01EFB0122534608212046009702F032
:100FE000B5FC0028C8D122680821D16084F8398076
:100FF000C2E72DE9F84F04460E469046FFF714FE6F
:10100000834694F8380001280ED0012784F8387000
:1010100094F839004FF00009012807D0022584F820
:1010200038902846BDE8F88F0220FBE7C4F83C90D2
:101030004FF0020A84F839A0002220215B462046A6
:10104000CDF8008002F082FC0546002DE7D1002299
:101050003146204602F0DCFA706A10B184F839702B
:10106000DDE701225B4602212046CDF8008002F038
:101070006DFC0546002DD2D12068C0F80CA084F884
:101080003970CCE7F8B50446FFF7CEFD07465CB1F2
:1010900094F83800012809D0012684F8386094F8C3
:1010A0003900002520B10DE00120F8BD0220F8BD77
:1010B00084F83850204600F041F841F2883120464B
:1010C00000F0A8F82068016821F4F852A168491ED0
:1010D00042EA01210160206C002220213B46009061
:1010E000204602F033FC08BBE268E16923790A4339
:1010F000216A41EA03610A4321680B680D4F3B40B6
:101100001A430A60D4E905210A4321684B680A4F53
:101110003B40278A43EA07431A434A6021680A682A
:1011200042F001020A60E56384F8396084F83850BF
:10113000F8BD00002FFFFF00FEF8E0FF70472DE92B
:10114000F84F04468B4617460025FFF76DFD824693
:101150002068816900F1200694F83820012A0ED019
:101160004FF0010884F8388094F83920A946012A04
:1011700007D0022584F838902846BDE8F88F022071
:10118000FBE7C4F83C90BBF1000F3DD0222284F86D
:1011900039200269521C62860269521C2286C4F8F8
:1011A0002CB0426922F0406242F0806242612068C5
:1011B000816111E00122534606212046009702F08A
:1011C000C5FB054628000AD13278E06A411CE1627D
:1011D0000270608E401E6086608E0028EAD185B95C
:1011E0000122534602212046009702F0AFFB05463C
:1011F000280006D121680220C8602046FFF766FE5D
:10120000054684F83980B5E7E06B40F00800E063FC
:101210000125AFE7016470472DE9F84F04468B467E
:1012200017460025FFF700FD8246206800F12006E2
:1012300094F8381001290ED04FF0010884F8388056
:1012400094F83910A946012907D0022584F838906E
:101250002846BDE8F88F0220FBE7C4F83C90BBF1BC
:10126000000F39D0122184F839100169491C6185B9
:101270000169491C2185C4F824B0416921F040610D
:10128000416111E00122534604212046009702F0FB
:101290005DFB054628000AD1606A411C6162007846
:1012A0003070608D401E6085608D0028EAD185B960
:1012B0000122534602212046009702F047FB0546D3
:1012C000280006D121680220C8602046FFF7FEFDF5
:1012D000054684F83980B9E7E06B40F00800E06328
:1012E0000125B3E72DE9F84F04464FF0000B002528
:1012F000DFF880842078C0070FD0D8F8000020F4F1
:101300000000C8F80000D8F80000616B0843C8F876
:101310000000606B08B94FF0010B2068DFF858A49B
:1013200000030FD5DAF80000E16B20F44010084309
:10133000CAF80000E06BB0F5801F01D14FF0010B3F
:1013400000B901252068C0020FD5DAF80000216C31
:1013500020F440000843CAF80000206CB0F5800F6C
:1013600001D14FF0010B00B901252068C10101D561
:101370004FF0010B800658D5FE483830016841F027
:1013800080510160006800F080500090FB4F386889
:1013900040F480703860FFF747FC064607E0FFF72F
:1013A00043FC801B642802D90320BDE8F88F38680D
:1013B000C005F4D5F04E1C3E306800F4407018B300
:1013C000218E01F4407181421ED0306820F44070BB
:1013D000316841F480313160316821F4803131600D
:1013E00030603068C0070FD0FFF71EFC074641F29F
:1013F000883906E0FFF718FCC01B484501D90320D7
:10140000D3E730688007F5D5206BC0F301210329AD
:101410007ED0D8F8000020F4F810C8F8000030683A
:10142000218EC1F30B01084330602078C0060BD534
:10143000DAF8000020F08070CAF80000DAF8000046
:10144000A16B0843CAF8000020884104CC4805D5A8
:101450000168626E21F44031114301602188090462
:1014600005D50168A26E21F4402111430160216875
:10147000C90305D50168E26E21F4401111430160F2
:101480002168890305D50168226F21F440011143C9
:1014900001602178490605D50168626C21F00301DD
:1014A000114301602178090605D50168A26C21F07D
:1014B0000C01114301602188C90505D50168E26C62
:1014C00021F03001114301602188890505D50168AB
:1014D000226D21F0C001114301602188490505D525
:1014E0000168626D21F44071114301602188090592
:1014F00005D50168A26D21F4406111430160218886
:10150000C90407D50168E26D21F44051114300E0A0
:1015100020E001602188890405D50168226E21F44C
:101520004041114301602168490205D50168A26F5D
:1015300021F08061114301602168890215D501689D
:10154000E26F21F0006111430160E16FB1F1006FC2
:101550000AD00AE0D8F800108A4A21F4F8111040A5
:101560000143C8F800105AE7012521680A0700D591
:101570000125490305D50168626F21F040711143CF
:1015800001602168090206D50168D4F8802021F0A5
:10159000805111430160BBF1010F47F6C0794FF450
:1015A00040364FF070674FF0E04803D02068B0F14C
:1015B000007F7CD16F480838016821F080610160AC
:1015C000FFF732FB834607E0FFF72EFBA0EB0B0093
:1015D000642801D90320E8E666480838006800015D
:1015E000F2D42078C10768482DD0616B59BB0168DF
:1015F00096FAA6F201F44031B2FA82F2D1400268C2
:1016000097FAA7F302F07062B3FA83F3DA4099FA1B
:10161000A9FC6368BCFA8CFC03FA0CF396FAA6FCEE
:10162000BCFA8CFC01FA0CF10B4397FAA7F1B1FA62
:1016300081F18A401343A16898FAA8F2B2FA82F2C3
:1016400091400B43036021680A0303D5E26BB2F5B6
:10165000801F05D0C9023BD5216CB1F5800F37D171
:10166000016896FAA6F201F44031B2FA82F2D14052
:10167000026898FAA8F302F0E042B3FA83F3DA4082
:1016800099FAA9FC6368BCFA8CFC03FA0CF396FA8D
:10169000A6FCBCFA8CFC01FA0CF197FAA7FC0B43F0
:1016A000E168BCFA8CFC01FA0CF10B4300E084E029
:1016B00098FAA8F1B1FA81F18A4013430360DAF88D
:1016C0000010626A21F01F01521E1143CAF8001077
:1016D0002168C9012ED5016897FAA7F201F070615F
:1016E000B2FA82F2D140026898FAA8F302F0E0421E
:1016F000B3FA83F3DA4099FAA9FC636896FAA6FB79
:10170000BCFA8CFCBBFA8BFB03FA0CF3D4F810C0C8
:101710000CFA0BFC43EA0C0397FAA7FCBCFA8CFC0E
:1017200001FA0CF10B4398FAA8F1B1FA81F18A4061
:1017300013430360216889011BD599FAA9F26168F6
:1017400096FAA6F3B2FA82F2B3FA83F391402269D1
:101750009A4097FAA7F31143E268B3FA83F39A40E9
:1017600098FAA8F31143A268B3FA83F39A4011439D
:1017700001600BE0083802408C38024000700040E5
:1017800090380240FFFCFF0F843802407948083847
:10179000016841F080610160FFF746FA834607E087
:1017A000FFF742FAA0EB0B00642801D90320FCE507
:1017B0007048083800680001F2D5012D7DD16D4DCB
:1017C000083D286820F080502860FFF72DFA8346F6
:1017D00007E0FFF729FAA0EB0B00642801D90320EA
:1017E000E3E52868C0438000F3D5216862480A0316
:1017F00001D5E26B1AB1C90238D5216CB1BB0168C1
:1018000096FAA6F201F44031B2FA82F2D1400268AF
:1018100098FAA8F302F0E042B3FA83F3DA4099FAB7
:10182000A9FC6369BCFA8CFC03FA0CF396FAA6FCDB
:10183000BCFA8CFC01FA0CF197FAA7FC0B43A169E6
:10184000BCFA8CFC01FA0CF10B4398FAA8F1B1FA3E
:1018500081F18A4013430360DAF8001021F4F85252
:10186000A16A491E42EA0121CAF8001021688902D2
:1018700034D5E16FB1F1006F30D1016897FAA7F26A
:1018800001F07061B2FA82F2D140026898FAA8F3CE
:1018900002F0E042B3FA83F3DA4099FAA9FC6369F3
:1018A00096FAA6FBBCFA8CFCBBFA8BFB03FA0CF392
:1018B000D4F820C00CFA0BFC00E058E043EA0C031B
:1018C00097FAA7FCBCFA8CFC01FA0CF10B4398FACE
:1018D000A8F1B1FA81F18A40134303602178090726
:1018E00032D5016897FAA7F201F07061B2FA82F27C
:1018F000D140026896FAA6F302F44032B3FA83F3B9
:10190000DA4099FAA9FC636996FAA6F6BCFA8CFC4F
:10191000B6FA86F603FA0CF3B240134397FAA7F22D
:10192000B2FA82F2914098FAA8F20B43E169B2FA56
:1019300082F291400B430360DAF80000E16A20F480
:1019400040300843CAF80000286840F08050286002
:10195000FFF76AF9044606E0FFF766F9001B642802
:1019600001D9032021E52868C0438000F4D4002079
:101970001BE5000008380240883802402DE9F04796
:1019800004460E46DFF85881D8F8000000F00F003A
:10199000B0420FD2D8F8000020F00F003043C8F852
:1019A0000000D8F8000000F00F00B04202D0012083
:1019B000BDE8F08720784B4F800705D53868A168CF
:1019C00020F0F000084338602078C0074AD045492D
:1019D00060680839012806D0022809D009688907FB
:1019E0000BD40120E4E70968890306D40120DFE76E
:1019F0000968890101D40120DAE7396821F003017F
:101A000001433960FFF710F90546606841F28839F3
:101A1000012809D0022814D020E0FFF705F9401B67
:101A2000484501D90320C3E73868C0F38100012885
:101A3000F3D117E0FFF7F8F8401B484501D9032020
:101A4000B6E73868C0F381000228F3D10AE0FFF757
:101A5000EBF8401B484501D90320A9E7386810F08E
:101A60000C0FF4D1D8F8000000F00F00B0420ED9EE
:101A7000D8F8000020F00F003043C8F80000D8F874
:101A8000000000F00F00B04201D0012090E7207864
:101A9000400705D53868E16820F4E0500843386015
:101AA0002078000706D53868216920F4604040EAB4
:101AB000C100386000F04EF83968F02292FAA2F2C4
:101AC00001F0F001B2FA82F2D140074A515CC840FD
:101AD000064908600F20FFF7B5F8002068E700000E
:101AE000003C024008380240444700080000012042
:101AF00001480068704700000000012000B5FFF7B2
:101B0000F7FF074909684FF4E05292FAA2F201F494
:101B1000E051B2FA82F2D140024A515CC84000BDA5
:101B2000083802405447000800B5FFF7E1FF0749B5
:101B300009684FF4604292FAA2F201F46041B2FAED
:101B400082F2D140024A515CC84000BD08380240D0
:101B50005447000830B51D48006810F00C011C48BF
:101B60001AD01C4C042916D0082915D1174A121F67
:101B7000116801F03F0113685D0247F6C0730CD590
:101B8000B4FBF1F01168194093FAA3F3B3FA83F3AD
:101B9000D94048430BE0204630BDB0FBF1F011685E
:101BA000194093FAA3F3B3FA83F3D9404843116879
:101BB0004FF4403292FAA2F201F44031B2FA82F2CA
:101BC000D140491C4900B0FBF1F030BD083802405B
:101BD0000024F40040787D012DE9F84F0446DFF839
:101BE000B483A8F104072078A7F10405C0075DD0ED
:101BF000D8F80000C0F38100012808D0D8F8000010
:101C0000C0F3810002280AD13868400207D528684D
:101C100080034BD5606878BB0120BDE8F88F606811
:101C2000B0F5803F11D0A8B1B0F5A02F1BD0286827
:101C300020F480302860286820F4802028606068C4
:101C400030B3FEF7F1FF06461EE0286840F480300E
:101C50002860F4E7286820F480302860286820F4A1
:101C600080202860EBE7286840F4802028602868FE
:101C700040F480302860E2E718E0FEF7D5FF801BD3
:101C8000642801D90320C8E728688003F5D50DE052
:101C9000FEF7CAFF064606E0FEF7C6FF801B642873
:101CA00001D90320B9E728688003F5D4207880079C
:101CB00055D5D8F800004FF0F80910F00C0F08D0F7
:101CC000D8F80000C0F38100022816D1386840021D
:101CD00013D42868800704D5E068012801D00120CA
:101CE0009BE7286899FAA9F22169B2FA82F220F0FA
:101CF000F80091400843286031E0E068E8B12868C6
:101D000040F001002860FEF78FFF064606E0FEF770
:101D10008BFF801B022801D903207EE728688007FB
:101D2000F5D5286899FAA9F22169B2FA82F220F071
:101D3000F80091400843286011E0286820F0010075
:101D40002860FEF771FF064606E0FEF76DFF801B78
:101D5000022801D9032060E728688007F5D420789D
:101D6000000730D5DFF82C92606909F16C09A8B141
:101D7000D9F8000040F00100C9F80000FEF754FF58
:101D8000064606E0FEF750FF801B022801D903201B
:101D900043E7D9F800008007F4D514E0D9F8000033
:101DA00020F00100C9F80000FEF73EFF064606E0FD
:101DB000FEF73AFF801B022801D903202DE7D9F84E
:101DC00000008007F4D42078400778D57148383077
:101DD000016841F080510160006800F0805000907F
:101DE0006D4E306840F480703060FEF71DFF814614
:101DF00007E0FEF719FFA0EB0900642801D90320D2
:101E00000BE73068C005F4D5DFF88891A06809F1C8
:101E10006809012816D0E0B1052827D0D9F80000BC
:101E200020F00100C9F80000D9F8000020F00400FB
:101E3000C9F80000A06841F2883A80B3FEF7F4FECA
:101E4000064627E0D9F8000040F00100C9F800007C
:101E5000F0E7D9F8000020F00100C9F80000D9F837
:101E6000000020F00400C9F80000E3E7D9F8000002
:101E700040F00400C9F80000D9F8000040F001006B
:101E8000C9F80000D6E7FEF7CFFE801B504501D908
:101E90000320C2E6D9F800008007F4D50FE0FFE781
:101EA000FEF7C2FE064606E0FEF7BEFE801B50456A
:101EB00001D90320B1E6D9F800008007F4D4A06965
:101EC000E8B3D8F80010C1F3810102295FD00228DD
:101ED00007D0286820F080702860FEF7A5FE044631
:101EE00050E0286820F080702860FEF79DFE0646CE
:101EF00006E0FEF799FE801B022801D903208CE63C
:101F000028688001F5D4D4E9070147F6C0724FF084
:101F1000FF3392FAA2F20843616AB2FA82F2914068
:101F2000A26A03EB52024FF4403393FAA3F3B3FADD
:101F300083F39A40114308434FF0706200E024E0BD
:101F400092FAA2F2E16AB2FA82F291400843386052
:101F5000286840F080702860FEF766FE044606E0C0
:101F6000FEF762FE001B022801D9032055E628680F
:101F70008001F5D509E0FEF757FE001B022801D9C4
:101F800003204AE628688001F5D4002045E60120B8
:101F900043E60000083802400070004070B5044677
:101FA0000D46002C03D094F82C0010B107E001205E
:101FB00070BD002084F82D00204600F011F80220AA
:101FC00084F82C002068211DFEF700FBD4E90002F4
:101FD0002946FEF74DFB012084F82C00002070BD3F
:101FE000704710B5044694F82C0002280AD002204D
:101FF00084F82C002068FEF712FB012084F82C00E6
:10200000002010BD022010BD70B504460D4694F8A6
:102010002C0002280ED0022084F82C0020682946CB
:10202000FEF703FB2868022806D0012084F82C0064
:10203000002070BD022070BD052084F82C00F7E759
:1020400010B5401EB0F1807F01D3012010BD4FF0CC
:10205000E02460610F21601701F067FA0020A061A1
:1020600007202061002010BD10B50446002C03D0CD
:1020700094F8690010B107E0012010BD002084F839
:102080006800204600F028F8242084F869002068C1
:10209000016821F001010160204602F06BF801287F
:1020A00018D0606A10B1204601F0D2FF2068416864
:1020B00021F4904141602068816821F02A0181600B
:1020C0002068016841F0010101602046BDE8104030
:1020D00002F022B8012010BD70472DE9F8430446F4
:1020E0000D4691461E4694F86900202802D0022031
:1020F000BDE8F883B5B1B9F1000F13D094F86800CA
:10210000012811D0012084F868000027E76621200B
:1021100084F86900FEF788FD8046A4F85090A4F882
:1021200052901AE00120E3E70220E1E7401EA4F804
:1021300052000022434680212046009602F098F982
:1021400008B10320D4E7A068B0F5805F01D1206911
:1021500088B1216815F8010B8862B4F85200002894
:10216000E4D10022434640212046009602F080F947
:1021700040B10320BCE7216835F8020BC0F308002A
:102180008862EAE720206834607027700020AFE79B
:10219000FEE700001CB5044600F0C4FD034600F055
:1021A000B1FD02460020CDE900040648064C406817
:1021B00000EB800101EBC00104EB8101C96D01F06E
:1021C000BFF81CBD2C000120780101202DE9F04151
:1021D00006460024124D134F4FF4487811E000F0EA
:1021E00083FDC0882022704381B2204600F0A2F80F
:1021F000686800EB400007EB80008068808820441E
:1022000084B244450AD2686800EB400007EB8000C6
:1022100080688088011989B28142E0D2BDE8F081EE
:102220002C000120600201202DE9F04792B00C46FD
:10223000DFF8F890DFF8F880D9F8041001EB81039B
:1022400003EBC10108EB8101896C022936D04FF400
:10225000486100FB01F511466846FEF741FA002689
:10226000D9F80400324FEC4600EB800101EBC001CD
:10227000E83708EB810100EB400006EB46021CF852
:1022800002301B02624492F8018048EA03084FEAD8
:102290000828937843EA080300225FEA03281BD545
:1022A000D1F84880B8F1020F0DD0D1F85C9005EB61
:1022B000840A57F8208049F80A801CE04FF4C8616E
:1022C00000FB01F5C7E7D1F85C9005EB440A37F84D
:1022D000208029F80A800EE0D1F84880B8F1020F7A
:1022E00018D0D1F85C9007EB800805EB840AD8F889
:1022F000048049F80A80641C5B00521CD2B2182A80
:10230000CBD304F54274761CF6B2182EB5D312B0B6
:10231000BDE8F087D1F85C9007EB800805EB440A34
:10232000B8F8048029F80A80E5E700002C000120B5
:102330007801012030B40A4B5B6803EB4304094B7E
:1023400003EB84039B68DD881C689B88DB1D203AB7
:10235000DB08534305FB034230BCFEF7CDB8000059
:102360002C0001206002012010B509480068816935
:1023700041F001018161074C012210212046FEF746
:102380004BFC01222046BDE810408021FEF744BCF2
:1023900078010120000C02402DE9F04706460C466A
:1023A00000251F4FDFF87C804FF4487925E07E2818
:1023B00013D800F099FCC0882278704381B2284677
:1023C000FFF7B8FF786800EB400008EB80008068FA
:1023D0008088284485B2641C0FE02088010201EB4C
:1023E000102082B200F080FCC0882946704380B281
:1023F000FFF71AFF1835ADB2A41C4D450DD2207859
:1024000000280AD0796801EB410108EB8101896855
:1024100089884A1992B28A42C9D2BDE8F087000081
:102420002C000120600201202DE9FF4F81468A46E1
:102430000320A0EB42060024154676E03D4FAAEBB0
:10244000050BDFF8F4801FFA8BF1786800EB400091
:1024500058F8202009EB0400039080B200F014F932
:1024600078681FFA8BF100EB400058F82020A9EBA8
:102470000400029080B200F007F97868AAEB040B20
:102480001FFA8BF100EB400058F8202009EB050003
:10249000019080B200F0F8F878681FFA8BF100EB39
:1024A000400058F82020A9EB0500009080B200F011
:1024B000EBF878680AEB050B1FFA8BF100EB400094
:1024C00058F82020039880B200F0DEF878681FFAF0
:1024D0008BF100EB400058F82020029880B200F009
:1024E000D3F878680AEB040B1FFA8BF100EB40007D
:1024F00058F82020019880B200F0C6F878681FFADA
:102500008BF100EB400058F82020009880B200F0DA
:10251000BBF8002E03DA06EB8406B61D04E0601B50
:1025200006EB80060A366D1E641CAC4286D9BDE8F7
:10253000FF8F00002C000120600201207CB50546C1
:102540000E461B4C636803EB830000EBC300194B82
:1025500003EB8000806C02281BD000F0D3FB00FB53
:102560000651606800EB800505EBC00003EB8000BE
:10257000C06D00EB810160680E4CE83400EB400355
:1025800054F823300024CDE90043012300F0D8FEA5
:102590007CBD00F0B7FB00FB0651606800EB8005D6
:1025A00005EBC00003EB8000C06D00EB4101E2E7EA
:1025B0002C000120780101202DE9FC4F84460C46B7
:1025C0000027A2EB0C00002801DCACEB020000B2FB
:1025D000191B002900DCE11A09B20FFA8CF526B2AA
:1025E0004FF0FF3B624503D34FF00109CA4601E0BB
:1025F000D946DA46A34204D34FF0010B01220192DF
:1026000001E0CDF804B088420ADB4FF00009002257
:10261000019200EBD072521014B2009180462AE071
:102620004FF0000AD34601EBD172521014B2009061
:10263000884620E012481349406800EB400051F8FA
:102640002020B1B2A8B200F01FF80098204404B2D4
:10265000444508DBA4EB080004B205EB090005B211
:1026600006EB0B0006B205EB0A0005B201983044F8
:1026700006B27F1C3FB24745DCDDBDE8FC8F0000A1
:102680002C0001206002012070B505460E46154C55
:10269000636803EB830000EBC300134B03EB800084
:1026A000806C02280ED000F02DFB06FB0051606804
:1026B00000EB800404EBC00003EB8000C06D40F829
:1026C000212070BD00F01EFB06FB0051606800EB8E
:1026D000800404EBC00003EB8000C06D20F81120E3
:1026E00070BD00002C000120780101202DE9F0418F
:1026F00006460D4617461C463A4629463046FFF721
:102700001DFF28193A4681B23046FFF717FF2246CF
:102710002946304600F008F8F01922462946BDE85F
:10272000F04180B2AFF300802DE9FC4106460F4630
:102730001D4D6C6804EB840000EBC4001B4C04EBE3
:102740008000806C022820D000F0DCFA00FB0761DA
:10275000686800EB800303EBC00004EB8000C06DF1
:1027600000EB810400F0CEFA411E68680F4DE83599
:1027700000EB400355F82330CDE900131346214602
:10278000012200F0DDFDBDE8FC8100F0BBFA00FB9A
:102790000761686800EB800303EBC00004EB800076
:1027A000C06D00EB4104DDE72C0001207801012021
:1027B0002DE9F74F80460F4603210298A1EB400612
:1027C0000024029D2848406800EB4001274850F84B
:1027D000210000F07DFB4FF6FF7931E08DB1381913
:1027E00081B209EA4502A8EB050A93461FFA8AF06E
:1027F000FFF7A4FE381B5A4681B21FFA8AF0FFF792
:102800009DFE8CB1781B81B209EA4402A8EB040A50
:1028100093461FFA8AF0FFF791FE78195A4681B263
:102820001FFA8AF0FFF78AFE002E03DA06EB840611
:10283000B61D04E0601B06EB80060A366D1E641CA4
:10284000AC42CBD90848406800EB4001074850F83B
:10285000210000F03DFB029A03B039464046BDE836
:10286000F04FFFF7E1BD00002C00012060020120C5
:102870002DE9FC47804689461646214D214F6C685C
:1028800004EB440057F8200000F022FB6C68A7F12D
:10289000E80204EB840000EBC40002EB8000806CD3
:1028A00002281DD000F02EFA00FB0981686800EBB9
:1028B000800404EBC00002EB8000C06D00EB8104DB
:1028C00000F020FA811B686800EB400257F82220D4
:1028D000CDE900123246214600F032FDBDE8FC870A
:1028E00000F010FA00FB0981686800EB800404EB3B
:1028F000C00002EB8000C06D00EB4104E0E7000087
:102900002C000120600201202DE9F04F87B0EC4837
:10291000016841F080010160016801F080010191CE
:10292000016841F080010160016801F080010191BE
:10293000016841F080010160016801F080010191AE
:10294000016841F002010160016801F0020101919A
:10295000016841F001010160016801F0010101918C
:10296000016841F001010160016801F0010101917C
:10297000016841F002010160016801F0020101916A
:10298000016841F040010160016801F040010191DE
:10299000016841F010010160016801F0100101912E
:1029A000016841F010010160016801F0100101911E
:1029B000016841F080010160016801F0800101912E
:1029C000016841F040010160016801F0400101919E
:1029D000016841F040010160016801F0400101918E
:1029E000016841F480710160016801F48071019116
:1029F000016841F004010160016801F004010191E6
:102A0000016841F480710160016801F480710191F5
:102A1000016841F010010160016801F010010191AD
:102A2000016841F040010160016801F0400101913D
:102A3000016841F008010160016801F0080101919D
:102A4000016841F008010160016801F0080101918D
:102A5000016841F480710160016801F480710191A5
:102A6000016841F001010160016801F0010101917B
:102A7000016841F002010160016801F00201019169
:102A8000016841F002010160016801F00201019159
:102A9000016841F040010160016801F040010191CD
:102AA000016841F480710160016801F48071019155
:102AB000016841F480710160016801F48071019145
:102AC000016841F020010160016801F020010191DD
:102AD000016841F008010160016801F008010191FD
:102AE000016841F008010160006800F008000190F1
:102AF0004FF00409CDF808900225059503950120B3
:102B000004900E24069402A96E48FDF795FF082054
:102B10000290069402A96B48FDF78EFFE80102902F
:102B2000069402A96748FDF787FF012002904FF045
:102B30000908CDF81880644802A9FDF77DFFA802B6
:102B40000290069402A96148FDF776FF4FF4805A7F
:102B5000CDF808A0069402A95C48FDF76DFF029528
:102B6000CDF8188002A95848FDF766FF4026029666
:102B7000069402A95648FDF75FFF202002900694B4
:102B800002A95448FDF758FF0296069402A951483D
:102B9000FDF752FF28030290069402A94948FDF769
:102BA0004BFF6F020297CDF8188002A94848FDF745
:102BB00043FFA8030290069402A94248FDF73CFF98
:102BC00001200290069402A9DFF80CB15846FDF7E7
:102BD00033FF4FF08008CDF80880069402A93F48E3
:102BE000FDF72AFFCDF80890069402A95846FDF794
:102BF00023FF4FF01009CDF80890069402A935483C
:102C0000FDF71AFFCDF808A0069402A93048FDF799
:102C100013FF0296069402A9DFF8C4A05046FDF700
:102C20000BFFA8020290069402A92948FDF704FFB1
:102C3000CDF80890069402A95846FDF7FDFE08203D
:102C40000290069402A92148FDF7F6FEE8010290E1
:102C5000069402A91C48FDF7EFFE2E020296069488
:102C600002A91948FDF7E8FECDF80880069402A9EC
:102C70001748FDF7E1FE0297069402A95846FDF7B2
:102C8000DBFE0296069402A95846FDF7D5FE029790
:102C9000069402A91348FDF7CFFECDF808900595DC
:102CA00001200390049002A95046FDF7C5FECDF81F
:102CB000088002A95046FDF7BFFE07B0BDE8F08FBF
:102CC00030380240001C0240000402400000024074
:102CD000001802400010024000200240000802409C
:102CE000000C02400014024004480549406800EB13
:102CF000400001EB80008068704700002C0001203C
:102D0000600201200548406800EB800101EBC00033
:102D1000034901EB8000006E704700002C00012089
:102D2000780101200548406800EB800101EBC000FC
:102D3000034901EB8000406E704700002C00012029
:102D40007801012030B5A3B02848016841F08061C6
:102D50000160006800F08060019024481438016828
:102D600041F400010160006800F400000190214C72
:102D70001F48206000256561A5612E20E0611720B5
:102D8000206240F24E30606240F2F710A06240F2E2
:102D90006230E06240F20D20206308200290C020E3
:102DA0000790052009904FF480300D9002A8FEF79F
:102DB00099FA4FF4487020664FF4F070606684F81A
:102DC000365084F8355084F834506560A560E5606D
:102DD00025612046FDF774FFFFF796FD01F04CF8E2
:102DE000054800F067F823B030BD000044380240C9
:102DF00000680140780101203400012030B58DB019
:102E000004460B46154600220092FFF77BFF019017
:102E10000292FFF787FF039004950993FF20059026
:102E200006928DF830208DF831208DF832204FF445
:102E3000C060079007200890FFF764FF0A90FFF733
:102E400071FF0B9022460A486946FDF70FFF084ABA
:102E500004EB44014FF0FF33E83202EB81004360A2
:102E6000044B83604FF07F4042F821000DB030BD2D
:102E700078010120340001200149486070470000BA
:102E80002C0001200449054A496801EB410102EB8D
:102E900081014860704700002C0001206002012081
:102EA0000B4600B500F014F85DF804EB1846FFF788
:102EB000E9BF00000449054A496801EB410102EB02
:102EC00081018860704700002C0001206002012011
:102ED0000349044A496801EB410142F82100704767
:102EE0002C0001206002012002460148FDF769BF65
:102EF000780101202DE9F04F99B0A84C2078401CB2
:102F00002070FF210120FFF7EFFF4FF07F4528469B
:102F1000FFF740F928162946FFF7C2FFA048FFF740
:102F2000C9FF01209FA1FFF737FA0220A3A1FFF7F5
:102F300033FA0320A6A1FFF72FFA0420AAA1FFF776
:102F40002BFA0520B3A1FFF727FA0620B8A1FFF757
:102F500023FA2278BCA1684601F0CEFA0720FFF7D9
:102F600035F907206946FFF717FABF48FFF7B0FFAA
:102F70000820FFF72BF90820BCA1FFF70DFA2E124D
:102F800029463046FFF78CFFFA2340F2EE27322025
:102F90003A461946FFF710FB4FF496743A46322032
:102FA00023462146FFF708FB4FF0FF272946384606
:102FB000FFF776FF4FF4C8782046FA214346424691
:102FC000FFF7FAFA60004346FA210246FFF7F4FAE7
:102FD0006FF07F494846FDF786FA29462846FFF7F5
:102FE0005FFF4FF48C7A4FF4487B5346C8215A4612
:102FF0000020FFF73DFC9C48FFF76AFF0820FFF721
:10300000E5F808209BA1FFF7C7F929463046FFF7EE
:1030100047FFC82264231046FA21FFF767FB2946C1
:103020003846FFF73DFF4FF4AF7832234046C822C1
:10303000FA21FFF75BFB8C482946FFF731FFC823D5
:10304000414632221846FFF751FB4846FDF74BFA3E
:1030500029462846FFF724FFC821534600205A4638
:10306000FFF706FC8048FFF733FF0820FFF7AEF8B4
:10307000082082A1FFF790F929463046FFF710FF9C
:10308000C82264231046FA21FFF7F2FB294638468E
:10309000FFF706FF32234046C822FA21FFF7E8FB7C
:1030A00071482946FFF7FCFEC823414632221846E4
:1030B000FFF7DEFB4846FDF716FA29462846FFF7DC
:1030C000EFFEC821534600205A46FFF7D1FB664861
:1030D000FFF7FEFE0820FFF779F808206AA1FFF746
:1030E0005BF931463046FFF7DBFE32224146C8200D
:1030F000FFF79AF939463846FFF7D2FE4B22414690
:103100004046FFF791F94846FDF7EDF92946284674
:10311000FFF7C6FEC821534600205A46FFF7A8FB1A
:103120005148FFF7D5FE0820FFF750F8082058A1B6
:10313000FFF732F929463046FFF7B2FE3222414608
:103140002046FFF735FB29463846FFF7A9FE4B22FC
:1031500041464FF4E170FFF72BFB4846FDF7C3F9FA
:1031600029462846FFF79CFEC821534600205A46B0
:10317000FFF77EFB0820FFF729F84846FDF7B3F973
:1031800029462846FFF78CFEC821534600205A46A0
:10319000FFF76EFB19B0BDE8F08F000008000120BA
:1031A00034000120B1FCBBF0352E30D3A2B4E7D2FD
:1031B000BABEA7C6C1B2CECAFDA3AC00B7D6B1E6AF
:1031C000C2CA3A3830307834383020CFF1CBD8000A
:1031D000B4A5C3FEC6C13A35B5E3B5E7C8DDB4A5AD
:1031E000C3FEC6C100000000CAB9D3C353544D3357
:1031F000322D4C544443D6B1BDD3C7FDB6AF2CCE0F
:10320000DED0E8CDE2B2BFD2BABEA7C7FDB6AFC628
:10321000F7000000D6A7B3D65247423838382F35CA
:1032200036352C3234CEBBCAFDBEDDD7DCCFDF0055
:10323000B4A5C3FEC6C1CAB9D3C3494943D7DCCF7D
:10324000DFC7FDB6AF000000CFD4CABEB1E4C1BF36
:10325000C0FDD7D33A2074657374436F756E7420C4
:103260003D20256420000000FF0000FFBBADCFDF44
:103270003A000000BBADBED8D0CE3A00CCEEB3E4ED
:10328000BED8D0CE3A000000BBADD4B23A000000A8
:10329000CCEEB3E4D4B23A00F0B587B0254801686B
:1032A00041F080010160016801F080010191016835
:1032B00041F080010160016801F080010191016825
:1032C00041F080010160016801F080010191016815
:1032D00041F008010160006800F0080001904FF41F
:1032E000806502950120039004900320059002A9B7
:1032F000114F3846FDF7A0FB6C00029402A9384636
:10330000FDF79AFB6600029602A93846FDF794FB8A
:10331000029402A9094F3846FDF78EFB0649183181
:103320000D600C600E60002221463846FDF774FCEB
:1033300007B0F0BD30380240001C0240000C0240D3
:103340002DE9F84305460E4617461C46DDE90808F8
:103350001A4A4FF4403151601949496801EB810321
:1033600003EBC101A2F1A80303EB8101896C0229DF
:103370001ED000219160D060124810600F48FDF708
:1033800033FA002817D10D482946FDF7CFF9002858
:1033900011D10A483B46324641460094FDF7EAFA0D
:1033A000002808D1BDE8F84304480A21FDF74BBACC
:1033B00002219160DFE7BDE8F883000020020120D0
:1033C0002C00012000B00240F0B503688C88DD6855
:1033D000C5F30B452C442504882404EBC2141E5964
:1033E00006F470461E5103680F68DE68C6F30B468C
:1033F000761C3E442E431E5103688C89DD68C5F35C
:103400000A052C4425048C2404EBC2141E5906F42E
:1034100070461E5103688F68DE68C6F30A06761C84
:103420003E442E431E510468942303EBC213E55817
:1034300025F00705E55005680C69EC5091F831302E
:103440004FEA032C91F832301E040B7E1F060468ED
:103450009C2303EBC213E5580025E55091F830405A
:103460003E4344EA0C0434430668F450046898234D
:1034700003EBC213E65826F0FF06E65006684C69D7
:10348000F4500468A02303EBC213E65840F2077718
:10349000BE43E650D1E9074634430668F450046859
:1034A000AC2303EBC213E658E55005684C6AEC50B8
:1034B0000B69002B31D0012B31D0042B31D0022BE2
:1034C0002FD0032B2DD0072B2BD001230568B02440
:1034D00004EBC2142E5906F0E0262E51D1E9006506
:1034E000AD1B0E8D5D43ED1C5E4345EA064305684A
:1034F0002B510468B42303EBC213E5586FF30A059C
:10350000E5500468C96AE1500068842101EBC211EA
:10351000425842F001024250F0BD0423D6E7032393
:10352000D4E70223D2E7FEE770470907090E002817
:1035300006DA00F00F0000F1E02080F8141D70475B
:1035400000F1E02080F80014704770472DE9F04149
:103550000025164E002416F81500A040000603D5DD
:1035600013A000F0B9FF02E012A000F0B5FF641C48
:10357000082CF0DB002406EB45077878A040000615
:1035800003D50BA000F0A8FF02E00AA000F0A4FF02
:10359000641C082CF1DB08A000F09EFF6D1C102DB0
:1035A000D8DBBDE8F04105A000F096BF090001207E
:1035B0002A000000200000000A0000000A0A0000A3
:1035C00000B595B04FF480710D9105210791002150
:1035D0000E910F914FF0807210920C9112911391F5
:1035E00014910191012202920591049210210391FC
:1035F0008904069101AA0346044807A9FDF7A4FC23
:1036000010B1012015B000BD0020FBE778020120B9
:10361000F0B54B6A4FF04065002B05D0AA4203D0AD
:1036200004688B6A5B1E23618B69002B69D00C6A6E
:10363000C4B304688B68E361CB69EBB1D1E90B4695
:103640004F6A34434E6B3E4334438E8A44EA864489
:103650000E6934430E6A3443CE6834431C438B698D
:103660001C430B681C43036814435C61AA4202D0EC
:10367000006849688161F0BDD1E90B344D6A00688A
:1036800023434C6B2C4323438C8A43EA84430C69C9
:1036900023430C6A23438C69096823430B43134378
:1036A0004361F0BDFFE7CC69D4B1D1E90B67D1F834
:1036B00024C03E434F6B47EA0C073E438F8A46EADD
:1036C0008746CF683E4326431E430B681E4303686C
:1036D00016435E61AA42E4D0006849688161E0E770
:1036E000D1E90B454E6A00682C434D6B35432C43A2
:1036F0008D8A096844EA85441C430C4314434461A1
:10370000CFE70B6AA3B304688B68E361CB69DBB1D5
:10371000D1E90B464F6A34434E6B3E4334438E8AA5
:1037200044EA86440E6934430E6A3443CE68344317
:103730001C438B691C43036814435C61AA42B0D0EC
:10374000006849688161ACE7D1E90B344D6A0068D3
:1037500023434C6B2C4323438C8A43EA84430C69F8
:1037600023430C6A896923430B431343436198E75E
:10377000FFE7CB69ABB1D1E90B464F6A34434E6BDF
:103780003E4334438E8A44EA8644CE6834431C4325
:10379000036814435C61AA4283D000684968816170
:1037A0007FE74B6A002B9AD0D1E90B4500682C4388
:1037B0004D6B898A1D432C4344EA81411143416189
:1037C0006FE700002DE9F04F87B04448016841F0F1
:1037D00002010160006800F0020001903F480838D3
:1037E000016841F002010160016801F002010191EC
:1037F000016841F020010160016801F020010191A0
:10380000016841F020010160016801F0200101918F
:10381000016841F020010160016801F0200101917F
:10382000016841F020010160016801F0200101916F
:10383000016841F002010160006800F0020001909F
:10384000042702974FF00208CDF80C804FF00009D2
:10385000CDF810900320059009240694204802A971
:10386000FDF7EAF84FF4807ACDF808A00A2506950E
:10387000DFF870B002A95846FDF7DEF8F8010290B3
:10388000069502A95846FDF7D7F8802002900694C5
:1038900002A95846FDF7D0F840260296069402A9E0
:1038A0005846FDF7C9F80296069502A90C48FDF79F
:1038B000C3F80E480C490160C0F8048087601021ED
:1038C000C16017210161C0F814A0C0F81890FDF77D
:1038D000D9FBFCF7CFFC07B0BDE8F08F38380240C9
:1038E0000004024000140240001000A078020120F1
:1038F00010B58EB04FF480700690662000900020C6
:1039000007900890099005900B900C900D9041F253
:1039100088340D4822466946FDF76BFB10B1012043
:103920000EB010BD99200090074822466946FDF769
:1039300060FB08B10120F3E72046FFF741FE08B124
:103940000120EDE70020EBE7780201202DE9F047A8
:1039500006460F4690469946089C12E0601C10D01F
:103960002CB1FDF761F9A0EB0900A04209D90420B0
:1039700086F83900F06B40F00100F0630120BDE8EB
:10398000F08730688068384201D0012500E00025CA
:103990004545E3D10020F2E730B595B04FF4807093
:1039A0000D900620079000240E940F9410940C9410
:1039B00012941394149441F28835114807A92A46A9
:1039C000FDF717FB10B1012015B030BD02200190AA
:1039D0000290059401200490102103918105069125
:1039E0000521079101061091119001AA044807A929
:1039F0002B46FDF7A9FA08B10120E5E70020E3E72F
:103A0000780201202DE9F04F87B0FE48016841F0AF
:103A100020010160016801F020010191016841F07D
:103A200020010160016801F020010191016841F06D
:103A300020010160016801F020010191016841F05D
:103A400020010160016801F020010191016841F04D
:103A500020010160016801F020010191016841F03D
:103A600020010160016801F020010191016841F02D
:103A700020010160016801F020010191016841F01D
:103A800020010160016801F020010191016841F00D
:103A900020010160016801F020010191016841F0FD
:103AA00020010160016801F020010191016841F0ED
:103AB00040010160016801F040010191016841F09D
:103AC00040010160016801F040010191016841F08D
:103AD00008010160016801F008010191016841F0ED
:103AE00008010160016801F008010191016841F0DD
:103AF00008010160016801F008010191016841F0CD
:103B000008010160016801F008010191016841F0BC
:103B100010010160016801F010010191016841F09C
:103B200010010160016801F010010191016841F08C
:103B300010010160016801F010010191016841F07C
:103B400010010160016801F010010191016841F06C
:103B500010010160016801F010010191016841F05C
:103B600010010160016801F010010191016841F04C
:103B700010010160016801F010010191016841F03C
:103B800010010160016801F010010191016841F02C
:103B900010010160016801F010010191016841F01C
:103BA00008010160016801F008010191016841F01C
:103BB00008010160016801F008010191016841F00C
:103BC00008010160016801F008010191016841F0FC
:103BD00080010160016801F080010191016841F0FC
:103BE00040010160016801F040010191016841F06C
:103BF00040010160016801F040010191016841F05C
:103C000004010160016801F004010191016841F0C3
:103C100020010160016801F020010191016841F07B
:103C200040010160016801F040010191016841F02B
:103C300040010160016801F040010191016841F01B
:103C400080010160016801F080010191016841F08B
:103C500010010160016801F010010191016841F05B
:103C600010010160006800F0100001900220039034
:103C700001200490022005900C2006900120029063
:103C8000614802A9FCF7D8FE022002905E4802A912
:103C9000FCF7D2FE042002905B4802A9FCF7CCFEA0
:103CA00008200290584802A9FCF7C6FE1027029788
:103CB000554802A9FCF7C0FE4FF02008CDF8088057
:103CC000514802A9FCF7B8FE380202904E4802A9FA
:103CD000FCF7B2FE4FF40059CDF808904A4802A90B
:103CE000FCF7AAFEBD020295474802A9FCF7A4FE14
:103CF0006C000294444802A9FCF79EFE0120029049
:103D0000424802A9FCF798FE022002903F4802A90F
:103D1000FCF792FE029502A93D48FCF78DFE029445
:103D200002A93B48FCF788FE01200290384802A90E
:103D3000FCF782FE02200290354802A9FCF77CFEC7
:103D400080200290334802A9FCF776FEE611029625
:103D5000304802A9FCF770FE4FF4007ACDF808A0B5
:103D60002C4802A9FCF768FE60110290294802A9BC
:103D7000FCF762FE4FF4006BCDF808B0254802A9AD
:103D8000FCF75AFEE0100290224802A9FCF754FE0C
:103D9000CDF8089002A91F48FCF74EFE029502A933
:103DA0001C48FCF749FE029402A91A48FCF744FE9D
:103DB000029602A91648FCF73FFECDF808A002A91A
:103DC0001348FCF739FE60110290114802A9FCF774
:103DD00033FE40200290104D02A92846FCF72CFE2D
:103DE000029702A90948FCF727FECDF8088002A92E
:103DF0000648FCF721FE01200290084802A9FCF7C2
:103E00001BFE0DE030380240001402400018024052
:103E1000000C024000100240001C0240000802405A
:103E2000CDF808B002A91148FCF706FE029402A9D9
:103E30000F48FCF701FE029602A90D48FCF7FCFDB5
:103E40008020029002A92846FCF7F6FD022002908D
:103E5000084802A9FCF7F0FD01200290054802A9DC
:103E6000FCF7EAFD07B0BDE8F08F00000014024047
:103E7000001802400010024000B589B0FFF7C2FDF3
:103E80001748016841F001010160006800F001007D
:103E900001901548134901600121416000218160B2
:103EA0000422C26010230361402343614FF4C073B6
:103EB0008361C161530203624162D10281620220C7
:103EC00002900721039104920591069007900890B3
:103ED00002A90548FEF762F800F008F809B000BD35
:103EE00038380240400100A0500001202DE9F04781
:103EF000204C0125256008266660A5600027E76044
:103F00004FF6FF7921464A4601F11000FEF77CF892
:103F1000012000F031F8022020606660A560E760B3
:103F2000214601F110004A46FEF76EF8032020609A
:103F300066604FF00408C4F80880E760214601F18C
:103F400010004A46FEF760F840F23120C4F80080C5
:103F50006660A560E060214601F110004A46FEF768
:103F600053F804F1100040F26A51BDE8F047FEF743
:103F700038B800004000012001B581B00549019822
:103F80004843009002E00098401E009000980028EE
:103F9000F9D10CBDA08601007047FCF74BBE10B5EF
:103FA00092B0012001900004029002240794800145
:103FB00008901920099000010A900B9408200C9099
:103FC00001A8FDF709FE00B1FEE7FCF747FF00B1CD
:103FD000FEE70F200D900E9400200F904FF4A0509C
:103FE00010904FF48050119006210DA8FDF7C6FCEB
:103FF000002800D0FEE712B010BD00001048016894
:1040000041F4700101600F48016841F00101016055
:104010000C4A00210832116002680B4B1A40026002
:10402000031D0A4A1A60026822F4802202600548D1
:104030000C30016058060249803908607047000062
:1040400088ED00E000380240FFFFF6FE103000244B
:1040500090F82410C90706D001684A68836A22F4E0
:1040600000321A434A6090F82410890706D5016887
:104070004A68C36A22F480321A434A6090F82410D6
:10408000490706D501684A68036B22F480221A4367
:104090004A6090F82410090706D501684A68436B06
:1040A00022F400421A434A6090F82410C90606D54B
:1040B00001688A68836B22F480521A438A6090F800
:1040C0002410890606D501688A68C36B22F4005261
:1040D0001A438A6090F82410490611D501684A688D
:1040E000036C22F480121A434A60016CB1F5801F00
:1040F00006D101684A68436C22F4C0021A434A6040
:1041000090F82410090606D501684A68806C22F4EC
:10411000002202434A607047F8B504460026E6666E
:10412000FCF782FD0746206800686FF07E450007B7
:104130000AD500223B464FF400112046009500F0BE
:1041400097F908B10320F8BD2068006840070AD538
:1041500000223B464FF480012046009500F088F98C
:1041600008B10320F8BD202068346070A07026706C
:104170000020F8BD2DE9F041044610210022002561
:10418000A3682069E66903436069304303432068FC
:104190000668AB4F3E401E43066020684368E668F1
:1041A00023F4405333434360A369206A03432068E8
:1041B000866826F430661E438660A24FCE022068D1
:1041C000A14BB84212D11B6813F0030306D0012B98
:1041D00008D0022B04D0032B01D105E00121A9E076
:1041E0000221A7E00421A5E00821A3E0974FB842EF
:1041F00012D11B6813F00C0306D0042B08D0082B37
:1042000004D00C2B01D105E0002193E0022191E0C4
:1042100004218FE008218DE08D4FB84212D11B6838
:1042200013F0300306D0102B08D0202B04D0302BF5
:1042300001D105E000217DE002217BE0042179E04D
:10424000082177E0834FB84212D11B6813F0C003F6
:1042500006D0402B08D0802B04D0C02B6AD105E0BB
:10426000002167E0022165E0042163E0082161E0AC
:10427000794FB84215D11B6813F4407309D0B3F5D8
:10428000807F0AD0B3F5007F05D0B3F5407F51D1D0
:1042900005E000214EE002214CE004214AE0082123
:1042A00048E06E4FB84215D11B6813F4406309D043
:1042B000B3F5806F0AD0B3F5006F05D0B3F5406F4A
:1042C00038D105E0012135E0022133E0042131E05D
:1042D00008212FE0624FB84215D11B6813F44053F8
:1042E00009D0B3F5805F0AD0B3F5005F05D0B3F510
:1042F000405F1FD105E000211CE002211AE00421EB
:1043000018E0082116E0574FB84213D11B6813F488
:10431000404308D0B3F5804F09D0B34205D0B3F580
:10432000404F07D105E0002104E0022102E0042112
:1043300000E00821E369B34240D1092935D2DFE822
:1043400001F0050F1934213434342B00FDF7D6FB6E
:104350004100606801EB5001B1FBF0F082B225E052
:10436000FDF7E2FB4100606801EB5001B1FBF0F0AA
:1043700082B21BE060683C4901EB5001B1FBF0F0F8
:1043800082B213E0FDF7E6FB4100606801EB5001EB
:10439000B1FBF0F082B209E060684FF4803101EBCC
:1043A0005001B1FBF0F082B200E0012522F00F00D5
:1043B000C2F3420108432168C8603EE009293BD2AC
:1043C000DFE801F005111D3A263A3A3A3200FDF7CE
:1043D00095FB0146606801EB5001B1FBF0F02168EC
:1043E00080B2C86029E0FDF79FFB0146606801EBE1
:1043F0005001B1FBF0F0216880B2C8601DE0616837
:104400001A4A02EB5102B2FBF1F189B2C16014E029
:10441000FDF7A0FB0146606801EB5001B1FBF0F035
:10442000216880B2C86008E0616806EB5102B2FB07
:10443000F1F189B2C16000E001252846BDE8F081B4
:10444000F369FFEF00100140903802400044004043
:1044500000480040004C0040005000400014014063
:1044600000780040007C00400048E8010024F4008F
:104470002DE9F04104460E4617469846069D1DE07C
:10448000681C1BD02DB1FCF7CFFBA0EB0800A842A5
:1044900014D32068016821F4D0710160206881681C
:1044A00021F001018160202084F8690084F86A000D
:1044B000002084F868000320BDE8F0812068C0690E
:1044C00036EA000004D00020B842D9D00020F3E73B
:1044D0000120F9E7FEE700000FB4054B10B503A972
:1044E000044A029800F02CF810BC5DF814FB0000A0
:1044F000A14600083C0001200FB4084B10B504A9E8
:1045000002AA039800F01CF8044602A9002000F05B
:10451000C1F8204610BC5DF814FB00009546000869
:1045200002E008C8121F08C1002AFAD1704770477C
:10453000002001E001C1121F002AFBD170470000DA
:104540002DE9FF4F89B09B460446002506E025284B
:104550000BD05A460B999047641C6D1C207800289C
:10456000F5D10DB02846BDE8F08F0027B8460122EE
:10457000474900E0074314F8013F203B02FA03F0EB
:104580000842F7D120782E2819D114F8010F47F0EE
:1045900004072A280ED06FF02F022078A0F13001F6
:1045A00009290CD808EB880102EB410100EB010856
:1045B000641CF2E70A98641C50F8048B0A90207877
:1045C0000028CED0642808D0692806D075281ED0CF
:1045D0005A460B9990476D1C58E00A994FF00A090A
:1045E00001C90A91002802DA40422D2102E0390572
:1045F00004D52B218DF82010012103E0F90704D008
:104600002021F7E78A4608AE0DE00021FAE70A9973
:104610004FF00A0901C90A91F7E74946FBF702FE84
:10462000303106F8011D0028F7D1ADEB060000F18E
:104630002009780701D44FF00108C84502DDA8EB36
:10464000090000E000208046002706E008A85A463E
:10465000C05D0B9990476D1C7F1C5745F6DB04E04D
:1046600030205A460B9990476D1CB8F10001A8F113
:104670000108F5DC05E016F8010B5A460B99904746
:104680006D1CB9F10001A9F10109F4DC641C65E7B6
:10469000092801000A68531C0B6010707047000065
:1046A00013B5044801224FF47A736946FDF715FDEE
:1046B00000981CBD84000120FFF771FCFBF756FE3B
:1046C000FEF744FFFEF7E8FDFEF73CFB00224FF04B
:1046D000504510462946FEF791FBFEF713FB0446B2
:1046E000FEF720FB44430022012005EB8401FEF786
:1046F00085FBFDF739FE0020FEF7BEFB4FF07F443F
:104700002046FDF747FD0120FEF7B6FB2046FDF7EA
:1047100041FD00210846FEF7E7FB64210120FEF77A
:10472000E3FB07484FF480610160C1140160490454
:10473000016040F6FF70FBF7D6FEFEF7DBFBFCE7FF
:10474000181C0240000000000000000001020304E9
:104750000607080900000000010203040000000031
:104760000000000000000000000000000000000049
:104770000000000000000000000000000000000039
:104780000000000000000000000000000000000029
:104790000000000000000000000000000000000019
:1047A0000000000000000000000003800003800003
:1047B0000380000380000380000380000380000367
:1047C00080000380000100000100000000000000E4
:1047D00000038000038000000000000000000000D3
:1047E00000000000000000000000000000000000C9
:1047F00000000000000E70000E70000E700004201B
:10480000000420000420000420000000000000003C
:104810000000000000000000000000000000000098
:104820000000000000000000000000000000000088
:1048300000000000000000000000066000066000AC
:104840000660000660000660003FF8003FF80006C2
:1048500060000CC0003FF8003FF8000CC0000CC026
:10486000000CC0000CC0000CC000000000000000E4
:104870000000000000000000000000000000000137
:10488000800001800007B0000FF000187000187061
:10489000001C00000F800007E00000F0001830004E
:1048A0001C30001C70001FE0001BC00001800001D4
:1048B0008000018000018000000000000000000076
:1048C000000000000000000000000780000FC00092
:1048D0001CE0001860001860001CE0000FF80007E2
:1048E000E0001FF00007380006180006180007381F
:1048F0000003F00001E000000000000000000000E4
:1049000000000000000000000000000000000000A7
:10491000000000000000000003F00007F0000C6041
:10492000000C00000C00000600000700000F9C00B7
:104930001DFC0018F0001870000FFC0007DC0000E0
:104940000000000000000000000000000000000067
:1049500000000000000000000000000000038000D4
:10496000038000038000010000010000010000013D
:104970000000000000000000000000000000000037
:104980000000000000000000000000000000000027
:104990000000000000000000000000000000000017
:1049A000000000180000380000700000F00000E077
:1049B0000000E00001C00001C00001C00001C00013
:1049C00001C00001C00000E00000E0000070000035
:1049D0007000003800001800000000000000000017
:1049E000000000000000000000001800001C000093
:1049F0000E00000E00000700000700000380000307
:104A00008000038000038000038000038000070013
:104A1000000700000F00000E00001C00001800003E
:104A20000000000000000000000000000000000086
:104A300000000180000180000180001DB8001FF807
:104A40000007E00003C00003C0000660000660002D
:104A50000000000000000000000000000000000056
:104A60000000000000000000000000000000000046
:104A70000000000000000000000000000000000036
:104A80000180000180000180000180000180003F62
:104A9000FC003FFC000180000180000180000180DB
:104AA0000001800000000000000000000000000085
:104AB00000000000000000000000000000000000F6
:104AC00000000000000000000000000000000000E6
:104AD00000000000000000000000000000000000D6
:104AE00000000000000000E00000C00001C0000164
:104AF00080000180000300000300000000000000AF
:104B000000000000000000000000000000000000A5
:104B10000000000000000000000000000000001F76
:104B2000F8001FF800000000000000000000000076
:104B30000000000000000000000000000000000075
:104B40000000000000000000000000000000000065
:104B50000000000000000000000000000000000055
:104B60000000000000000000000000000000000045
:104B700000000000000003C00003C00003C00000EC
:104B80000000000000000000000000000000000025
:104B9000000000000018000018000038000030007D
:104BA00000700000600000600000C00000C0000154
:104BB00080000180000300000300000600000600E2
:104BC000000E00000C00001C00001800001800007F
:104BD00000000000000000000000000000000000D5
:104BE000000003C00007E0000C30000C3000181873
:104BF00000181800181800181800181800181800C5
:104C00001818000C30000C300007E00003C0000052
:104C10000000000000000000000000000000000094
:104C2000000000000000000000000080000780007D
:104C30001F80001D800001800001800001800001B4
:104C4000800001800001800001800001800001805F
:104C5000001FF8001FF80000000000000000000026
:104C60000000000000000000000000000000000044
:104C7000000007C0001FF000383000301800301866
:104C80000000180000300000600001C00003800038
:104C90000600000C00001800003FF8003FF800007C
:104CA0000000000000000000000000000000000004
:104CB0000000000000000000000003C0000FE00042
:104CC0000C700000300000300000600003C00003E2
:104CD000E0000070000018000018000018001838EC
:104CE000001FF0000FC000000000000000000000E6
:104CF00000000000000000000000000000000000B4
:104D0000000000E00001E00001E000036000066038
:104D1000000660000C60000C60001860003060004D
:104D20003FF8003FF80000600003F80003F80000BF
:104D30000000000000000000000000000000000073
:104D4000000000000000000000001FF0001FF00045
:104D50001800001800001800001BC0001FF0001C05
:104D60003000001800001800001800001800303053
:104D7000003FF0000FC00000000000000000000035
:104D80000000000000000000000000000000000023
:104D9000000000F80003F8000700000E00000C00FF
:104DA000001800001BC0001FF0001C300018180085
:104DB0001818001818000C38000FF00003E000006D
:104DC00000000000000000000000000000000000E3
:104DD000000000000000000000001FF8001FF800A5
:104DE0001818001838000030000030000070000073
:104DF000600000600000E00000C00000C00001C0D2
:104E000000018000018000000000000000000000A0
:104E10000000000000000000000000000000000092
:104E2000000007E0000FF0001C38001818001818E8
:104E3000000C300007E00007E0000C3000181800FC
:104E40001818001818001C38000FF00007E00000C8
:104E50000000000000000000000000000000000052
:104E60000000000000000000000007C0000FF0007C
:104E70001C30001818001818001818000C38000F03
:104E8000F80003D80000180000300000700000E0B7
:104E9000001FC0001F000000000000000000000014
:104EA0000000000000000000000000000000000002
:104EB000000000000000000000000000000003C02F
:104EC0000003C00003C0000000000000000000005C
:104ED00000000000000003C00003C00003C0000089
:104EE00000000000000000000000000000000000C2
:104EF00000000000000000000000000000000000B2
:104F000000000000000000F00000F00000F00000D1
:104F1000000000000000000000000000E00001C0F0
:104F2000000180000180000300000200000000007A
:104F30000000000000000000000000000000000071
:104F40000000000000000000001C00003C0000F019
:104F50000003C0000F00003C0000F000003C000017
:104F60000F000003C00000F000003C00001C000027
:104F70000000000000000000000000000000000031
:104F80000000000000000000000000000000000021
:104F90000000000000000000007FFC007FFC00001B
:104FA00000000000007FFC007FFC0000000000000B
:104FB00000000000000000000000000000000000F1
:104FC00000000000000000000000000000000000E1
:104FD00000000000000000007000007800001E00CB
:104FE0000007800001E000007800001E000078004B
:104FF00001E0000780001E00007800007000000043
:1050000000000000000000000000000000000000A0
:105010000000000000000000000000000007C000C9
:105020000FE0001870001830001830000070000009
:10503000E00003C000038000030000000000000047
:105040000007000007000000000000000000000052
:105050000000000000000000000000000000000050
:10506000000003E00007F0000E38000C180018786C
:105070000018F80019D8001998001998001998001C
:1050800018F8001878001800000C00000E1800072F
:10509000F80003E000000000000000000000000035
:1050A000000000000000000000000000001F800061
:1050B0001FC00001C000036000036000063000064E
:1050C00030000C30000FF8001FF800180C00300CF6
:1050D00000FC7F00FC7F00000000000000000000DA
:1050E00000000000000000000000000000000000C0
:1050F00000000000007FE0007FF000183800181862
:10510000001818001838001FF0001FF800181C00C5
:10511000180C00180C00180C007FF8007FF000003D
:10512000000000000000000000000000000000007F
:105130000000000000000000000000000003EC0080
:105140000FFC001C1C00180C00300C00300000305C
:105150000000300000300000300000180C001C1C63
:10516000000FF80003F00000000000000000000045
:10517000000000000000000000000000000000002F
:1051800000000000007FC0007FF0001838001818F1
:1051900000180C00180C00180C00180C00180C005B
:1051A000180C001818001838007FF0007FE000008D
:1051B00000000000000000000000000000000000EF
:1051C000000000000000000000000000007FF80068
:1051D0007FF8001818001818001998001980001F8F
:1051E00080001F80001980001998001818001818F6
:1051F000007FF8007FF800000000000000000000C1
:10520000000000000000000000000000000000009E
:1052100000000000003FFC003FFC000C0C000C0CE8
:10522000000CCC000CC0000FC0000FC0000CC00070
:105230000CC0000C00000C00003FC0003FC000008C
:10524000000000000000000000000000000000005E
:105250000000000000000000000000000003EC005F
:105260000FFC001C1C00180C00300C00300000303B
:10527000000030FE0030FE00300C00380C001C1C1A
:10528000000FFC0003F00000000000000000000020
:10529000000000000000000000000000000000000E
:1052A00000000000007E7E007E7E001818001818A6
:1052B000001818001818001FF8001FF80018180030
:1052C0001818001818001818007E7E007E7E000056
:1052D00000000000000000000000000000000000CE
:1052E000000000000000000000000000001FF800A7
:1052F0001FF8000180000180000180000180000192
:105300008000018000018000018000018000018098
:10531000001FF8001FF8000000000000000000005F
:10532000000000000000000000000000000000007D
:10533000000000000007FE0007FE00003000003003
:10534000000030000030000030003030003030000D
:105350003030003030003060003FE0000F8000004F
:10536000000000000000000000000000000000003D
:10537000000000000000000000000000007F3E0070
:105380007F3E0018300018600018C0001980001B14
:1053900080001FC0001CE000187000183000183892
:1053A000007F1F007F1F00000000000000000000C1
:1053B00000000000000000000000000000000000ED
:1053C00000000000007F80007F80000C00000C00C7
:1053D000000C00000C00000C00000C00000C0C0085
:1053E0000C0C000C0C000C0C007FFC007FFC00007F
:1053F00000000000000000000000000000000000AD
:1054000000000000000000000000000000F00F009D
:10541000F81F00381C003C3C003C3C00366C003659
:105420006C0033CC0033CC00318C00300C00300CDD
:1054300000FE7F00FE7F0000000000000000000072
:10544000000000000000000000000000000000005C
:10545000000000000078FE0078FE001C18001E18F6
:10546000001F18001B18001B980019D80018D8003E
:1054700018F8001878001838007F18007F1800000E
:10548000000000000000000000000000000000001C
:105490000000000000000000000000000003C00049
:1054A0000FF0001C3800181800381C00300C0030B9
:1054B0000C00300C00300C00381C001818001C3890
:1054C000000FF00003C0000000000000000000001A
:1054D00000000000000000000000000000000000CC
:1054E00000000000003FF0003FF8000C1C000C0C16
:1054F000000C0C000C0C000C18000FF8000FE00062
:105500000C00000C00000C00003FC0003FC0000079
:10551000000000000000000000000000000000008B
:105520000000000000000000000000000003C000B8
:105530000FF0001C3800181800381C00300C003028
:105540000C00300C00300C00381C001818001C38FF
:10555000000FF00007C00007CC000FFC000C380063
:10556000000000000000000000000000000000003B
:1055700000000000007FE0007FF0001838001818DD
:10558000001818001838001FF0001FC00018E000B5
:105590001870001830001838007F1E007F0E0000C1
:1055A00000000000000000000000000000000000FB
:1055B0000000000000000000000000000007D8000C
:1055C0000FF8001C38001818001818001E00000FF3
:1055D000C00003F0000078001818001818001C38EC
:1055E000001FF0001BE000000000000000000000B1
:1055F00000000000000000000000000000000000AB
:1056000000000000003FFC003FFC00318C00318CAA
:1056100000318C00318C000180000180000180008D
:105620000180000180000180000FF0000FF00000F9
:10563000000000000000000000000000000000006A
:10564000000000000000000000000000007E7E005E
:105650007E7E001818001818001818001818001876
:1056600018001818001818001818001818000C3026
:10567000000FF00003C00000000000000000000068
:10568000000000000000000000000000000000001A
:1056900000000000007F7F007F7F00180C000C18C6
:1056A000000C18000C1800063000063000036000E3
:1056B00003600003600001C00001C0000080000022
:1056C00000000000000000000000000000000000DA
:1056D00000000000000000000000000000FE3F800D
:1056E000FE3F8030060030060030860019CC0019DD
:1056F000CC001B6C001B6C001E7C000E38000E38AA
:10570000000C18000C180000000000000000000051
:105710000000000000000000000000000000000089
:1057200000000000007E7E007E7E001818000C3015
:105730000006600003C00001800001800003C0007B
:105740000660000C30001818007E7E007E7E00008F
:105750000000000000000000000000000000000049
:10576000000000000000000000000000007C7E003F
:105770007C7E001818000C300006600006600003F4
:10578000C0000180000180000180000180000180D4
:10579000000FF0000FF0000000000000000000000B
:1057A00000000000000000000000000000000000F9
:1057B00000000000001FF8001FF800181800183043
:1057C0000018600018C000018000030000061800E7
:1057D0000C18001818003018003FF8003FF80000BF
:1057E00000000000000000000000000000000000B9
:1057F0000000000000000000000001F00001F000C7
:105800000180000180000180000180000180000112
:105810008000018000018000018000018000018083
:105820000001800001800001800001F00001F00013
:105830000000000000000000000000001800001838
:1058400000001C00000C00000E0000060000060016
:105850000003000003000001800001800000C00080
:1058600000C0000060000060000070000030000018
:1058700038000018000018000000000000000000C0
:10588000000000000000000000000F80000F8000FA
:105890000180000180000180000180000180000182
:1058A00080000180000180000180000180000180F3
:1058B000000180000180000180000F80000F800047
:1058C00000000000000000000000000000000000D8
:1058D000800001C00003E0000770000630000C18D3
:1058E00000180C0010040000000000000000000080
:1058F00000000000000000000000000000000000A8
:105900000000000000000000000000000000000097
:105910000000000000000000000000000000000087
:105920000000000000000000000000000000000077
:105930000000000000000000000000000000000067
:105940000000000000000000000000000000000057
:10595000000000000000FFFF00FFFF000000000348
:10596000000003800000E000006000000000000074
:105970000000000000000000000000000000000027
:105980000000000000000000000000000000000017
:105990000000000000000000000000000000000007
:1059A00000000000000000000000000000000000F7
:1059B0000000000000000FC0001FE00000300000E9
:1059C000300007F0001FF000383000303000307039
:1059D000001FFC000FBC00000000000000000000E1
:1059E00000000000000000000000000000000000B7
:1059F00000007800007800001800001800001BE08C
:105A0000001FF8001C1800180C00180C00180C00DF
:105A1000180C00180C001C18007FF8007BE0000038
:105A20000000000000000000000000000000000076
:105A30000000000000000000000000000000000066
:105A400000000000000003EC000FFC001C1C0038EC
:105A50000C00300C00300000300000380C001C1C22
:105A6000000FF80003F0000000000000000000003C
:105A70000000000000000000000000000000000026
:105A8000000000780000780000180000180007D817
:105A9000001FF800183800301800301800301800C7
:105AA0003018003018001838001FFE0007DE000014
:105AB00000000000000000000000000000000000E6
:105AC00000000000000000000000000000000000D6
:105AD00000000000000007E0001FF8001818003068
