:020000040800F2
:10000000E0090120DD0100089D2C00083D190008D1
:100010009B2C0008750200080D330008000000004A
:100020000000000000000000000000005532000841
:100030002503000800000000BF2C0008573200080C
:10004000F7010008F7010008F7010008F7010008B0
:10005000F7010008F7010008F7010008F7010008A0
:10006000F7010008F7010008F7010008F701000890
:10007000F7010008F7010008F7010008F701000880
:10008000F7010008F7010008F7010008F701000870
:10009000F7010008F7010008F7010008F701000860
:1000A000F7010008F7010008F7010008F701000850
:1000B000F7010008F7010008F7010008F701000840
:1000C000F7010008F7010008F7010008F701000830
:1000D000F7010008F7010008F7010008F701000820
:1000E000F7010008F7010008F7010008F701000810
:1000F000F7010008F7010008F7010008F701000800
:10010000F7010008F7010008F7010008F7010008EF
:10011000F7010008F7010008F7010008F7010008DF
:10012000F7010008F7010008F7010008F7010008CF
:10013000F7010008F7010008F7010008F7010008BF
:10014000F7010008F7010008F7010008F7010008AF
:10015000F7010008F7010008F7010008F70100089F
:10016000F7010008F7010008F7010008F70100088F
:10017000F7010008F7010008F7010008000000007F
:10018000F7010008F7010008F7010008F70100086F
:10019000F7010008F7010008F7010008F70100085F
:1001A000F7010008F7010008F7010008F70100084F
:1001B000F7010008F7010008F7010008F70100083F
:1001C000F7010008F7010008DFF80CD000F040F854
:1001D00000480047B7340008E0090120064880477E
:1001E00006480047FEE7FEE7FEE7FEE7FEE7FEE71C
:1001F000FEE7FEE7FEE7FEE7B9320008C9010008A6
:1002000040EA01039B0703D009E008C9121F08C098
:10021000042AFAD203E011F8013B00F8013B521E18
:10022000F9D2704730B50B46014600202022012448
:1002300009E021FA02F59D4205D303FA02F5491BB4
:1002400004FA02F52844151EA2F10102F1DC30BDCA
:10025000064C074D06E0E06840F0010394E8070013
:1002600098471034AC42F6D3FFF7B2FFE04F0008D6
:1002700000500008FEE70000F0B5059E0468656CBC
:10028000274F05F0404597FAA7F7B7FA87F7BB4025
:1002900033431D4365640368DA634268B2F5403F47
:1002A00002D00068C160F0BD01F07F4301F47F0718
:1002B00001F47F46CCB2856801F47F4201F47F0CE3
:1002C00042EA0C02BDB1012D18D001F47F02C1F346
:1002D000C401D20C022D13D0032D17D0190F3A0DE3
:1002E000330B24091B0143EA022242EA0132224372
:1002F00000688263F0BD1A432243F9E72243F7E71F
:10030000B30A5B0143EAC2220A43F1E7DB0FF40AB6
:10031000640144EA822242EAC3320A43E8E7000069
:100320000000FF3F704701B502E00098401E0090BA
:1003300000980028F9D108BD2DE9F74F83B0804619
:1003400089460026DFF8BCA0DFF8BCB0DAF8000070
:1003500000EB40000BEB80008068C188019185882C
:10036000E81D029020F00700401BC0B2009042E060
:100370000298C108059801FB060001290AD002294C
:100380000AD0017842788078090441EA02270743BD
:10039000002429E00778FBE74178007841EA00274C
:1003A000F6E70098291B0144491E01208840384285
:1003B0000CD0DAF80000494600EB40005BF8202042
:1003C00008EB040080B201F0E9FC0CE0DAF8000070
:1003D000494600EB40000BEB8000426808EB04004C
:1003E00080B201F0DBFC641CAC42DAD309F10109F4
:1003F0001FFA89F9761C01988642B9D306B0BDE888
:10040000F08F00000C000120C801012030B5D1E9B7
:1004100001230D681A43D1E9033423431A434B697E
:100420001A438B691A43D1E90734496A012D08D070
:1004300005686FF30E051A4322430A432A430260FC
:100440000BE0056825F4F845234329430B43416835
:100450006FF30E010A4303604260002030BD426921
:1004600042EA4101416100207047F8B50646144652
:10047000D1E9000210438A68C968521E520142EA5B
:100480004121084300900098306100F07FFA054652
:1004900009E0601C07D024B100F078FA401BA042AC
:1004A00001D90320F8BDB0698006F2D40020F8BD60
:1004B000F0B54B680C685B1E4D69641E44EA03147A
:1004C0008B686D1E5B1E44EA0326CB680C69896944
:1004D0005B1E641E491E012A0DD0826802F0704224
:1004E00046EA033343EA044343EA055343EA01611E
:1004F0001143816010E08268084F3A401B0343EAD1
:1005000005531343C26802F0704246EA044444EAC9
:10051000016111438360C1600020F0BDFF0F0FFF38
:10052000F0B500EB0112183243684FF4403590F8F3
:100530003830012B2BD0012680F83860022380F858
:10054000393095FAA5F597685468B5FA85F52346CC
:10055000AF403C43204D0A2B1BD0092B19D04FF044
:100560007F47D36897FAA7F7B7FA87F7BB402343CB
:10057000A1B10168CC69AC431C43CC61036811682C
:10058000196151680A291CD009291AD01EE00220DD
:10059000F0BDD36803F07F432343E9E701684C6A69
:1005A000AC431C434C6203681168996151680A2985
:1005B00001D009290AD1D168026821F07F419162F6
:1005C00004E0D168026821F07F4111623830467042
:1005D000002101700020F0BD0F0003FF70B504463C
:1005E000002C04D094F83900002510B106E0012059
:1005F00070BD84F83850204600F01EF8022084F8C0
:10060000390020680168626821F4403111430160BB
:100610002068416BA26821F0070111434163206803
:10062000016CE2686FF30D0111430164E563012081
:1006300084F83900002070BD70472DE9F843044666
:100640000D4600260096206800684FF004074FF022
:100650000308C00738D000F099F9814630E04068BF
:100660000090009810F0210F17D00098800603D555
:10067000E06B40F00200E0630098C00703D0E06B3D
:1006800040F00100E06321682120886084F839701F
:1006900084F838600120BDE8F883681C10D02DB1C3
:1006A00000F074F9A0EB0900A84209D9E06B40F012
:1006B0002000E06384F8398084F838600320EAE79A
:1006C000206841688907CAD52068C169890602D4B3
:1006D000406A80063ED500F059F9814636E0406810
:1006E0000090009810F0290F1DD00098000703D546
:1006F000E06B40F00400E0630098800603D5E06BF7
:1007000040F00200E0630098C00703D0E06B40F0C7
:100710000100E06321682920886084F8397084F83A
:1007200038600120B7E7681C10D02DB100F02EF919
:10073000A0EB0900A84209D9E06B40F02000E0637B
:1007400084F8398084F838600320A4E72068416881
:10075000C906C4D5216812208860012084F83900B8
:1007600084F83860002096E738B50446049894F879
:100770003850012D10D0012584F83850022584F816
:10078000395000902046FFF777FD2068016841F05E
:1007900001010160002038BD022038BD2DE9F84F6D
:1007A0000022DFF8A491DFF8A0814FF0010E09F1DB
:1007B00008094FF00F0C09F1040A0EFA02F60B6853
:1007C0003340B34271D14C68022C01D0122C11D1AC
:1007D000D40800EB84073D6A5407E40E0CFA04FBCE
:1007E00025EA0B05D1F810B00BFA04FB4BEA050B18
:1007F000C7F820B0076854000325A540AF4391F81F
:1008000004B00BF0030B0BFA04FB4BEA070BC0F828
:1008100000B04F68012F05D0022F03D0112F01D057
:10082000122F11D18768AF43D1F80CB00BFA04FB3B
:100830004BEA070BC0F808B04768B7430E79C6F318
:10084000001696403E434660C668AE438D68A5409C
:100850003543C5604C68E4006FD53C4C256845F4D1
:1008600080452560246804F480440094384C22F0CC
:1008700003052544D5F808789407260F0CFA06F4EA
:10088000A743344CA04201D100242EE0324CA042B8
:1008900001D1012429E0314CA04201D1022424E0FD
:1008A0002F4CA04202D103241FE046E02D4CA04271
:1008B00001D1042419E02C4CA04201D1052414E0FC
:1008C0002A4CA04201D106240FE0294CA04201D1BC
:1008D00007240AE0274CA04201D1082405E0264C59
:1008E000A04201D1092400E00A24B4403C43C5F8E9
:1008F0000848D8F800409C434D68ED0300D51C43E0
:10090000C8F80040104D2D1D2C689C434E68B6035E
:1009100000D51C432C60D9F800409C434D68ED0283
:1009200000D51C43C9F80040DAF800409C434D68EC
:10093000AD0200D51C43CAF80040521C102AFFF437
:100940003CAFBDE8F88F0000003C01404438024055
:100950000030014000000240000402400008024054
:10096000000C024000100240001402400018024037
:10097000001C02400020024000240240002A01D056
:100980008161704709048161704700000148006877
:10099000704700000400012002480168491C016002
:1009A000704700000400012010B5044607484FF4CA
:1009B0007A720068B0FBF2F000F0ACFF0022214632
:1009C000501E00F0D3F8002010BD000000000120F0
:1009D0002DE9F04104460F46154694F8A000012881
:1009E0001ED0012684F8A060022084F8A10005EB47
:1009F0008500394600EBC500342204EB8000383016
:100A0000FFF7FEFB2A463946204602F097F8206899
:100A1000466284F8A160002084F8A000BDE8F0815F
:100A20000220FBE770B50446002C04D094F8A10026
:100A3000002510B106E0012070BD84F8A0502046CA
:100A400000F070F8022084F8A1002068816921F08C
:100A500070418161D4E901100143D4E903021043DC
:100A600001432068826911438161206882682C49B2
:100A70000A408260A08A020420688368A669334322
:100A8000134383602068C2680A40C260A08B0204DE
:100A90002068C368266A33431343C3602068026931
:100AA0000A400261A08C020420680369A66A3343ED
:100AB00013430361206842690A404261A08D01042A
:100AC00020684269236B1A430A43426194F8350057
:100AD000020294F8360001042068C36A03F07F43E1
:100AE000C3622068C36A114394F8346033430B43F4
:100AF000C3622068416B41F0040141632068416B8F
:100B000041F0020141632068816941F00101816186
:100B1000C4F8A450012084F8A100002070BD00009A
:100B200000F800F0704770B50446084694F8A0102D
:100B3000012918D0012584F8A050022184F8A110C1
:100B400002EB820101EBC20104EB81013831486103
:100B5000204601F0F3FF2068456284F8A150002090
:100B600084F8A00070BD022070BD0000F0B40D46F6
:100B70000D4B1B68C3F30223C3F10704042C00D9F7
:100B80000424191D072901D2002300E0DB1E0126E1
:100B900006FA04F1491E294099409E40761E1640EF
:100BA0003143F0BC02F07BB80CED00E0F8B5194819
:100BB000016841F080510160006800F080500090B1
:100BC000154C206840F480302060FFF7DFFE0546BA
:100BD0004FF47A7606E0FFF7D9FE401BB04201D908
:100BE0000320F8BD6068C003F5D5206840F40030EC
:100BF0002060FFF7CBFE054606E0FFF7C7FE401B6F
:100C0000B04201D90320F8BD60688003F5D500200B
:100C1000F8BD000040380240007000402DE9F84F58
:100C200004464FF0000B0025DFF880842078C007D1
:100C30000FD0D8F8000020F40000C8F80000D8F861
:100C40000000616B0843C8F80000606B08B94FF002
:100C5000010B2068DFF858A400030FD5DAF8000074
:100C6000E16B20F440100843CAF80000E06BB0F5D7
:100C7000801F01D14FF0010B00B901252068C0028F
:100C80000FD5DAF80000216C20F440000843CAF8C0
:100C90000000206CB0F5800F01D14FF0010B00B9BE
:100CA00001252068C10101D54FF0010B800658D500
:100CB000FE483830016841F080510160006800F062
:100CC00080500090FB4F386840F480703860FFF728
:100CD0005DFE064607E0FFF759FE801B642802D937
:100CE0000320BDE8F88F3868C005F4D5F04E1C3EEF
:100CF000306800F4407018B3218E01F440718142D5
:100D00001ED0306820F44070316841F48031316089
:100D1000316821F48031316030603068C0070FD015
:100D2000FFF734FE074641F2883906E0FFF72EFE52
:100D3000C01B484501D90320D3E730688007F5D5AB
:100D4000206BC0F3012103297ED0D8F8000020F4E5
:100D5000F810C8F800003068218EC1F30B01084379
:100D600030602078C0060BD5DAF8000020F08070E3
:100D7000CAF80000DAF80000A16B0843CAF80000C6
:100D800020884104CC4805D50168626E21F44031C9
:100D9000114301602188090405D50168A26E21F480
:100DA0004021114301602168C90305D50168E26E45
:100DB00021F44011114301602168890305D50168C0
:100DC000226F21F44001114301602178490605D5C5
:100DD0000168626C21F0030111430160217809066A
:100DE00005D50168A26C21F00C0111430160218836
:100DF000C90505D50168E26C21F03001114301609D
:100E00002188890505D50168226D21F0C0011143B3
:100E100001602188490505D50168626D21F44071A2
:100E2000114301602188090505D50168A26D21F4EF
:100E30004061114301602188C90407D50168E26D52
:100E400021F44051114300E020E001602188890431
:100E500005D50168226E21F44041114301602168EB
:100E6000490205D50168A26F21F08061114301603C
:100E70002168890215D50168E26F21F000611143F4
:100E80000160E16FB1F1006F0AD00AE0D8F80010FC
:100E90008A4A21F4F81110400143C8F800105AE7BB
:100EA000012521680A0700D50125490305D50168F8
:100EB000626F21F04071114301602168090206D57B
:100EC0000168D4F8802021F0805111430160BBF10A
:100ED000010F47F6C0794FF440364FF070674FF07E
:100EE000E04803D02068B0F1007F7CD16F4808381B
:100EF000016821F080610160FFF748FD834607E04B
:100F0000FFF744FDA0EB0B00642801D90320E8E6BD
:100F10006648083800680001F2D42078C1076848A4
:100F20002DD0616B59BB016896FAA6F201F44031ED
:100F3000B2FA82F2D140026897FAA7F302F0706227
:100F4000B3FA83F3DA4099FAA9FC6368BCFA8CFC23
:100F500003FA0CF396FAA6FCBCFA8CFC01FA0CF12D
:100F60000B4397FAA7F1B1FA81F18A401343A168C4
:100F700098FAA8F2B2FA82F291400B43036021681A
:100F80000A0303D5E26BB2F5801F05D0C9023BD539
:100F9000216CB1F5800F37D1016896FAA6F201F401
:100FA0004031B2FA82F2D140026898FAA8F302F016
:100FB000E042B3FA83F3DA4099FAA9FC6368BCFA19
:100FC0008CFC03FA0CF396FAA6FCBCFA8CFC01FA32
:100FD0000CF197FAA7FC0B43E168BCFA8CFC01FA10
:100FE0000CF10B4300E084E098FAA8F1B1FA81F12A
:100FF0008A4013430360DAF80010626A21F01F018F
:10100000521E1143CAF800102168C9012ED501688B
:1010100097FAA7F201F07061B2FA82F2D140026849
:1010200098FAA8F302F0E042B3FA83F3DA4099FAAF
:10103000A9FC636896FAA6FBBCFA8CFCBBFA8BFB96
:1010400003FA0CF3D4F810C00CFA0BFC43EA0C03BF
:1010500097FAA7FCBCFA8CFC01FA0CF10B4398FA46
:10106000A8F1B1FA81F18A40134303602168890134
:101070001BD599FAA9F2616896FAA6F3B2FA82F240
:10108000B3FA83F3914022699A4097FAA7F3114388
:10109000E268B3FA83F39A4098FAA8F31143A2687E
:1010A000B3FA83F39A40114301600BE00838024021
:1010B0008C3802400070004090380240FFFCFF0F67
:1010C0008438024079480838016841F08061016045
:1010D000FFF75CFC834607E0FFF758FCA0EB0B0032
:1010E000642801D90320FCE5704808380068000135
:1010F000F2D5012D7DD16D4D083D286820F080503E
:101100002860FFF743FC834607E0FFF73FFCA0EBB6
:101110000B00642801D90320E3E52868C043800060
:10112000F3D5216862480A0301D5E26B1AB1C902FE
:1011300038D5216CB1BB016896FAA6F201F44031B2
:10114000B2FA82F2D140026898FAA8F302F0E042C3
:10115000B3FA83F3DA4099FAA9FC6369BCFA8CFC10
:1011600003FA0CF396FAA6FCBCFA8CFC01FA0CF11B
:1011700097FAA7FC0B43A169BCFA8CFC01FA0CF1AD
:101180000B4398FAA8F1B1FA81F18A401343036046
:10119000DAF8001021F4F852A16A491E42EA01214E
:1011A000CAF800102168890234D5E16FB1F1006FEF
:1011B00030D1016897FAA7F201F07061B2FA82F2B9
:1011C000D140026898FAA8F302F0E042B3FA83F340
:1011D000DA4099FAA9FC636996FAA6FBBCFA8CFC82
:1011E000BBFA8BFB03FA0CF3D4F820C00CFA0BFC0F
:1011F00000E058E043EA0C0397FAA7FCBCFA8CFC29
:1012000001FA0CF10B4398FAA8F1B1FA81F18A4086
:10121000134303602178090732D5016897FAA7F2D2
:1012200001F07061B2FA82F2D140026896FAA6F338
:1012300002F44032B3FA83F3DA4099FAA9FC636905
:1012400096FAA6F6BCFA8CFCB6FA86F603FA0CF30C
:10125000B240134397FAA7F2B2FA82F2914098FA99
:10126000A8F20B43E169B2FA82F291400B430360AA
:10127000DAF80000E16A20F440300843CAF80000C0
:10128000286840F080502860FFF780FB044606E0A5
:10129000FFF77CFB001B642801D9032021E52868A7
:1012A000C0438000F4D400201BE500000838024051
:1012B000883802402DE9F04704460E46DFF8588191
:1012C000D8F8000000F00F00B0420FD2D8F80000AC
:1012D00020F00F003043C8F80000D8F8000000F0FC
:1012E0000F00B04202D00120BDE8F08720784B4FBC
:1012F000800705D53868A16820F0F0000843386001
:101300002078C0074AD0454960680839012806D0CE
:10131000022809D0096889070BD40120E4E709688D
:10132000890306D40120DFE70968890101D401207F
:10133000DAE7396821F0030101433960FFF726FB42
:101340000546606841F28839012809D0022814D086
:1013500020E0FFF71BFB401B484501D90320C3E7F2
:101360003868C0F381000128F3D117E0FFF70EFBC6
:10137000401B484501D90320B6E73868C0F3810017
:101380000228F3D10AE0FFF701FB401B484501D9D1
:101390000320A9E7386810F00C0FF4D1D8F800004A
:1013A00000F00F00B0420ED9D8F8000020F00F0076
:1013B0003043C8F80000D8F8000000F00F00B04239
:1013C00001D0012090E72078400705D53868E16812
:1013D00020F4E050084338602078000706D53868CC
:1013E000216920F4604040EAC100386000F01CF838
:1013F0003968F02292FAA2F201F0F001B2FA82F218
:10140000D140074A515CC840064908600F20FFF7E9
:10141000CBFA002068E70000003C02400838024098
:10142000183500080000012030B51D48006810F094
:101430000C011C481AD01C4C042916D0082915D1BF
:10144000174A121F116801F03F0113685D0247F649
:10145000C0730CD5B4FBF1F01168194093FAA3F3F3
:10146000B3FA83F3D94048430BE0204630BDB0FBCC
:10147000F1F01168194093FAA3F3B3FA83F3D9405A
:10148000484311684FF4403292FAA2F201F440311D
:10149000B2FA82F2D140491C4900B0FBF1F030BDF4
:1014A000083802400024F40040787D012DE9F84F0F
:1014B0000446DFF8B483A8F104072078A7F10405F7
:1014C000C0075DD0D8F80000C0F38100012808D023
:1014D000D8F80000C0F3810002280AD13868400221
:1014E00007D5286880034BD5606878BB0120BDE82C
:1014F000F88F6068B0F5803F11D0A8B1B0F5A02F8B
:101500001BD0286820F480302860286820F48020D0
:101510002860606830B3FFF739FA06461EE0286895
:1015200040F480302860F4E7286820F48030286098
:10153000286820F480202860EBE7286840F48020A9
:101540002860286840F480302860E2E718E0FFF760
:101550001DFA801B642801D90320C8E7286880038E
:10156000F5D50DE0FFF712FA064606E0FFF70EFA92
:10157000801B642801D90320B9E728688003F5D4CB
:101580002078800755D5D8F800004FF0F80910F002
:101590000C0F08D0D8F80000C0F38100022816D143
:1015A0003868400213D42868800704D5E068012811
:1015B00001D001209BE7286899FAA9F22169B2FAC3
:1015C00082F220F0F80091400843286031E0E068A2
:1015D000E8B1286840F001002860FFF7D7F9064617
:1015E00006E0FFF7D3F9801B022801D903207EE72C
:1015F00028688007F5D5286899FAA9F22169B2FA16
:1016000082F220F0F80091400843286011E0286839
:1016100020F001002860FFF7B9F9064606E0FFF761
:10162000B5F9801B022801D9032060E728688007EC
:10163000F5D42078000730D5DFF82C92606909F1E5
:101640006C09A8B1D9F8000040F00100C9F8000009
:10165000FFF79CF9064606E0FFF798F9801B022881
:1016600001D9032043E7D9F800008007F4D514E03E
:10167000D9F8000020F00100C9F80000FFF786F952
:10168000064606E0FFF782F9801B022801D90320F5
:101690002DE7D9F800008007F4D42078400778D5EA
:1016A00071483830016841F080510160006800F0F5
:1016B000805000906D4E306840F480703060FFF7CD
:1016C00065F9814607E0FFF761F9A0EB090064289E
:1016D00001D903200BE73068C005F4D5DFF8889105
:1016E000A06809F16809012816D0E0B1052827D0C3
:1016F000D9F8000020F00100C9F80000D9F8000076
:1017000020F00400C9F80000A06841F2883A80B3D4
:10171000FFF73CF9064627E0D9F8000040F0010049
:10172000C9F80000F0E7D9F8000020F00100C9F87E
:101730000000D9F8000020F00400C9F80000E3E739
:10174000D9F8000040F00400C9F80000D9F8000002
:1017500040F00100C9F80000D6E7FFF717F9801B39
:10176000504501D90320C2E6D9F800008007F4D51E
:101770000FE0FFE7FFF70AF9064606E0FFF706F974
:10178000801B504501D90320B1E6D9F8000080073D
:10179000F4D4A069E8B3D8F80010C1F3810102299C
:1017A0005FD0022807D0286820F080702860FFF7FB
:1017B000EDF8044650E0286820F080702860FFF7BC
:1017C000E5F8064606E0FFF7E1F8801B022801D99C
:1017D00003208CE628688001F5D4D4E9070147F698
:1017E000C0724FF0FF3392FAA2F20843616AB2FA74
:1017F00082F29140A26A03EB52024FF4403393FA13
:10180000A3F3B3FA83F39A40114308434FF0706295
:1018100000E024E092FAA2F2E16AB2FA82F2914088
:1018200008433860286840F080702860FFF7AEF801
:10183000044606E0FFF7AAF8001B022801D903209E
:1018400055E628688001F5D509E0FFF79FF8001BF1
:10185000022801D903204AE628688001F5D4002037
:1018600045E6012043E600000838024000700040D1
:1018700070B504460D46002C03D094F82C0010B12E
:1018800007E0012070BD002084F82D00204600F004
:1018900011F8022084F82C002068211DFEF7B6FD07
:1018A000D4E900022946FEF703FE012084F82C004B
:1018B000002070BD704710B5044694F82C00022833
:1018C0000AD0022084F82C002068FEF7C8FD012011
:1018D00084F82C00002010BD022010BD70B5044615
:1018E0000D4694F82C0002280ED0022084F82C001B
:1018F00020682946FEF7B9FD2868022806D0012095
:1019000084F82C00002070BD022070BD052084F8F2
:101910002C00F7E710B5401EB0F1807F01D3012005
:1019200010BD4FF0E02460610F21601701F0B7F99E
:101930000020A06107202061002010BD044C054D4F
:10194000216881F4806121602846FEF7ECFCF7E70E
:10195000141C0240FFFF0F001CB5044600F06CFD94
:10196000034600F059FD02460020CDE90004064878
:10197000064C006800EB800101EBC00104EB810123
:10198000C96D01F097F81CBD0C000120E00001209A
:101990002DE9F0410746134E134C306800EB40012F
:1019A00054F8215004EB8100406844F8210000F015
:1019B00033FD82B2306800EB400004EB80008068A9
:1019C000C38803FB07F081B2002000F0DBFA306827
:1019D00000EB400044F820502846BDE8F04100F0FC
:1019E00001BE00000C000120C801012030B40A4BE8
:1019F0001B6803EB4304094B03EB84039B68DD88FE
:101A00001C689B88DB1D203ADB08534305FB03421F
:101A100030BCFEF791BC00000C000120C801012081
:101A200010B509480068816941F001018161074CE6
:101A3000012210212046FEF7A1FF01222046BDE829
:101A400010408021FEF79ABFE0000120000C024008
:101A50002DE9F047824688461546002600222C468E
:101A600000E0521C14F8010B0028FAD100F0D4FC5D
:101A7000294F0146DFF8A490386800EB400009EBDD
:101A8000800080688088B1FBF0F1012B0BD0022B25
:101A900011D0032B0DD0544647F6FF71601E8842CB
:101AA0001FD301241DE0891A41430AEB510084B27F
:101AB000F2E75446F0E7891A4143A1EB0A0084B2E9
:101AC000EAE741462046FFF791FF386800EB400007
:101AD00009EB800080688088204484B26D1C761CED
:101AE000B6B200F099FC0146386800EB400009EB03
:101AF00080008068808806FB101189B2814201D382
:101B0000012000E000202A780AB1012100E0002134
:101B10000842D6D1BDE8F0870C000120C8010120A1
:101B200003460A4610B500F069FCC088BDE81040C5
:101B30005843032381B20020FFF78ABF2DE9FF4FEE
:101B400081468A460320A0EB42060024154676E033
:101B50003D4FAAEB050BDFF8F4801FFA8BF13868D4
:101B600000EB400058F8202009EB0400039080B2FD
:101B700000F014F938681FFA8BF100EB400058F8B8
:101B80002020A9EB0400029080B200F007F9386829
:101B9000AAEB040B1FFA8BF100EB400058F8202051
:101BA00009EB0500019080B200F0F8F838681FFAE0
:101BB0008BF100EB400058F82020A9EB05000090C5
:101BC00080B200F0EBF838680AEB050B1FFA8BF1D6
:101BD00000EB400058F82020039880B200F0DEF8B7
:101BE00038681FFA8BF100EB400058F8202002986B
:101BF00080B200F0D3F838680AEB040B1FFA8BF1BF
:101C000000EB400058F82020019880B200F0C6F8A0
:101C100038681FFA8BF100EB400058F8202000983C
:101C200080B200F0BBF8002E03DA06EB8406B61D86
:101C300004E0601B06EB80060A366D1E641CAC4295
:101C400086D9BDE8FF8F00000C000120C8010120EB
:101C50007CB505460E461B4C236803EB830000EB66
:101C6000C300194B03EB8000806C02281BD000F0EE
:101C7000D3FB00FB0651206800EB800505EBC0009C
:101C800003EB8000C06D00EB810120680E4CE8344E
:101C900000EB400354F823300024CDE90043012336
:101CA00000F008FF7CBD00F0B7FB00FB0651206888
:101CB00000EB800505EBC00003EB8000C06D00EB7E
:101CC0004101E2E70C000120E00001202DE9FC4F7A
:101CD00084460C460027A2EB0C00002801DCACEB8C
:101CE000020000B2191B002900DCE11A09B20FFA48
:101CF0008CF526B24FF0FF3B624503D34FF001094C
:101D0000CA4601E0D946DA46A34204D34FF0010B9C
:101D10000122019201E0CDF804B088420ADB4FF0C5
:101D200000090022019200EBD072521014B200910F
:101D300080462AE04FF0000AD34601EBD1725210E0
:101D400014B20090884620E012481349006800EB66
:101D5000400051F82020B1B2A8B200F01FF800985E
:101D6000204404B2444508DBA4EB080004B205EBB0
:101D7000090005B206EB0B0006B205EB0A0005B23E
:101D80000198304406B27F1C3FB24745DCDDBDE818
:101D9000FC8F00000C000120C801012070B5054631
:101DA0000E46154C236803EB830000EBC300134B76
:101DB00003EB8000806C02280ED000F02DFB06FBA8
:101DC0000051206800EB800404EBC00003EB8000AE
:101DD000C06D40F8212070BD00F01EFB06FB0051D5
:101DE000206800EB800404EBC00003EB8000C06DB2
:101DF00020F8112070BD00000C000120E00001203F
:101E00002DE9F04106460D4617461C463A4629463E
:101E10003046FFF71DFF28193A4681B23046FFF7DA
:101E200017FF22462946304600F008F8F0192246EE
:101E30002946BDE8F04180B2AFF300802DE9FC41B6
:101E400006460F461D4D2C6804EB840000EBC400D1
:101E50001B4C04EB8000806C022820D000F0DCFAE0
:101E600000FB0761286800EB800303EBC00004EB74
:101E70008000C06D00EB810400F0CEFA411E28689E
:101E80000F4DE83500EB400355F82330CDE9001342
:101E900013462146012200F00DFEBDE8FC8100F052
:101EA000BBFA00FB0761286800EB800303EBC0006E
:101EB00004EB8000C06D00EB4104DDE70C00012065
:101EC000E00001202DE9F74F80460F4603210298DC
:101ED000A1EB40060024029D2848006800EB400169
:101EE000274850F8210000F07DFB4FF6FF7931E0E4
:101EF0008DB1381981B209EA4502A8EB050A93466B
:101F00001FFA8AF0FFF7A4FE381B5A4681B21FFA67
:101F10008AF0FFF79DFE8CB1781B81B209EA44027A
:101F2000A8EB040A93461FFA8AF0FFF791FE78198E
:101F30005A4681B21FFA8AF0FFF78AFE002E03DAB2
:101F400006EB8406B61D04E0601B06EB80060A362D
:101F50006D1E641CAC42CBD90848006800EB400100
:101F6000074850F8210000F03DFB029A03B03946C3
:101F70004046BDE8F04FFFF7E1BD00000C00012036
:101F8000C80101202DE9FC47804689461646214DAF
:101F9000214F2C6804EB440057F8200000F022FB8E
:101FA0002C68A7F1E80204EB840000EBC40002EB0C
:101FB0008000806C02281DD000F02EFA00FB098101
:101FC000286800EB800404EBC00002EB8000C06DC9
:101FD00000EB810400F020FA811B286800EB40022E
:101FE00057F82220CDE900123246214600F062FD6A
:101FF000BDE8FC8700F010FA00FB0981286800EBBF
:10200000800404EBC00002EB8000C06D00EB4104D3
:10201000E0E700000C000120C80101202DE9F04F8D
:1020200087B0EC48016841F080010160016801F06F
:1020300080010191016841F080010160016801F0B7
:1020400080010191016841F080010160016801F0A7
:1020500080010191016841F002010160016801F015
:1020600002010191016841F001010160016801F084
:1020700001010191016841F001010160016801F075
:1020800001010191016841F002010160016801F064
:1020900002010191016841F040010160016801F015
:1020A00040010191016841F010010160016801F0F7
:1020B00010010191016841F010010160016801F017
:1020C00010010191016841F080010160016801F097
:1020D00080010191016841F040010160016801F057
:1020E00040010191016841F040010160016801F087
:1020F00040010191016841F480710160016801F4BF
:1021000080710191016841F004010160016801F0F2
:1021100004010191016841F480710160016801F4DA
:1021200080710191016841F010010160016801F0C6
:1021300010010191016841F040010160016801F066
:1021400040010191016841F008010160016801F05E
:1021500008010191016841F008010160016801F086
:1021600008010191016841F480710160016801F486
:1021700080710191016841F001010160016801F085
:1021800001010191016841F002010160016801F063
:1021900002010191016841F002010160016801F052
:1021A00002010191016841F040010160016801F004
:1021B00040010191016841F480710160016801F4FE
:1021C00080710191016841F480710160016801F43E
:1021D00080710191016841F020010160016801F006
:1021E00020010191016841F008010160016801F0DE
:1021F00008010191016841F008010160006800F0E8
:10220000080001904FF00409CDF8089002250595CB
:102210000395012004900E24069402A96E48FEF74F
:10222000BDFA08200290069402A96B48FEF7B6FAA0
:10223000E8010290069402A96748FEF7AFFA012070
:1022400002904FF00908CDF81880644802A9FEF703
:10225000A5FAA8020290069402A96148FEF79EFA28
:102260004FF4805ACDF808A0069402A95C48FEF706
:1022700095FA0295CDF8188002A95848FEF78EFA13
:1022800040260296069402A95648FEF787FA2020B7
:102290000290069402A95448FEF780FA029606942A
:1022A00002A95148FEF77AFA28030290069402A97F
:1022B0004948FEF773FA6F020297CDF8188002A919
:1022C0004848FEF76BFAA8030290069402A9424818
:1022D000FEF764FA01200290069402A9DFF80CB11F
:1022E0005846FEF75BFA4FF08008CDF80880069458
:1022F00002A93F48FEF752FACDF80890069402A9C9
:102300005846FEF74BFA4FF01009CDF808900694A6
:1023100002A93548FEF742FACDF808A0069402A9B2
:102320003048FEF73BFA0296069402A9DFF8C4A0F3
:102330005046FEF733FAA8020290069402A92948F3
:10234000FEF72CFACDF80890069402A95846FEF73D
:1023500025FA08200290069402A92148FEF71EFAE9
:10236000E8010290069402A91C48FEF717FA2E0213
:102370000296069402A91948FEF710FACDF80880D3
:10238000069402A91748FEF709FA0297069402A9D3
:102390005846FEF703FA0296069402A95846FEF73D
:1023A000FDF90297069402A91348FEF7F7F9CDF854
:1023B0000890059501200390049002A95046FEF76D
:1023C000EDF9CDF8088002A95046FEF7E7F907B00D
:1023D000BDE8F08F30380240001C0240000402408B
:1023E000000002400018024000100240002002409D
:1023F00000080240000C0240001402400448054955
:10240000006800EB400001EB80008068704700002E
:102410000C000120C80101200548006800EB800184
:1024200001EBC000034901EB8000006E7047000023
:102430000C000120E00001200548006800EB80014D
:1024400001EBC000034901EB8000406E70470000C3
:102450000C000120E000012030B5A3B0284801683D
:1024600041F080610160006800F0806001902448C4
:102470001438016841F400010160006800F40000B4
:102480000190214C1F48206000256561A5612E2028
:10249000E0611720206240F24E30606240F2F71097
:1024A000A06240F26230E06240F20D20206308201A
:1024B0000290C0200790052009904FF480300D90C5
:1024C00002A8FEF7ABFB4FF4487020664FF4F070A3
:1024D000606684F8365084F8355084F8345065606E
:1024E000A560E56025612046FEF79CFAFFF796FDA2
:1024F00000F020FE054800F067F823B030BD000072
:102500004438024000680140E00001201000012032
:1025100030B58DB004460D4600230093FFF77CFFD5
:1025200001900293FFF788FF039002200490099521
:10253000FF20059006938DF830308DF831308DF8FE
:1025400032304FF4C060079007200890FFF764FF17
:102550000A90FFF771FF0B9022460A486946FEF782
:1025600037FA084A04EB44014FF0FF33E83202EB3C
:1025700081004360044B83604FF07F4042F82100AC
:102580000DB030BDE00001201000012001490860BD
:10259000704700000C0001200449054A096801EB5E
:1025A000410102EB81014860704700000C000120EE
:1025B000C80101200B4600B500F014F85DF804EBEB
:1025C0001846FFF7E9BF00000449054A096801EB16
:1025D000410102EB81018860704700000C0001207E
:1025E000C80101200349044A096801EB410142F88E
:1025F000210070470C000120C8010120024601485B
:10260000FEF791BAE00001209AB0FF210120FFF708
:10261000F5FF4FF07F442046FFF79EF92016214634
:10262000FFF7C8FFA648FFF7CFFF0120A5A1FFF7DE
:1026300077FA0220A9A1FFF773FA0320AEA1FFF7F2
:102640006FFA0420B5A1FFF76BFA0520BBA1FFF7D5
:1026500067FA0620C6A1FFF763FADFF8389326125F
:102660004FF496756FF07F4A4FF48C7BCA4801781F
:10267000491CCAB20270C9A101A800F049FE072096
:10268000FFF786F921464FF0FF30FFF793FF072051
:1026900001A9FFF745FA4846FFF7A4FF0820FFF716
:1026A00077F90820C6A1FFF73BFA21463046FFF72D
:1026B00081FFFA2340F2EE2732203A461946FFF70F
:1026C00005FB32202B463A462946FFF7FFFA4FF02A
:1026D000FF2721463846FFF76DFF4FF4C87828469C
:1026E000FA2143464246FFF7F1FA4FF4167043468B
:1026F000FA210246FFF7EAFA5046FDF714FE21469A
:102700002046FFF757FFC8215B4600204FF4487270
:10271000FFF738FC4846FFF765FF0820FFF738F958
:102720000820AAA1FFF7FCF921463046FFF742FF37
:10273000C82264231046FA21FFF762FB214638467F
:10274000FFF738FF4FF4AF7832234046C822FA2112
:10275000FFF756FB21464846FFF72CFFC8234146AA
:1027600032221846FFF74CFB5046FDF7DCFD2146B0
:102770002046FFF71FFFC8215B4600204FF4487238
:10278000FFF700FC4846FFF72DFF0820FFF700F990
:10279000082091A1FFF7C4F921463046FFF70AFF50
:1027A000C82264231046FA21FFF7ECFB2146384685
:1027B000FFF700FF32234046C822FA21FFF7E2FB71
:1027C00021464846FFF7F6FEC82341463222184606
:1027D000FFF7D8FB5046FDF7A6FD21462046FFF740
:1027E000E9FEC8215B4600204FF44872FFF7CAFBA0
:1027F0004846FFF7F7FE0820FFF7CAF808207AA13D
:10280000FFF78EF931463046FFF7D4FE32224146BB
:10281000C820FFF793F939463846FFF7CBFE4B2225
:1028200041464046FFF78AF95046FDF77CFD2146B8
:102830002046FFF7BFFEC8215B4600204FF44872D8
:10284000FFF7A0FB4846FFF7CDFE0820FFF7A0F8F2
:10285000082069A1FFF764F921463046FFF7AAFE78
:10286000322241462846FFF72DFB21463846FFF726
:10287000A1FE4B2241464FF4E170FFF723FB504687
:10288000FDF751FD21462046FFF794FEC8215B4627
:1028900000204FF44872FFF775FB0820FFF778F827
:1028A0005046FDF740FD21462046FFF783FEC82134
:1028B0005B4600204FF44872FFF764FBD6E6000049
:1028C00010000120424820352E3020696E636820B8
:1028D0004C434420706172613A000000496D6167A9
:1028E00065207265736F6C7574696F6E3A3830303D
:1028F0007834383020707800546F756368207061C8
:10290000643A3520706F696E7420746F7563682047
:10291000737570706F727465640000005573652084
:1029200053544D33322D4C544443206469726563D3
:10293000746564206472697665722C006E6F206520
:10294000787465726E206C63642064726976657257
:10295000206E65656465642C5247423838382C32E5
:10296000346269747320646174612062757300005D
:10297000546F7563682070616420757365204949E0
:102980004320746F20636F6D6D756E69636174654C
:1029900000000000FF0000FF080001204469737080
:1029A0006C61792076616C75652064656D6F3A2085
:1029B00074657374436F756E74203D202564200028
:1029C00044726177206C696E653A000044726177E9
:1029D00020526563743A0000447261772046756C3A
:1029E0006C20526563743A004472617720636972A7
:1029F000636C653A00000000447261772066756C74
:102A00006C20636972636C653A000000F0B587B0B2
:102A10002548016841F080010160016801F08001F2
:102A20000191016841F080010160016801F08001BD
:102A30000191016841F080010160016801F08001AD
:102A40000191016841F008010160006800F0080090
:102A500001904FF4806502950120039004900320BB
:102A6000059002A9114F3846FDF798FE6C000294BC
:102A700002A93846FDF792FE6600029602A9384682
:102A8000FDF78CFE029402A9094F3846FDF786FE39
:102A9000064918310D600C600E6000222146384650
:102AA000FDF76CFF07B0F0BD30380240001C02405B
:102AB000000C02402DE9F84305460E4617461C4619
:102AC000DDE908081A4A4FF4403151601949096894
:102AD00001EB810303EBC101A2F1A80303EB810128
:102AE000896C02291ED000219160D06012481060CC
:102AF0000F48FDF773FD002817D10D482946FDF753
:102B00000FFD002811D10A483B4632464146009449
:102B1000FDF72AFE002808D1BDE8F84304480A2141
:102B2000FDF78BBD02219160DFE7BDE8F88300006F
:102B3000880101200C00012000B00240F0B50368BC
:102B40008C88DD68C5F30B452C442504882404EBF0
:102B5000C2141E5906F470461E5103680F68DE68E1
:102B6000C6F30B46761C3E442E431E5103688C89E7
:102B7000DD68C5F30A052C4425048C2404EBC2143B
:102B80001E5906F470461E5103688F68DE68C6F34E
:102B90000A06761C3E442E431E510468942303EB20
:102BA000C213E55825F00705E55005680C69EC509F
:102BB00091F831304FEA032C91F832301E040B7E2D
:102BC0001F0604689C2303EBC213E5580025E5505B
:102BD00091F830403E4344EA0C0434430668F45014
:102BE0000468982303EBC213E65826F0FF06E6506C
:102BF00006684C69F4500468A02303EBC213E6583E
:102C000040F20777BE43E650D1E9074634430668F1
:102C1000F4500468AC2303EBC213E658E550056892
:102C20004C6AEC500B69002B31D0012B31D0042BB6
:102C300031D0022B2FD0032B2DD0072B2BD00123EB
:102C40000568B02404EBC2142E5906F0E0262E517C
:102C5000D1E90065AD1B0E8D5D43ED1C5E4345EA79
:102C6000064305682B510468B42303EBC213E558EF
:102C70006FF30A05E5500468C96AE15000688421D1
:102C800001EBC211425842F001024250F0BD042350
:102C9000D6E70323D4E70223D2E7FEE7704709070C
:102CA000090E002806DA00F00F0000F1E02080F89D
:102CB000141D704700F1E02080F800147047704741
:102CC0002DE9F04F87B0FE48016841F02001016016
:102CD000016801F020010191016841F020010160CB
:102CE000016801F020010191016841F020010160BB
:102CF000016801F020010191016841F020010160AB
:102D0000016801F020010191016841F0200101609A
:102D1000016801F020010191016841F0200101608A
:102D2000016801F020010191016841F0200101607A
:102D3000016801F020010191016841F0200101606A
:102D4000016801F020010191016841F0200101605A
:102D5000016801F020010191016841F0200101604A
:102D6000016801F020010191016841F0400101601A
:102D7000016801F040010191016841F040010160EA
:102D8000016801F040010191016841F00801016012
:102D9000016801F008010191016841F0080101603A
:102DA000016801F008010191016841F0080101602A
:102DB000016801F008010191016841F0080101601A
:102DC000016801F008010191016841F01001016002
:102DD000016801F010010191016841F010010160EA
:102DE000016801F010010191016841F010010160DA
:102DF000016801F010010191016841F010010160CA
:102E0000016801F010010191016841F010010160B9
:102E1000016801F010010191016841F010010160A9
:102E2000016801F010010191016841F01001016099
:102E3000016801F010010191016841F01001016089
:102E4000016801F010010191016841F01001016079
:102E5000016801F010010191016841F00801016071
:102E6000016801F008010191016841F00801016069
:102E7000016801F008010191016841F00801016059
:102E8000016801F008010191016841F080010160D1
:102E9000016801F080010191016841F04001016089
:102EA000016801F040010191016841F040010160B9
:102EB000016801F040010191016841F004010160E5
:102EC000016801F004010191016841F020010160F5
:102ED000016801F020010191016841F040010160A9
:102EE000016801F040010191016841F04001016079
:102EF000016801F040010191016841F08001016029
:102F0000016801F080010191016841F01001016048
:102F1000016801F010010191016841F010010160A8
:102F2000006800F01000019002200390012004903E
:102F3000022005900C20069001200290614802A911
:102F4000FDF72CFC022002905E4802A9FDF726FC4A
:102F5000042002905B4802A9FDF720FC08200290A3
:102F6000584802A9FDF71AFC10270297554802A9F4
:102F7000FDF714FC4FF02008CDF80880514802A955
:102F8000FDF70CFC380202904E4802A9FDF706FC42
:102F90004FF40059CDF808904A4802A9FDF7FEFB0E
:102FA000BD020295474802A9FDF7F8FB6C000294A8
:102FB000444802A9FDF7F2FB01200290424802A911
:102FC000FDF7ECFB022002903F4802A9FDF7E6FB6B
:102FD000029502A93D48FDF7E1FB029402A93B4896
:102FE000FDF7DCFB01200290384802A9FDF7D6FB73
:102FF00002200290354802A9FDF7D0FB8020029004
:10300000334802A9FDF7CAFBE6110296304802A92F
:10301000FDF7C4FB4FF4007ACDF808A02C4802A9B4
:10302000FDF7BCFB60110290294802A9FDF7B6FB31
:103030004FF4006BCDF808B0254802A9FDF7AEFBB0
:10304000E0100290224802A9FDF7A8FBCDF80890F5
:1030500002A91F48FDF7A2FB029502A91C48FDF733
:103060009DFB029402A91A48FDF798FB029602A95B
:103070001648FDF793FBCDF808A002A91348FDF709
:103080008DFB60110290114802A9FDF787FB4020DB
:103090000290104D02A92846FDF780FB029702A975
:1030A0000948FDF77BFBCDF8088002A90648FDF72B
:1030B00075FB01200290084802A9FDF76FFB0DE0A7
:1030C000303802400014024000180240000C024058
:1030D00000100240001C024000080240CDF808B079
:1030E00002A91148FDF75AFB029402A90F48FDF707
:1030F00055FB029602A90D48FDF750FB8020029077
:1031000002A92846FDF74AFB02200290084802A9BE
:10311000FDF744FB01200290054802A9FDF73EFBA4
:1031200007B0BDE8F08F0000001402400018024014
:103130000010024000B589B0FFF7C2FD17480168D2
:1031400041F001010160006800F0010001901548A4
:103150001349016001214160002181600422C260A5
:1031600010230361402343614FF4C0738361C16145
:10317000530203624162D102816202200290072160
:1031800003910492059106900790089002A90548C2
:10319000FEF76EFB00F008F809B000BD38380240B9
:1031A000400100A0280001202DE9F047204C012516
:1031B000256008266660A5600027E7604FF6FF7966
:1031C00021464A4601F11000FEF788FB012000F07D
:1031D00031F8022020606660A560E760214601F1B9
:1031E00010004A46FEF77AFB0320206066604FF02D
:1031F0000408C4F80880E760214601F110004A463F
:10320000FEF76CFB40F23120C4F800806660A560D8
:10321000E060214601F110004A46FEF75FFB04F131
:10322000100040F26A51BDE8F047FEF744BB0000D1
:103230001800012001B581B005490198484300906C
:1032400002E00098401E009000980028F9D10CBDC3
:10325000A08601007047FDF79FBB10B592B001201A
:103260000190000402900224079480010890192024
:10327000099000010A900B9408200C9001A8FEF719
:1032800015F900B1FEE7FDF791FC00B1FEE70F2054
:103290000D900E9400200F904FF4A05010904FF41A
:1032A0008050119006210DA8FEF704F8002800D0E8
:1032B000FEE712B010BD00001048016841F4700133
:1032C00001600F48016841F0010101600C4A0021D2
:1032D0000832116002680B4B1A400260031D0A4A53
:1032E0001A60026822F48022026005480C300160F6
:1032F00058060249803908607047000088ED00E0F8
:1033000000380240FFFFF6FE10300024FEE7000008
:103310000FB4084B10B504A902AA039800F01CF8DA
:10332000044602A9002000F0C1F8204610BC5DF858
:1033300014FB0000AD34000802E008C8121F08C1E9
:10334000002AFAD170477047002001E001C1121F26
:10335000002AFBD1704700002DE9FF4F89B09B4642
:103360000446002506E025280BD05A460B999047C5
:10337000641C6D1C20780028F5D10DB02846BDE8EE
:10338000F08F0027B8460122474900E0074314F8B0
:10339000013F203B02FA03F00842F7D120782E28A3
:1033A00019D114F8010F47F004072A280ED06FF046
:1033B0002F022078A0F1300109290CD808EB8801F0
:1033C00002EB410100EB0108641CF2E70A98641C5F
:1033D00050F8048B0A9020780028CED0642808D0BA
:1033E000692806D075281ED05A460B9990476D1C47
:1033F00058E00A994FF00A0901C90A91002802DA37
:1034000040422D2102E0390504D52B218DF82010F2
:10341000012103E0F90704D02021F7E78A4608AE2E
:103420000DE00021FAE70A994FF00A0901C90A9153
:10343000F7E74946FCF7F6FE303106F8011D002893
:10344000F7D1ADEB060000F12009780701D44FF069
:103450000108C84502DDA8EB090000E00020804615
:10346000002706E008A85A46C05D0B9990476D1CDE
:103470007F1C5745F6DB04E030205A460B999047F5
:103480006D1CB8F10001A8F10108F5DC05E016F8A3
:10349000010B5A460B9990476D1CB9F10001A9F137
:1034A0000109F4DC641C65E7092801000A68531C63
:1034B0000B6010707047FFF7D0FEFFF7A7FAFEF71A
:1034C000CBFF4FF0504500202946FFF721F8FEF7CB
:1034D000A3FF0446FEF7B0FF4443012005EB84013F
:1034E000FFF716F8FEF79CFA0020FFF74FF84FF0B1
:1034F0007F442046FEF730FA0120FFF747F82046C8
:10350000FEF72AFA00210846FFF778F86421012027
:10351000FFF774F8FFF778F80000000000000000E3
:103520000102030406070809000000000000000073
:10353000000000000000000000000000000000008B
:10354000000000000000000000000000000000007B
:10355000000000000000000000000000000000006B
:10356000000000000000000000000000000000005B
:1035700000000000000003800003800003800003BF
:10358000800003800003800003800003800003802C
:1035900000010000010000000000000000038000A6
:1035A0000380000000000000000000000000000098
:1035B000000000000000000000000000000000000B
:1035C000000E70000E70000E700004200004200039
:1035D00004200004200000000000000000000000A3
:1035E00000000000000000000000000000000000DB
:1035F00000000000000000000000000000000000CB
:103600000000000000000660000660000660000682
:1036100060000660003FF8003FF8000660000CC044
:10362000003FF8003FF8000CC0000CC0000CC000C8
:103630000CC0000CC00000000000000000000000F2
:103640000000000000000000000000018000018078
:103650000007B0000FF0001870001870001C000088
:103660000F800007E00000F0001830001C30001C44
:1036700070001FE0001BC00001800001800001807D
:1036800000018000000000000000000000000000B9
:103690000000000000000780000FC0001CE00018C0
:1036A00060001860001CE0000FF80007E0001FF049
:1036B0000007380006180006180007380003F0005D
:1036C00001E0000000000000000000000000000019
:1036D00000000000000000000000000000000000EA
:1036E0000000000003F00007F0000C60000C000078
:1036F0000C00000600000700000F9C001DFC0018D5
:10370000F0001870000FFC0007DC00000000000053
:1037100000000000000000000000000000000000A9
:103720000000000000000000000380000380000390
:103730008000010000010000010000010000000005
:103740000000000000000000000000000000000079
:103750000000000000000000000000000000000069
:103760000000000000000000000000000000001841
:103770000000380000700000F00000E00000E000F1
:1037800001C00001C00001C00001C00001C0000173
:10379000C00000E00000E000007000007000003891
:1037A0000000180000000000000000000000000001
:1037B0000000000000001800001C00000E00000EB9
:1037C0000000070000070000038000038000038062
:1037D0000003800003800003800007000007000052
:1037E0000F00000E00001C00001800000000000088
:1037F0000000000000000000000000000000018048
:10380000000180000180001DB8001FF80007E000E3
:1038100003C00003C0000660000660000000000056
:103820000000000000000000000000000000000098
:103830000000000000000000000000000000000088
:1038400000000000000000000000000001800001F6
:1038500080000180000180000180003FFC003FFCEF
:1038600000018000018000018000018000018000D3
:103870000000000000000000000000000000000048
:103880000000000000000000000000000000000038
:103890000000000000000000000000000000000028
:1038A0000000000000000000000000000000000018
:1038B000000000E00000C00001C0000180000180A5
:1038C00000030000030000000000000000000000F2
:1038D00000000000000000000000000000000000E8
:1038E00000000000000000000000001FF8001FF8AA
:1038F00000000000000000000000000000000000C8
:1039000000000000000000000000000000000000B7
:1039100000000000000000000000000000000000A7
:103920000000000000000000000000000000000097
:103930000000000000000000000000000000000087
:10394000000003C00003C00003C00000000000002E
:103950000000000000000000000000000000000067
:10396000001800001800003800003000007000004F
:10397000600000600000C00000C000018000018005
:10398000000300000300000600000600000E000017
:103990000C00001C000018000018000000000000CF
:1039A000000000000000000000000000000003C054
:1039B0000007E0000C30000C300018180018180048
:1039C0001818001818001818001818001818000CFB
:1039D00030000C300007E00003C0000000000000D1
:1039E00000000000000000000000000000000000D7
:1039F0000000000000000080000780001F80001D04
:103A000080000180000180000180000180000180B1
:103A1000000180000180000180000180001FF8008B
:103A20001FF800000000000000000000000000007F
:103A3000000000000000000000000000000007C0BF
:103A4000001FF00038300030180030180000180057
:103A500000300000600001C0000380000600000C80
:103A600000001800003FF8003FF8000000000000D0
:103A70000000000000000000000000000000000046
:103A800000000000000003C0000FE0000C70000008
:103A9000300000300000600003C00003E000007050
:103AA000000018000018000018001838001FF0006F
:103AB0000FC0000000000000000000000000000037
:103AC000000000000000000000000000000000E016
:103AD0000001E00001E000036000066000066000F5
:103AE0000C60000C60001860003060003FF8003F80
:103AF000F80000600003F80003F800000000000078
:103B000000000000000000000000000000000000B5
:103B10000000000000001FF0001FF0001800001857
:103B200000001800001BC0001FF0001C300000182F
:103B3000000018000018000018003030003FF000AE
:103B40000FC00000000000000000000000000000A6
:103B5000000000000000000000000000000000F86D
:103B60000003F8000700000E00000C000018000021
:103B70001BC0001FF0001C30001818001818001897
:103B800018000C38000FF00003E0000000000000F7
:103B90000000000000000000000000000000000025
:103BA0000000000000001FF8001FF800181800189F
:103BB000380000300000300000700000600000603D
:103BC0000000E00000C00000C00001C00001800053
:103BD0000180000000000000000000000000000064
:103BE000000000000000000000000000000007E0EE
:103BF000000FF0001C38001818001818000C3000D6
:103C000007E00007E0000C30001818001818001832
:103C100018001C38000FF00007E000000000000052
:103C20000000000000000000000000000000000094
:103C300000000000000007C0000FF0001C3000185A
:103C400018001818001818000C38000FF80003D8D6
:103C50000000180000300000700000E0001FC000ED
:103C60001F00000000000000000000000000000035
:103C70000000000000000000000000000000000044
:103C80000000000000000000000003C00003C000AE
:103C900003C0000000000000000000000000000061
:103CA000000003C00003C00003C0000000000000CB
:103CB0000000000000000000000000000000000004
:103CC00000000000000000000000000000000000F4
:103CD000000000F00000F00000F000000000000014
:103CE0000000000000000000E00001C000018000B2
:103CF000018000030000020000000000000000003E
:103D000000000000000000000000000000000000B3
:103D100000000000001C00003C0000F00003C00098
:103D20000F00003C0000F000003C00000F0000030A
:103D3000C00000F000003C00001C0000000000007B
:103D40000000000000000000000000000000000073
:103D50000000000000000000000000000000000063
:103D600000000000007FFC007FFC0000000000005D
:103D7000007FFC007FFC000000000000000000004D
:103D80000000000000000000000000000000000033
:103D90000000000000000000000000000000000023
:103DA000000000007000007800001E000007800086
:103DB00001E000007800001E0000780001E000072C
:103DC00080001E000078000070000000000000006D
:103DD00000000000000000000000000000000000E3
:103DE00000000000000000000007C0000FE0001805
:103DF000700018300018300000700000E00003C0B0
:103E00000003800003000000000000000007000025
:103E1000070000000000000000000000000000009B
:103E2000000000000000000000000000000003E0AF
:103E30000007F0000E38000C180018780018F80081
:103E400019D80019980019980019980018F8001846
:103E500078001800000C00000E180007F80003E0BE
:103E60000000000000000000000000000000000052
:103E70000000000000000000001F80001FC00001C3
:103E8000C0000360000360000630000630000C3004
:103E9000000FF8001FF800180C00300C00FC7F0029
:103EA000FC7F000000000000000000000000000097
:103EB0000000000000000000000000000000000002
:103EC000007FE0007FF00018380018180018180074
:103ED0001838001FF0001FF800181C00180C0018FC
:103EE0000C00180C007FF8007FF0000000000000BC
:103EF00000000000000000000000000000000000C2
:103F000000000000000000000003EC000FFC001C9B
:103F10001C00180C00300C00300000300000300095
:103F200000300000300000180C001C1C000FF800CE
:103F300003F000000000000000000000000000008E
:103F40000000000000000000000000000000000071
:103F5000007FC0007FF000183800181800180C000F
:103F6000180C00180C00180C00180C00180C001885
:103F700018001838007FF0007FE00000000000000B
:103F80000000000000000000000000000000000031
:103F90000000000000000000007FF8007FF800181B
:103FA00018001818001998001980001F80001F8041
:103FB000001980001998001818001818007FF800E0
:103FC0007FF800000000000000000000000000007A
:103FD00000000000000000000000000000000000E1
:103FE000003FFC003FFC000C0C000C0C000CCC0053
:103FF0000CC0000FC0000FC0000CC0000CC0000CB3
:1040000000000C00003FC0003FC0000000000000A6
:1040100000000000000000000000000000000000A0
:1040200000000000000000000003EC000FFC001C7A
:104030001C00180C00300C0030000030000030FE76
:104040000030FE00300C00380C001C1C000FFC007F
:1040500003F000000000000000000000000000006D
:104060000000000000000000000000000000000050
:10407000007E7E007E7E00181800181800181800B8
:104080001818001FF8001FF800181800181800185A
:1040900018001818007E7E007E7E000000000000E0
:1040A0000000000000000000000000000000000010
:1040B0000000000000000000001FF8001FF80001D1
:1040C00080000180000180000180000180000180EB
:1040D000000180000180000180000180001FF800C5
:1040E0001FF80000000000000000000000000000B9
:1040F00000000000000000000000000000000000C0
:104100000007FE0007FE0000300000300000300015
:1041100000300000300030300030300030300030EF
:1041200030003060003FE0000F8000000000000021
:10413000000000000000000000000000000000007F
:104140000000000000000000007F3E007F3E0018DD
:10415000300018600018C0001980001B80001FC0CC
:10416000001CE0001870001830001838007F1F0095
:104170007F1F0000000000000000000000000000A1
:10418000000000000000000000000000000000002F
:10419000007F80007F80000C00000C00000C0000FD
:1041A0000C00000C00000C00000C0C000C0C000CAF
:1041B0000C000C0C007FFC007FFC000000000000E5
:1041C00000000000000000000000000000000000EF
:1041D000000000000000000000F00F00F81F003891
:1041E0001C003C3C003C3C00366C00366C0033CC80
:1041F0000033CC00318C00300C00300C00FE7F000E
:10420000FE7F000000000000000000000000000031
:10421000000000000000000000000000000000009E
:104220000078FE0078FE001C18001E18001F180001
:104230001B18001B980019D80018D80018F800188F
:1042400078001838007F18007F1800000000000078
:10425000000000000000000000000000000000005E
:1042600000000000000000000003C0000FF0001C70
:104270003800181800381C00300C00300C00300CCE
:1042800000300C00381C001818001C38000FF0001B
:1042900003C000000000000000000000000000005B
:1042A000000000000000000000000000000000000E
:1042B000003FF0003FF8000C1C000C0C000C0C0040
:1042C0000C0C000C18000FF8000FE0000C00000CA4
:1042D00000000C00003FC0003FC0000000000000D4
:1042E00000000000000000000000000000000000CE
:1042F00000000000000000000003C0000FF0001CE0
:104300003800181800381C00300C00300C00300C3D
:1043100000300C00381C001818001C38000FF0008A
:1043200007C00007CC000FFC000C380000000000A4
:10433000000000000000000000000000000000007D
:10434000007FE0007FF000183800181800181800EF
:104350001838001FF0001FC00018E0001870001887
:1043600030001838007F1E007F0E000000000000A3
:10437000000000000000000000000000000000003D
:1043800000000000000000000007D8000FF8001C2B
:1043900038001818001818001E00000FC00003F0A5
:1043A000000078001818001818001C38001FF000D2
:1043B0001BE0000000000000000000000000000002
:1043C00000000000000000000000000000000000ED
:1043D000003FFC003FFC00318C00318C00318C0030
:1043E000318C00018000018000018000018000010B
:1043F00080000180000FF0000FF0000000000000BE
:1044000000000000000000000000000000000000AC
:104410000000000000000000007E7E007E7E00188C
:104420001800181800181800181800181800181884
:10443000001818001818001818000C30000FF000B1
:1044400003C00000000000000000000000000000A9
:10445000000000000000000000000000000000005C
:10446000007F7F007F7F00180C000C18000C1800E4
:104470000C180006300006300003600003600003E3
:10448000600001C00001C0000080000000000000CA
:10449000000000000000000000000000000000001C
:1044A000000000000000000000FE3F80FE3F803062
:1044B000060030060030860019CC0019CC001B6CB9
:1044C000001B6C001E7C000E38000E38000C18001B
:1044D0000C180000000000000000000000000000B8
:1044E00000000000000000000000000000000000CC
:1044F000007E7E007E7E001818000C3000066000F2
:1045000003C00001800001800003C0000660000CB1
:1045100030001818007E7E007E7E00000000000043
:10452000000000000000000000000000000000008B
:104530000000000000000000007C7E007C7E00186F
:1045400018000C300006600006600003C000018007
:10455000000180000180000180000180000FF00058
:104560000FF000000000000000000000000000004C
:10457000000000000000000000000000000000003B
:10458000001FF8001FF8001818001830001860000D
:1045900018C0000180000300000618000C18001865
:1045A00018003018003FF8003FF80000000000003D
:1045B00000000000000000000000000000000000FB
:1045C00000000000000001F00001F0000180000187
:1045D00080000180000180000180000180000180D6
:1045E0000001800001800001800001800001800046
:1045F00001800001800001F00001F00000000000D7
:1046000000000000000000001800001800001C005E
:10461000000C00000E000006000006000003000071
:1046200003000001800001800000C00000C0000005
:1046300060000060000070000030000038000018CA
:104640000000180000000000000000000000000052
:104650000000000000000F80000F800001800001BA
:104660008000018000018000018000018000018045
:1046700000018000018000018000018000018000B5
:104680000180000180000F80000F8000000000000A
:10469000000000000000000000000000800001C0D9
:1046A0000003E0000770000630000C1800180C0032
:1046B00010040000000000000000000000000000E6
:1046C00000000000000000000000000000000000EA
:1046D00000000000000000000000000000000000DA
:1046E00000000000000000000000000000000000CA
:1046F00000000000000000000000000000000000BA
:1047000000000000000000000000000000000000A9
:104710000000000000000000000000000000000099
:104720000000FFFF00FFFF00000000030000038007
:104730000000E00000600000000000000000000039
:104740000000000000000000000000000000000069
:104750000000000000000000000000000000000059
:104760000000000000000000000000000000000049
:104770000000000000000000000000000000000039
:1047800000000FC0001FE00000300000300007F004
:10479000001FF0003830003030003070001FFC0087
:1047A0000FBC00000000000000000000000000003E
:1047B0000000000000000000000000000000780081
:1047C000007800001800001800001BE0001FF8002F
:1047D0001C1800180C00180C00180C00180C0018FD
:1047E0000C001C18007FF8007BE0000000000000B7
:1047F00000000000000000000000000000000000B9
:1048000000000000000000000000000000000000A8
:10481000000003EC000FFC001C1C00380C00300CE6
:1048200000300000300000380C001C1C000FF800A5
:1048300003F0000000000000000000000000000085
:1048400000000000000000000000000000000078F0
:104850000000780000180000180007D8001FF800BA
:1048600018380030180030180030180030180030A8
:1048700018001838001FFE0007DE000000000000CE
:104880000000000000000000000000000000000028
:104890000000000000000000000000000000000018
:1048A000000007E0001FF800181800300C003FFC63
:1048B000003FFC00300000300000180C001FFC001E
:1048C00007F00000000000000000000000000000F1
:1048D000000000000000000000000000000001FCDB
:1048E0000003FC000600000600003FF8003FF8004F
:1048F0000600000600000600000600000600000694
:1049000000000600003FF0003FF000000000000043
:104910000000000000000000000000000000000097
:104920000000000000000000000000000000000087
:10493000000007DE001FFE00183800301800301895
:10494000003018003018003018001838001FF80028
:1049500007D8000018000018000038000FF0000F02
:10496000C00000000000000000000000000078000F
:10497000007800001800001800001BE0001FF00085
:104980001C380018180018180018180018180018FB
:1049900018001818007E7E007E7E000000000000D7
:1049A0000000000000000000000000000000000007
:1049B00000000000000001800001800000000000F5
:1049C00000001F80001F8000018000018000018026
:1049D000000180000180000180000180003FFC0098
:1049E0003FFC00000000000000000000000000008C
:1049F000000000000000000000000000000000C0F7
:104A00000000C0000000000000001FF0001FF000C8
:104A100000300000300000300000300000300000A6
:104A20003000003000003000003000003000003066
:104A3000000070001FE0001F800000000000000068
:104A40000000000000003C00003C00000C00000CD6
:104A500000000CF8000CF8000CC0000D80000F8066
:104A6000000F00000F80000DC0000CE0003C7C0037
:104A70003C7C00000000000000000000000000007E
:104A800000000000000000000000000000001F8087
:104A9000001F800001800001800001800001800073
:104AA0000180000180000180000180000180000180
:104AB00080000180003FFC003FFC0000000000007F
:104AC00000000000000000000000000000000000E6
:104AD00000000000000000000000000000000000D6
:104AE0000000F77800FFFC0039CC00318C00318CDD
:104AF00000318C00318C00318C00318C00FDEF00D6
:104B0000FDEF0000000000000000000000000000B9
:104B10000000000000000000000000000000000095
:104B2000000000000000000000007BE0007FF000BB
:104B30001C38001818001818001818001818001849
:104B400018001818007E7E007E7E00000000000025
:104B50000000000000000000000000000000000055
:104B60000000000000000000000000000000000045
:104B7000000003C0000FF0001C3800381C00300C8F
:104B800000300C00300C00381C001C38000FF00006
:104B900003C0000000000000000000000000000052
:104BA0000000000000000000000000000000000005
:104BB000000000000000000000007BE0007FF80023
:104BC0001C1800180C00180C00180C00180C001809
:104BD0000C001C18001FF8001BE000180000180053
:104BE000001800007F00007F0000000000000000AF
:104BF00000000000000000000000000000000000B5
:104C0000000007DE001FFE001838003018003018C2
:104C1000003018003018003018001838001FF80055
:104C200007D80000180000180000180000FE00005F
:104C3000FE00000000000000000000000000000076
:104C4000000000000000000000003E78003EFC0074
:104C500007CC000700000600000600000600000662
:104C600000000600003FF0003FF0000000000000E0
:104C70000000000000000000000000000000000034
:104C80000000000000000000000000000000000024
:104C9000000007F8000FF8001818001818001F800F
:104CA000000FF00000F8001818001838001FF0007E
:104CB0001FE00000000000000000000000000000F5
:104CC00000000000000000000000000000000C00D8
:104CD000000C00000C00000C00003FF0003FF00052
:104CE0000C00000C00000C00000C00000C00000C7C
:104CF00000000C1C0007FC0003F000000000000096
:104D000000000000000000000000000000000000A3
:104D10000000000000000000000000000000000093
:104D20000000787800787800181800181800181813
:104D3000001818001818001818001838000FFE0086
:104D400007DE00000000000000000000000000007E
:104D50000000000000000000000000000000000053
:104D6000000000000000000000007C3E007C3E00CF
:104D70001818001818000C30000C300006600006EF
:104D8000600007E00003C00003C000000000000056
:104D90000000000000000000000000000000000013
:104DA0000000000000000000000000000000000003
:104DB0000000783C00783C003118003398003398AC
:104DC000001AB0001EF0001EF0001C60000C600015
:104DD0000C60000000000000000000000000000067
:104DE00000000000000000000000000000000000C3
:104DF000000000000000000000003E7C003E7C003F
:104E00000C300006600003C00001800003C00006F3
:104E100060000C30003E7C003E7C00000000000082
:104E20000000000000000000000000000000000082
:104E30000000000000000000000000000000000072
:104E400000007E1F007E1F00180C000C18000C18BC
:104E50000006300006300003600003E00001C000DF
:104E600000C0000180000180000300003FC0003F3F
:104E7000C000000000000000000000000000000072
:104E8000000000000000000000001FF8001FF800F4
:104E900018300018600000C0000180000300000608
:104EA00018000C18001FF8001FF800000000000098
:104EB00000000000000000000000000000000000F2
:104EC00000000000000000E00001E000018000019F
:104ED00080000180000180000180000180000380CB
:104EE00000070000038000018000018000018000B5
:104EF00001800001800001E00000E00000000000EF
:104F00000000000000000000000000000000018020
:104F1000000180000180000180000180000180000C
:104F200001800001800001800001800001800001FB
:104F3000800001800001800001800001800001806C
:104F400000018000000000000000000000000000E0
:104F50000000000000000700000780000180000141
:104F6000800001800001800001800001800001C0FC
:104F70000000E00001C0000180000180000180000D
:104F80000180000180000780000700000000000091
:104F90000000000000000000000000000000000011
:104FA0000000000000000000000000000000000001
:104FB0000E00001F18003BB80031F00000E00000B8
:104FC00000000000000000000000000000000000E1
:104FD00000000000000000000000000000000000D1
:104FE00000500008000001201800000038330008BD
:104FF0001850000818000120C809000048330008B4
:105000000024F40000000000000000000000000088
:0850100028350008110018000A
:04000005080001C925
:00000001FF
