:020000040800F2
:1000000020080120DD010008974C00084F3C000843
:10001000954C0008DD0800083D6000080000000065
:10002000000000000000000000000000DD5B000890
:10003000E70B00080000000021520008E15B000807
:10004000F7010008F7010008F7010008F7010008B0
:10005000F7010008F7010008F7010008F7010008A0
:10006000F7010008F7010008F7010008F701000890
:10007000F7010008F7010008F7010008F701000880
:10008000F7010008F7010008F7010008F701000870
:10009000F7010008F7010008F7010008F701000860
:1000A000F7010008F7010008F7010008F701000850
:1000B000F7010008F7010008F7010008F701000840
:1000C000F7010008F7010008F7010008F701000830
:1000D000F7010008F7010008F7010008F701000820
:1000E000F7010008F7010008F7010008F701000810
:1000F000F7010008F7010008F7010008F701000800
:10010000F7010008F7010008F7010008F7010008EF
:10011000F7010008F7010008F7010008F7010008DF
:10012000F7010008190B0008F7010008F7010008A3
:10013000F7010008F7010008F7010008F7010008BF
:10014000F7010008F7010008F7010008F7010008AF
:10015000F7010008F7010008F7010008F70100089F
:10016000F7010008F7010008F7010008F70100088F
:10017000F7010008F70100088509000800000000E9
:10018000F7010008F7010008F7010008F70100086F
:10019000F7010008F7010008F7010008F70100085F
:1001A000F7010008F7010008F7010008F70100084F
:1001B000F7010008F7010008F7010008F70100083F
:1001C000F7010008F7010008DFF80CD000F002FB8F
:1001D00000480047A56C0008200801200648804719
:1001E00006480047FEE7FEE7FEE7FEE7FEE7FEE71C
:1001F000FEE7FEE7FEE7FEE7095C0008C90100082C
:1002000040EA01039B0703D009E008C9121F08C098
:10021000042AFAD203E011F8013B00F8013B521E18
:10022000F9D270472DE9FE4F804681EA0300C00FE6
:100230000C46009021F0004123F00045B8EB02008D
:10024000A94105D24046214690461C460B4602462F
:1002500023F00040104347D0270DC7F30A00C3F333
:100260000A510290401A019040286BDAC3F3130040
:1002700040F4801B0098924620B10023D2EB030A81
:1002800063EB0B0B01985946C0F14002504600F059
:10029000FAF906460D4650465946019A00F012FA00
:1002A00010EB08006141002487EA115284EAE773E9
:1002B0001A4340D0009A62B3019A012A4FEA0752CA
:1002C00015DC001B61EB02014FF0004202EA07520D
:1002D000CDE90042001C41F5801132462B4600F06A
:1002E00012FA03B0BDE8F08F40462146F9E7001B43
:1002F00061EB0201001C41F5801300185B412018DE
:10030000A2F5001747EB030140EAD570B6196D411D
:1003100011E06D084FEA360645EAC0754FEA07520C
:10032000001B61EB0201001C41F5801149084FEAF6
:1003300030000019514132462B4603B0BDE8F04F62
:1003400000F0D2B90098012240000023D0EB020255
:1003500063EBE073009821464FEAE074B8EB0000CD
:1003600061EB0401E9E783F000435BE781F00041C2
:1003700058E72DE9FE4F81EA030404F0004421F020
:10038000004100944FF0000B23F0004350EA0104B9
:100390005ED052EA03045BD0C3F30A54C1F30A559A
:1003A0002C44A4F2F3340194A0FB0254C1F31301D2
:1003B00041F48011C3F3130343F4801301FB02449F
:1003C00000FB034E840A970A44EA815447EA8357A4
:1003D000A4FB076802958D0A05FB07854FEA932C5D
:1003E00004FB0C542705029D4FEA065847EA1637CE
:1003F000B5EB08056EEB070C870E920E47EA8117E6
:1004000042EA8312A7FB0201B6EB0B0164EB000486
:100410002B0D43EA0C335E1844EB1C50DA46514670
:10042000E7FB0201C5F313044FEA0B3343EA14530D
:100430004FEA0432019C43EA0603A4F10C0402943F
:10044000009CCDE900B400F05EF903B0BDE8F08F88
:1004500000200146F9E72DE9F04D81EA030404F09C
:10046000004B21F0004514464FF0000A23F00041F4
:1004700050EA050220D054EA01021DD0C5F30A5704
:100480000246C5F31303C1F31300C1F30A5640F447
:10049000801543F48013A7EB0608101BD64608F21C
:1004A000FD3873EB050002D308F1010801E0921852
:1004B0005B41B8F1000F03DA00200146BDE8F08D82
:1004C00000204FF48011064684460EE0171B73EBA4
:1004D000050705D3121B63EB050306434CEA010C29
:1004E00049084FEA300092185B4150EA0107EDD10C
:1004F00052EA030012D082EA040083EA05010843AD
:1005000005D0101BAB4106D20122002306E00022D9
:100510004FF0004302E06FF0010253101AEB0600A7
:100520004CEB085110EB0A0041EB0B01BDE8F04D1C
:1005300000F0DAB80EB5C10F80EAE0700844CA07CF
:10054000002140F233438DE80E000A460B4600F0CE
:10055000DAF803B000BD0EB540F23341029100213C
:10056000CDE900110A460B4600F0CDF803B000BDFE
:1005700000F0004230F000400AD0C10D01F560717A
:10058000C0F3160042EA0151C20840071143704708
:10059000002001467047000030B5041E71F10004D0
:1005A00004DB4FF00044404264EB0101141E73F180
:1005B000000405DB1C464FF00043524263EB04038A
:1005C0008B4208BF824230BD30B5041E71F1000479
:1005D00004DB4FF00044404264EB0101141E73F150
:1005E000000405DB1C464FF00043524263EB04035A
:1005F000994208BF904230BD30B50B4601460020FD
:100600002022012409E021FA02F59D4205D303FAD4
:1006100002F5491B04FA02F52844151EA2F1010255
:10062000F1DC30BD2DE9F05F0546002092469B4687
:1006300088460646814640241BE0284641464746F8
:10064000224600F02FF853465A46C01A914110D363
:1006500011461846224600F016F82D1A67EB0108DD
:100660004F4622460120002100F00DF817EB00094B
:100670004E41201EA4F10104DFDC484631462A46E3
:100680004346BDE8F09F202A04DB203A00FA02F13D
:10069000002070479140C2F1200320FA03F3194370
:1006A00090407047202A04DB203A21FA02F0002112
:1006B000704721FA02F3D040C2F120029140084372
:1006C00019467047202A06DBCB17203A41FA02F080
:1006D00043EAE07306E041FA02F3D040C2F120029F
:1006E000914008431946704710B5141E73F1000479
:1006F00008DA401C41F1000192185B411A4301D114
:1007000020F0010010BD2DE9F04D92469B4611B13D
:10071000B1FA81F202E0B0FA80F220329046FFF79F
:10072000B2FF04460F4640EA0A0041EA0B01534675
:100730005A46084313D0114653EA010019D0C8F1B4
:1007400040025046FFF7AEFF05460E46504659465A
:100750004246FFF798FF084305D0012004E02046F9
:100760003946BDE8F08D0020054346EAE0762C438B
:1007700037430A986305E40AA0EB08000022FD0A4B
:1007800044EA47540A3002D500200146E9E7010552
:1007900010196941DDE9084500196941BDE8F04DCE
:1007A000A2E7C1F30A52C1F3130140F2FF3341F44F
:1007B00080119A4202DA00200146704740F233432A
:1007C0009A42A2F2334202DC5242FFF76BBFFFF7BC
:1007D0005ABF0000064C074D06E0E06840F00103F8
:1007E00094E8070098471034AC42F6D3FFF7F0FCCA
:1007F000349500085495000810B590B002208DF88B
:10080000380004F09DFE10B1042010B010BD04F0BB
:10081000E5FE18BB002007904FF480740694312148
:10082000009122040590012341F28834CDE90A3079
:10083000CDE908020C9022460D906946084802F066
:10084000A3F958B906480EA9224602F0A3FA28B91E
:100850004FF4487004F0E6FC0028D6D00120D4E71D
:10086000DC0201202DE9F0411A4E8EB014460D46EF
:10087000002280460221304601F0BEFDB3150195ED
:1008800000205901039103270097CA0241F28837DB
:100890004FF4806C6946CDE9080205AA82E8091088
:1008A000CDE90A400C903A460D900B4802F06CF9E5
:1008B00028B909483A46414602F00BFA18B101201E
:1008C0000EB0BDE8F08101223046022101F094FD16
:1008D0000020F5E700200240DC020120FEE710B511
:1008E000806B816C496D022906D0012180F835109A
:1008F000C16C41F04001C16400F076FB10BD10B541
:10090000816B0C468A6B886C0168CAB10A68A36B5C
:1009100002F40022DB0706D12AB1C968E26B01EBC1
:10092000C201002207E00A68120319D40969E26BC8
:1009300001EBC201012200F095FDA06B401E0EE00C
:100940000868000302D5606CC86009E0086800030D
:1009500006D4E26B606C00EB82000861206CA0633F
:10096000A06B216C88420BD12068C16841F0010165
:10097000C16020680068800702D5012084F8350036
:1009800010BD0000014800F031BB00006C030120E5
:10099000054806490068026842F0010202600868E2
:1009A00040F0010008607047BC03012000000550C2
:1009B0002D4830B5A7B0016841F001010160016820
:1009C00001F001012691016841F001010160006818
:1009D0000421119100F001002690802000906846CB
:1009E00002F036FA20481430016841F0100101602D
:1009F000006821AD072400F010002690022101229A
:100A000003234FF4007085E81F00184D21A92846E4
:100A100001F006FC2815259421A92190284601F013
:100A2000FFFB144C0020124B0C214FF4E1322360E9
:100A3000C4E90120E060C4E90401A061E061206232
:100A40006062204603F071F800222520114601F073
:100A5000B1FF252001F0A3FF2068016841F02001CB
:100A6000016027B030BD0000303802400000024075
:100A700000100140E8000120F0B50468254E059DF6
:100A800096FAA6F7666CB7FA87F7BB402B4306F0D9
:100A900040451D4365640368DA634268B2F5403F30
:100AA00002D00068C160F0BD01F47F42856801F4A6
:100AB0007F04224301F07F4301F47F0701F47F4666
:100AC000CCB2BDB1012D16D001F47F02C1F3C40137
:100AD000D20C022D11D0032D14D0320B390D15017B
:100AE0001A0F45EA0123210943EA02320A4300684A
:100AF0008263F0BD1A432243F9E7B30A5B0143EA7C
:100B0000C222F3E7F40ADB0F640144EA822242EADC
:100B1000C332EBE70000FF3F014801F0CFB900000E
:100B2000BC03012001681823CAB2103AB2FBF3F2E9
:100B3000054B6FF30901032A9B5CC36500D9091DAE
:100B400081650846704700000C73000810B5836982
:100B50004FF0C074826A0146002053B1B3F5005FC4
:100B600015D072B1012A0CD0022A0AD0032A09D169
:100B700004E01AB1012A06D0022A03D1C96AC901C8
:100B800000D5012010BDC96AA142FAD010BD002ACB
:100B9000F7D0012AF2D0022AF3D0032AF3D010BDF5
:100BA00010B5046863608368402B036803D09960C4
:100BB0000068C26010BD9A600068C16010BD30B5A9
:100BC0000468256825F480252560046863608368CF
:100BD000402B036803D099600068C26030BD9A6002
:100BE0000068C16030BD70472DE9F84F354A1421C7
:100BF000354B4FF416774FF4E67800BF01EBC10494
:100C000004EB0114C82003EB841602EB841500BF2B
:100C100036F810C0441C25F810C0A0B29246B84265
:100C2000F6D3491C89B24145E8D31521C8208F1C51
:100C3000A1F1010B01EBC10303EB01141FFA8BF2CD
:100C400001250AEB8419A0F1010E00F1020C1CE051
:100C500002EBC20606EB02161FFA8EF30AEB8616AB
:100C600000960DE039F810804FF6FF76B04522D09F
:100C7000DDF8008038F81380B0451CD05B1C9BB2B7
:100C80006345EFD3BDB1521C92B2BA42E0D395B1E5
:100C90000D4A02EB8413002223F81020401C40F27E
:100CA000572280B29042C5D3491C89B2B1F5E57F85
:100CB000BCD9BDE8F88F044A02EB84134FF6FF72EB
:100CC000EAE70000000040D0000030D02DE9F74FE7
:100CD00029480026DFF89CA0406800EB40000AEBA2
:100CE000800080688588C788E81D834620F007005B
:100CF000401B00F0FF0939E04FEADB0102980129AF
:100D000001FB060009D0022909D0017842788378D6
:100D1000080440EA0220184303E0007801E000885C
:100D200040BA002480461AE02A1B02EB0901012088
:100D3000491E884010EA080F009800EB04020E4894
:100D4000416890B201EB410202D05AF8222002E041
:100D50000AEB82014A68019903F040FA641CAC4234
:100D6000E2D30198401C80B20190761CBE42C3D3EE
:100D7000BDE8FE8FC4020120200001202DE9F04FC4
:100D8000344A1421344B4FF416774FF4E67800BF01
:100D900001EBC10404EB0114C82003EB841602EB41
:100DA000841500BF36F810C0441C25F810C0A0B24E
:100DB0009246B842F6D3491C89B24145E8D3152181
:100DC000C9208F1CA1F1010B01EBC10303EB01153D
:100DD00001261FFA8BF2841C0AEB8519A0F1010E83
:100DE0001BE000BF02EBC20C0CEB021C1FFA8EF3DF
:100DF0000AEB8C1C0CE000BF39F81080B8F1000F32
:100E000023D03CF81380B8F1000F1ED05B1C9BB2BE
:100E1000A342F1D3CEB1521C92B2BA42E2D3A6B1F0
:100E20000D4A02EB85134FF6FF7200BF23F8102026
:100E3000401C40F2572280B29042C5D3491C89B26F
:100E4000B1F5E57FBCD9BDE8F08F034A02EB85130D
:100E50000022EBE7000040D0000030D0F0B5D1E92F
:100E60000125D1E90343D1E905762A43D1F800C031
:100E700044EA0304D1E9073542EA0402496A42EA36
:100E80000702BCF1010F42EA060208D004681A43C7
:100E90002A430A43E30BDB031A4302600BE00668B4
:100EA00044682B4326F4F84529430B4303606FF352
:100EB0000E04224342600020F0BD426942EA410133
:100EC000416100207047F8B505461446D1E900039A
:100ED000D1E902216FF01F06184306EB421242EAE5
:100EE000412108430090286101F08CFA064609E090
:100EF000601C07D024B101F085FA801BA04201D903
:100F00000320F8BDA8698006F2D40020F8BD0000D7
:100F10002DE9F043914691E81C006FF00F05521E39
:100F20002E0105EB03131A430B7E06EB04268C8A75
:100F30002F034FEA054C0D8A32434FF07F4808EBF0
:100F40000366CB68B9F1010F07EB05450CEB0454C0
:100F50000CD081683F1107EB03331A432A43224325
:100F6000324301F070410A43826011E08168DFF88A
:100F700028C0C7681B03A3F5805323432A4301EA13
:100F80000C0132430B43836007F070442243C2607C
:100F90000020BDE8F0830000FF0F0FFF70B5114E79
:100FA00005460C46307818B904F036FA0120307046
:100FB000210AA139E0B2C1EB011202EB4111482232
:100FC00000EB4100A13800EBC0008001C11700EB2D
:100FD0005170C110284601F5AA01FFF743FC00201B
:100FE00070BD000020000120704770472DE9F041DE
:100FF00004460068234F0426056969070BD546613E
:10100000E06C40F00200E06484F83560A06C076595
:10101000A06C00F040FFA8070DD5216802204861B0
:10102000E06C40F00100E06484F83560A06C076576
:10103000A06C00F030FFE80605D52168102048615B
:10104000204600F07DF8280705D521680820486172
:10105000204600F0D5F8E80712D02068016889071B
:1010600003D5C16821F01E01C16020680121C2685A
:1010700022F00102C260206841612046FFF7B5FFFF
:10108000BDE8F081DF0800082DE9F041040003D03D
:1010900094F8350018B105E00120BDE8F081204644
:1010A00000F04FF8022084F835002068234A0168D8
:1010B00011400160D4E90453E168D4E901022943F5
:1010C0001843A36908431043D4E90815184308439B
:1010D0002168D4E90A322843256B18430B68104372
:1010E000284318430860606810281BD14FF47F40E4
:1010F000637FA17F0502020490FAA0F095FAA5F79C
:10110000B0FA80F5207F92FAA2F6E27FAB40B7FA00
:1011100087F72568B6FA86F6B940B24018431143FE
:101120000843A861206800220121C36843F01E0320
:10113000C360E26484F835101046AEE707F0E0FFC4
:1011400070477047F8B5044690F83400012829D05C
:10115000012084F83400022584F8355025682E6873
:1011600046F480462E6025682E6826F002062E6022
:1011700025682E680E432E60A66C00251E491F4F61
:10118000F1630604D4F848C0B342CCF84C70A76CA5
:101190003D65A563256407D22168A06C283100F065
:1011A000F6FF1FE00220F8BDA76C7964A063E3633B
:1011B000626405E0E06B4008E063A06B4000A06360
:1011C000E06BB042F6D2A06B801EA063A16BE36B14
:1011D000E06B2164009002EB83032168A06C28314E
:1011E00000F048F92068016841F001010160002029
:1011F00084F83450F8BD0000FF080008DF0800083C
:1012000002480178491C0170704700000800012065
:10121000F0B590F8384000EB01121832012C4FF471
:1012200040332BD0012680F83860022480F8394002
:1012300093FAA3F7234CD2E90135B7FA87F7BD40FB
:101240001D430A2B1CD0092B1AD04FF07F47D368BF
:1012500097FAA7F7B7FA87F7BB402B430029016835
:1012600012D0CD69A5431D43CD61016813680B61A0
:1012700051680A291AD0092918D01CE00220F0BDB3
:10128000D36803F07F43E8E74D6AA5431D434D62F1
:10129000016813688B6151680A2901D009290AD1B4
:1012A000D168026821F07F41916204E0D168026850
:1012B00021F07F411162002180F8396080F83810F8
:1012C0000846F0BD0F0003FF70B5040004D094F889
:1012D0003900002510B106E0012070BD204684F8D9
:1012E000385000F01EF8022084F83900D4E90003D9
:1012F0000121026822F440321A4302602068A36888
:10130000426B22F007021A4342632068E368026CD2
:101310006FF30D021A430264E56384F8391000206C
:1013200070BD70472DE9F8430026044604270D469A
:1013300000964FF0030800680068C00727D001F04E
:1013400061F881461FE04068009010F0210F11D035
:101350000098800603D5E06B40F00200E06300983F
:10136000C00703D0E06B40F00100E063206821215A
:10137000816034E0681C06D0C5B301F043F8A0EBEF
:101380000900A8423CD8206841688907DBD520685D
:10139000C169890602D4406A80063FD501F032F85F
:1013A000814637E04068009010F0290F1FD0009868
:1013B000000703D5E06B40F00400E063009880066E
:1013C00003D5E06B40F00200E0630098C00703D053
:1013D000E06B40F00100E06321682920886084F818
:1013E0003970012084F83860BDE8F88308E0681C93
:1013F00010D02DB101F006F8A0EB0900A84209D9E0
:10140000E16B84F8386041F02001E16384F83980B1
:101410000320E9E720684168C906C3D52268122184
:101420000120916084F83900002084F83860DBE7FF
:10143000F8B50446069894F83850012D10D00126CE
:1014400084F83860022584F8395000902046FFF770
:1014500013FB2068016841F0010101600020F8BD24
:101460000220F8BD006812B1016100207047C16020
:10147000FBE700002DE9F84F044680684FF4807ABE
:101480000A9D80284FF00000009012D094F834009C
:10149000012812D094F835700126002084F83460B9
:1014A000012F0CD00221009184F834000098BDE88F
:1014B000F88FC4F854A00120F9E70220F7E70226CC
:1014C00084F8356060652068066846F4802606600A
:1014D000206803612B462046FFF762FBFF4B4FF469
:1014E000006BFF4D4FF4001EFC4E6033FC4F603527
:1014F000DFF8EC831836DFF8E4C31837DFF8E09341
:1015000008F1480821680CF1780CF44809F17809D1
:10151000F34A414534D9814205D0914203D09942E2
:1015200001D0A94201D1202125E0B14205D0B94224
:1015300003D0614501D0494501D159461BE0DFF890
:101540009C8308F13008414511D0DFF8948308F1FD
:10155000300841450BD0DFF8848308F190084145FD
:1015600005D0DFF87C8308F19008414501D1714630
:1015700001E04FF00061DFF86883A8F1040839E06A
:10158000DFF8588308F1A808414536D9814205D0D3
:10159000914203D0994201D0A94201D1202125E0F6
:1015A000B14205D0B94203D0614501D0494501D1CE
:1015B00059461BE0DFF8248308F13008414511D07B
:1015C000DFF81C8308F1300841450BD0DFF80C83AD
:1015D00008F19008414505D0DFF8048308F1900830
:1015E000414501D1714601E04FF00061DFF8F08222
:1015F000A8F10808C8F8001072E0DFF8E08208F1EE
:101600004808414536D9814205D0914203D09942DC
:1016100001D0A94201D1202125E0B14205D0B94233
:1016200003D0614501D0494501D159461BE0DFF89F
:10163000AC8208F13008414511D0DFF8A48208F1EE
:10164000300841450BD0DFF8948208F190084145FD
:1016500005D0DFF88C8208F19008414501D1714630
:1016600001E04FF00061DFF87482A8F11008C8F8BB
:101670000C1035E0814205D0914203D0994201D04F
:10168000A94201D1202125E0B14205D0B94203D0C1
:10169000614501D0494501D159461BE0DFF83C8244
:1016A00008F13008414511D0DFF8348208F13008E4
:1016B00041450BD0DFF8248208F19008414505D060
:1016C000DFF81C8208F19008414501D1714601E024
:1016D0004FF00061DFF80482A8F11008C8F8081084
:1016E0004FF4806BDFF8F8814FF4801E216808F119
:1016F0004808414534D9814205D0914203D09942EE
:1017000001D0A94201D1102125E0B14205D0B94252
:1017100003D0614501D0494501D159461BE0DFF8AE
:10172000BC8108F13008414511D0DFF8B48108F1DF
:10173000300841450BD0DFF8A48108F190084145FD
:1017400005D0DFF89C8108F19008414501D1714630
:1017500001E04FF08061DFF88881A8F1040839E0EA
:10176000DFF8788108F1A808414536D9814205D0D3
:10177000914203D0994201D0A94201D1102125E024
:10178000B14205D0B94203D0614501D0494501D1EC
:1017900059461BE0DFF8448108F13008414511D07B
:1017A000DFF83C8108F1300841450BD0DFF82C818F
:1017B00008F19008414505D0DFF8248108F1900830
:1017C000414501D1714601E04FF08061DFF81081A1
:1017D000A8F10808C8F8001072E0DFF8008108F1ED
:1017E0004808414536D9814205D0914203D09942FB
:1017F00001D0A94201D1102125E0B14205D0B94262
:1018000003D0614501D0494501D159461BE0DFF8BD
:10181000CC8008F13008414511D0DFF8C48008F1D0
:10182000300841450BD0DFF8B48008F190084145FD
:1018300005D0DFF8AC8008F19008414501D1714630
:1018400001E04FF08061DFF89480A8F11008C8F83B
:101850000C1035E0814205D0914203D0994201D06D
:10186000A94201D1102125E0B14205D0B94203D0EF
:10187000614501D0494501D159461BE0DFF85C8044
:1018800008F13008414511D0DFF8548008F13008E4
:1018900041450BD0DFF8448008F19008414505D060
:1018A000DFF83C8008F19008414501D1714601E024
:1018B0004FF08061DFF82480A8F11008C8F8081004
:1018C0004FF4007BDFF818804FF4002E216808F1F8
:1018D0004808414535D981420AD003E010600240F2
:1018E00010640240914203D0994201D0A94201D133
:1018F000082121E0B14205D0B94203D0614501D0B1
:10190000494501D1594617E0DFF8EC8441450FD035
:10191000DFF8E88441450BD0DFF8DC8408F160088B
:10192000414505D0DFF8D48408F16008414501D174
:10193000714601E04FF00071DFF8C084A8F134086F
:1019400035E0DFF8B48408F17808414532D98142A6
:1019500005D0914203D0994201D0A94201D108217A
:1019600021E0B14205D0B94203D0614501D04945DB
:1019700001D1594617E0DFF8808441450FD0DFF8E8
:101980007C8441450BD0DFF8708408F16008414544
:1019900005D0DFF8688408F16008414501D171463F
:1019A00001E04FF00071DFF85484A8F13808C8F85E
:1019B00000106AE0DFF8408408F11808414532D988
:1019C000814205D0914203D0994201D0A94201D170
:1019D000082121E0B14205D0B94203D0614501D0D0
:1019E000494501D1594617E0DFF80C8441450FD035
:1019F000DFF8088441450BD0DFF8FC8308F160086C
:101A0000414505D0DFF8F48308F16008414501D174
:101A1000714601E04FF00071DFF8DC83A8F1400867
:101A2000C8F80C1031E0814205D0914203D09942B0
:101A300001D0A94201D1082121E0B14205D0B9422B
:101A400003D0614501D0494501D1594617E0DFF87F
:101A5000A88341450FD0DFF8A48341450BD0DFF8C0
:101A6000988308F16008414505D0DFF8908308F1BC
:101A70006008414501D1714601E04FF00071DFF887
:101A80007883A8F14008C8F808104FF4802EDFF8DA
:101A90006C832168DFF868B308F11808414530D934
:101AA000814205D0914203D0994201D0A94201D18F
:101AB000594621E0B14205D0B94203D0614501D079
:101AC000494501D1514617E0DFF82C8341450FD03D
:101AD000DFF8288341450BD0DFF81C8308F160084C
:101AE000414505D0DFF8148308F16008414501D174
:101AF000714601E04FF08071DFF80083A8F13408EF
:101B000035E0DFF8F48208F17808414532D98142A6
:101B100005D0914203D0994201D0A94201D1594642
:101B200021E0B14205D0B94203D0614501D0494519
:101B300001D1514617E0DFF8C08241450FD0DFF8F0
:101B4000BC8241450BD0DFF8B08208F16008414506
:101B500005D0DFF8A88208F16008414501D171463F
:101B600001E04FF08071DFF89482A8F13808C8F8DE
:101B700000106AE0DFF8808208F11808414532D988
:101B8000814205D0914203D0994201D0A94201D1AE
:101B9000594621E0B14205D0B94203D0614501D098
:101BA000494501D1514617E0DFF84C8241450FD03D
:101BB000DFF8488241450BD0DFF83C8208F160082D
:101BC000414505D0DFF8348208F16008414501D174
:101BD000714601E04FF08071DFF81C82A8F14008E7
:101BE000C8F80C1031E0814205D0914203D09942EF
:101BF00001D0A94201D1594621E0B14205D0B942F4
:101C000003D0614501D0494501D1514617E0DFF8C5
:101C1000E88141450FD0DFF8E48141450BD0DFF882
:101C2000D88108F16008414505D0DFF8D08108F17E
:101C30006008414501D1714601E04FF08071DFF845
:101C4000B881A8F14008C8F808104FF4803BDFF8CD
:101C5000AC814FF4800EDFF8A8A1216808F11808C4
:101C6000AAF1030A414527D9814205D0914203D008
:101C7000994201D0A94201D150461AE0B14205D0A3
:101C8000B94203D0614501D0494501D1402010E05F
:101C9000594881420AD05948814207D0564860309D
:101CA000814203D055486030814201D1584600E05E
:101CB0007046524934392CE0DFF83C8108F178084D
:101CC000414528D9814205D0914203D0994201D0A3
:101CD000A94201D150461AE0B14205D0B94203D021
:101CE000614501D0494501D1402010E04248814280
:101CF0000AD04248814207D03F486030814203D039
:101D00003E486030814201D1584600E070463B4970
:101D10003839086056E0DFF8E08008F118084145DE
:101D200028D9814205D0914203D0994201D0A942DD
:101D300001D150461AE0B14205D0B94203D0614505
:101D400001D0494501D1402010E02B4881420AD002
:101D50002A48814207D028486030814203D0274872
:101D60006030814201D1584600E070462249403936
:101D7000C86027E0814205D0914203D0994201D04A
:101D8000A94201D150461AE0B14205D0B94203D070
:101D9000614501D0494501D1402010E016488142FB
:101DA0000AD01648814207D013486030814203D0E0
:101DB00012486030814201D1584600E070460E4919
:101DC000403988602068016841F016010160206890
:101DD000416941F080014161206C08B9A06C20B1DB
:101DE0002068016841F0080101602068016841F045
:101DF00001010160FFF75ABB4060024040640240AD
:101E0000040080002DE9F041876D044600F0FAFAE5
:101E1000064694F835000025022806D0802060652B
:101E2000012084F83450BDE8F0812068016821F079
:101E3000160101602068416921F080014161206C38
:101E400008B9A06C20B12068016821F00801016088
:101E50002068016821F0010101600CE000F0D2FA75
:101E6000801B052807D920216165032084F83450A0
:101E700084F83500D7E720680068C007EED194F8F1
:101E80005C203F2001219040B86084F8345084F8F1
:101E900035100020C7E790F83510022903D08021C3
:101EA000416501207047052180F835100068016800
:101EB00021F0010101600020704700002DE9F84386
:101EC00004464FF00008654B0820CDF800804FF421
:101ED0001652A56D94F85C101B682E68B3FBF2F7E0
:101EE00000FA01F131420FD021680A6852070BD580
:101EF0000A6822F004020A6094F85C108840A86026
:101F0000606D40F00100606594F85C1054488840B2
:101F1000304208D021684969090604D5A860606D7F
:101F200040F0020060654E4894F85C10C01C884088
:101F3000304208D021680968890704D5A860606D1F
:101F400040F00400606594F85C1010208840304236
:101F500018D021680968090714D5A86020680168AD
:101F6000490304D50068000308D5A16C07E00168A7
:101F7000C90503D4016821F008010160216C09B191
:101F80002046884794F85C1020204FF001098840D3
:101F9000304231D021680968C9062DD5A86094F86F
:101FA000350005282068016806D0490347D5006838
:101FB00000031DD4616C1CE021F016010160206853
:101FC000416921F080014161206C08B9A06C20B109
:101FD0002068016821F00801016094F85C303F221C
:101FE0009A40AA6084F8348084F83590216D1FE00F
:101FF000E16B09B120468847606D00282BD0606DE9
:10200000C00714D0052084F835002068016821F04D
:10201000010101600098401C0090B84203D820687C
:102020000068C007F6D184F8348084F83590E16CFC
:10203000002910D001B02046BDE8F04308470168F0
:10204000C905D5D4036823F01003036084F83480F5
:1020500084F83590CCE7BDE8F8830000000001204B
:10206000010080002DE9F047044600F0CBF9054659
:1020700064B14FF0000984F83490022184F83510DF
:102080002068016821F0010101600EE00120BDE837
:10209000F08700BF00F0B6F9401B052805D92021C4
:1020A0006165032084F83500F1E720680068C00707
:1020B000F0D1D4E90020D4E90251D4E9043C28430A
:1020C00004F1180519430843116895E8E00140EA56
:1020D0000C001B4B2843194040EA060040EA070069
:1020E000B8F1040F40EA010003D1D4E90B131943FE
:1020F0000843106020680126656A4069042D20F0BD
:10210000070045EA00050AD1A06A05432046FEF70C
:102110001DFD20B14020606584F83560B6E7206879
:1021200045612046FEF7FEFC94F85C303F229A4061
:102130008260C4F8549084F835600020A7E700005E
:102140003F8010F02DE9F041044690F8340000255E
:1021500001280DD094F835700126002084F83460F1
:10216000012F07D0022584F834002846BDE8F0810D
:102170000220FBE7022684F8356060652046FEF702
:102180001EFD2068016841F001010160EDE72DE9C5
:10219000F041044690F8340000250128A66D0ED0C9
:1021A00094F835C00127002084F83470BCF1010F89
:1021B00007D0022584F834002846BDE8F0810220CB
:1021C000FBE7022784F8357060652046FEF7F7FCD0
:1021D00094F85C103F208840B0602068016841F0AE
:1021E000160101602068416941F080014161206C65
:1021F00020B12068016841F0080101602068016891
:1022000041F001010160D7E731B500F0FBF8044669
:1022100000F0F8F80099001B8842F9D338BD00009F
:102220002DE9F84FDFF89CE100224FF001084FF054
:10223000030B4FF00F0A00BF0B6808FA02F42340AB
:10224000A34271D14D68022D01D0122D0FD1D508B6
:102250000E69570700EB8505A9462D6AFF0E0AFA9D
:1022600007FCBE4025EA0C052E43C9F820600F7913
:10227000550006680BFA05FC07F0030726EA0C0672
:10228000AF40374307604E68012E05D0022E03D0C1
:10229000112E01D0122E0ED18668CF6826EA0C06C8
:1022A000AF403743876046680F79A643C7F30017EE
:1022B000974037434760C4688E6824EA0C04AE40F8
:1022C0002643C6604C68E40075D53F4C256845F44C
:1022D00080452560246822F00306950704F48044B5
:1022E00000943A4C2D0F2644D6F80848DFF8E0C099
:1022F0000AFA05F7604524EA070401D100272EE019
:10230000344FB84201D1012729E0334FB84201D1FF
:10231000022724E0314FB84201D103271FE0304F9C
:10232000B84202D104271AE045E02E4FB84201D14D
:10233000052714E02C4FB84201D106270FE02B4FA0
:10234000B84201D107270AE0294FB84201D1082736
:1023500005E0284FB84201D1092700E00A27AF4025
:1023600027437546C6F808784E68DEF80040F60345
:1023700024EA030400D51C43124E2C60361D4D6820
:102380003468AD0324EA030400D51C430D4F3460C8
:1023900008374D683C68ED0224EA030400D51C436D
:1023A000084D3C600C354E682C68B60224EA0304E4
:1023B00000D51C432C60521C102AFFF43DAFBDE831
:1023C000F88F0000003C01404438024000300140DA
:1023D000000002400004024000080240000C0240DD
:1023E000001002400014024000180240001C02408D
:1023F00000200240002402400AB1816170470904B4
:10240000FBE700000148006870470000040001205D
:1024100010B5040014D0242084F84100206801681D
:1024200021F001010160204600F0CEF90020606437
:1024300084F84100206384F8420084F8400010BD15
:10244000012010BD70B5040004D094F841000025AF
:1024500010B106E0012070BD204684F8405000F025
:10246000B4F9242084F841002068016821F00101BA
:102470000160D4E9001020F0706008612068816874
:1024800021F400418160A06830B1E1680129216830
:1024900006D040F404408860E068022803D006E0DB
:1024A00040F40040F7E721684FF4006048602021C5
:1024B00020680F4A43681343436054F8106B0DCCF7
:1024C000104340EA0320F06054F81C3CD4E90002B9
:1024D0001043186054F81C0D026842F001020260BB
:1024E000656484F84110256384F84250002070BD73
:1024F000008000022DE9FF4F83B0044690F84100B0
:102500009A469346DDE91087DDF84890202875D17A
:102510005FEA080073D0002F71D094F840000128C2
:102520006CD0012084F84000FFF76CFF01220646C2
:1025300019230090D103204601F05AFC002875D1E0
:102540000025C4F82480222184F84110402084F81A
:10255000420065646785534665635A460499204680
:10256000CDE9009601F0C4FB28B1606C84F84050BE
:1025700004285FD05AE0618DFF274FF41050FF29E7
:102580004FF080784FF0007A04D927853A464346C9
:10259000009005E0618D53462185009094F8282035
:1025A0002046049901F012FC00224B4604212046EB
:1025B000009601F01DFCC8BB2168606A496A421C94
:1025C00062620170208D401E0004000C2085618D28
:1025D000A1F1010161851DD1608DD8B100224B466A
:1025E00080212046009601F003FCF8B9608DFF2899
:1025F00006D927853A464346009507E02CE019E0C6
:10260000608D53462085009594F828202046049933
:1026100001F0DCFB608D0028C6D1324649462046D9
:1026200001F00FFC40B1606C042803D0032007B018
:10263000BDE8F08F0120FAE720682021074AC16138
:10264000206843681340436084F8411084F8425086
:10265000002084F84050EAE70220E8E700E800FEA6
:102660002DE9FF4F83B0044690F841009A46934607
:10267000DDE91087DDF84890202870D15FEA080076
:102680006ED0002F6CD094F84000012867D0012054
:1026900084F84000FFF7B6FE012206461923009099
:1026A000D103204601F0A4FB002854D10025C4F832
:1026B0002480212184F84110402084F84200656480
:1026C0006785534665635A4604992046CDE90096CE
:1026D00001F045FB28B1606C84F8405004286CD0B0
:1026E00039E0608DFF274FF08078FF284FF0007AA7
:1026F00004D927853A464346009505E0608D534648
:102700002085009594F828202046049901F05EFB6E
:1027100032464946204601F0BCFB18B1606C0428E3
:102720004BD018E0606A411C6162216800788862C1
:10273000608D401E6085208D401E0004000C2085A9
:1027400021D1608DF8B100224B46802120460096B1
:1027500001F04EFB28B1032007B0BDE8F08F2EE05A
:102760002BE0608DFF2804D927853A464346009523
:1027700005E0608D53462085009594F8282020467A
:10278000049901F023FB608D0028C1D132464946EF
:10279000204601F056FB0028C0D120682021094ABC
:1027A000C161206843681340436084F8411084F895
:1027B0004250002084F84050CEE70120CCE70220B0
:1027C000CAE7000000E800FE704770470248016851
:1027D000491C01607047000004000120084910B541
:1027E00004464FF47A700968B1FBF0F001F08AF901
:1027F00000222146501E00F0DDF8002010BD000030
:10280000000001202DE9F041044690F8A000164692
:102810000F4601281DD0012584F8A050022084F81D
:10282000A10006EB860000EBC600342204EB80001A
:102830003830FDF7E5FC32463946204602F0EAF82A
:10284000216800204D6284F8A15084F8A000BDE802
:10285000F0810220FBE700002DE9F041040004D0E4
:1028600094F8A100002518B107E00120BDE8F0812F
:10287000204684F8A05000F06FF83648022184F812
:10288000A110012202CC8B6923F070438B6194E884
:102890004A001943E3681E4354F8043D31439E69DE
:1028A0003143996121688B6803408B602168A68A57
:1028B000A7698B683B4343EA06438B602168CB687A
:1028C0000340CB602168A38B276ACE683E4346EA6B
:1028D0000346CE6021680B6903400B612168A68C1A
:1028E000A76A0B693B4343EA06430B6121684B69C6
:1028F00003404B612168A38D266B4869304340EA51
:1029000003404861236894F8351094F83600DE6A75
:10291000000406F07F46DE62236840EA012094F856
:102920003460D96A31430143D9622068416B41F078
:10293000040141632068416B41F00201416320685A
:10294000816941F001018161C4F8A45084F8A1209B
:1029500000208BE700F800F0704770B5044690F84F
:10296000A0000B46012818D002EB820000EBC20148
:10297000012584F8A050022084F8A10004EB810115
:102980002046CB64383102F045F8216800204D62C2
:1029900084F8A15084F8A00070BD022070BD4109E8
:1029A00000F01F028900012001F1E0219040C1F8F0
:1029B000000170470E4BF0B41B680D46C3F30223B1
:1029C000C3F10706042E00D90426191D072901D2D8
:1029D000002300E0DB1E012404FA06F19C40491E9E
:1029E0002940641E994014402143F0BC02F054B9C0
:1029F0000CED00E01848F8B5016841F08051016025
:102A00000068164C00F080500090206840F4803040
:102A10002060FFF7F7FC4FF47A76054605E000BF2B
:102A2000FFF7F0FC401BB0420FD86068C003F7D539
:102A3000206840F400302060FFF7E4FC054606E023
:102A4000FFF7E0FC401BB04201D90320F8BD6068ED
:102A50008003F5D50020F8BD4038024000700040EA
:102A6000F8B500250446FFF7CDFC064694F839007A
:102A7000800731D5002084F83800206801684907B4
:102A80000BD5016821F004010160606BFFF7BAF912
:102A900018B1E06B40F00400E0632068016841F089
:102AA00002010160206C0122022133460090204681
:102AB00002F070FD05000FD121680220C8600022DD
:102AC000206C202133460090204602F063FD050073
:102AD00002D1012084F839002846F8BD2DE9F84FCD
:102AE0001E4615468A460446FFF78CFC814694F83C
:102AF000380001280ED001274FF0000884F8387004
:102B000094F83900012807D05FF0020084F838807B
:102B1000BDE8F88F0220FBE74221C4F83C8084F82E
:102B20003910002220214B462046009602F032FD4B
:102B30000028EBD1216828688862216868684862AB
:102B40002168A868C86220682969026822F44002E6
:102B500042F4800211430160E9684FF000622046B0
:102B6000CAF82810514602F083FB01224B46082187
:102B70002046009602F00EFD0028C7D122680821E9
:102B8000D16084F83970C1E72DE9F84F17468B46BC
:102B90000446FFF737FC824694F8380001280ED02F
:102BA00001264FF0000884F8386094F839000128B5
:102BB00007D0022584F838802846BDE8F88F022027
:102BC000FBE74FF00209C4F83C8084F839900022FA
:102BD000202153462046009702F0DCFC0500E9D195
:102BE00000225946204602F043FBDBF8240058B986
:102BF0000122534602212046009702F0CBFC05003B
:102C0000D8D12168C1F80C9084F83960D2E700006F
:102C1000F8B50446FFF7F6FB07465CB194F83800B8
:102C2000012809D0012684F83860002594F839007D
:102C300020B10BE00120F8BD0220F8BD84F8385027
:102C4000204600F045F841F28830206420686FF09B
:102C5000FF03A168026803EB012322F4F851194332
:102C60000160206C002220213B460090204602F0AB
:102C700091FC30BB2268D4E9077C94F804E0E16859
:102C800013683943104F4CEA0E6EDFF840C03B40EA
:102C900041EA0E01194311602168D4E90527B4F80F
:102CA00010E04B683A4303EA0C0343EA0E431A432D
:102CB0004A6021680A6842F001020A60E56384F80C
:102CC000396084F83850F8BD2FFFFF00FEF8E0FFB0
:102CD00070472DE9F84F15460F460446FFF792FB63
:102CE00082462068816994F8383000F12009012B70
:102CF0000DD001264FF0000884F8386094F8392090
:102D0000012A06D0022084F83880BDE8F88F02201E
:102D1000FBE7C4F83C80B7B3222284F8392002696B
:102D2000521C62860269521C2286E762426922F0C6
:102D3000406242F080624261206881610DE00621BC
:102D4000204602F027FCD8B999F80020E06A411C1F
:102D5000E1620270608E401E6086608E53464FF0C6
:102D6000010200950028EAD14FF00201204602F04E
:102D700011FC28B921680220C8602046FFF770FEC8
:102D800084F83960BFE7FFE7E16B012041F00801FB
:102D9000E163B8E72DE9F84F15460F460446FFF703
:102DA00031FB94F8381082462068012900F120098F
:102DB0000ED001264FF0000884F8386094F83910DE
:102DC000012907D05FF0020084F83880BDE8F88F51
:102DD0000220FBE7C4F83C8097B3122184F8391035
:102DE0000169491C61850169491C21856762416946
:102DF00021F0406141610DE00421204602F0CAFB50
:102E0000D8B9606A411C6162017889F80010608D50
:102E1000401E6085608D53464FF0010200950028EA
:102E2000EAD14FF00201204602F0B4FB28B9216834
:102E30000220C8602046FFF713FE84F83960C3E71C
:102E4000FFE7E16B012041F00801E163BCE700000E
:102E50002DE9F84F04460078DFF828844FF000068B
:102E60003546C0070ED0D8F8001021F40001C8F88C
:102E70000010D8F80010626B1143C8F80010606BA6
:102E800000B901262068000310D5FE48E26B8430AB
:102E9000016821F4401111430160E06BB0F5801F1F
:102EA00001D010B102E0012600E001252068C00237
:102EB00010D5F448226C8430016821F4400111439C
:102EC0000160206CB0F5800F01D010B102E0012646
:102ED00000E001252068C10100D50126800659D5F2
:102EE000E8483830016841F0805101600068DFF83F
:102EF000989300F080500090D9F8001041F4807150
:102F0000C9F80010FFF77EFA074604E0FFF77AFAE7
:102F1000C01B64287ED8D9F80000C005F6D5D94F6B
:102F20006837386810F4407023D0218E01F4407166
:102F300081421ED03868396820F4407041F48031F5
:102F40003960396821F48031396038603868C007E9
:102F50000FD0FFF757FA814641F2883A06E000BFEA
:102F6000FFF750FAA0EB09015145D3D83868800724
:102F7000F6D5206BC0F3012103297CD0D8F80010CE
:102F800021F4F811C8F80010218E3868C1F30B0144
:102F9000084338602078C00609D5BA4884300168F3
:102FA00021F0807101600168A26B114301602188EA
:102FB000B4488830490405D5626E016821F4403177
:102FC000114301602188090405D5A26E016821F42E
:102FD0004021114301602168C90305D5E26E0168F3
:102FE00021F44011114301602168890305D5226F46
:102FF000016821F44001114301602178490605D59B
:10300000626C016821F00301114301602178090617
:1030100007D500E001E1A26C016821F00C01114329
:1030200001602188C90505D5E26C016821F03001F5
:10303000114301602188890505D5226D016821F0C1
:10304000C001114301602188490505D5626D016801
:1030500021F44071114301602188090505D5A26D55
:10306000016821F44061114301602188C90407D53A
:10307000E26D016800E023E021F44051114301605A
:103080002188890405D5226E016821F4404111434D
:1030900001602168490205D5A26F016821F08061B5
:1030A000114301602168890215D5E26F016821F0A2
:1030B000006111430160E16FB1F1006F0AD00AE0D5
:1030C000724AD8F80030104023F4F8120243C8F8CE
:1030D000002059E7012521680A0700D50125490389
:1030E00005D5626F016821F04071114301602168CC
:1030F000090206D5D4F88020016821F080511143DF
:103100000160012E4FF4403B4FF070694FF0E04AF0
:1031100003D02068B0F1007F7ED15A4E083E30685F
:1031200020F080603060FFF76DF9074605E000BFD2
:10313000FFF768F9C01B64286FD852480838006848
:103140000001F5D42078DFF83CE1C0070EF17C0ED9
:1031500033D0606B88BBDEF800209BFAABF7DEF85B
:10316000000099FAA9FCB7FA87F847F6C07602F48E
:103170004032616896FAA6F722FA08F2BCFA8CF897
:10318000B7FA87FC9BFAABF600F0706001FA0CF11D
:10319000B6FA86F699FAA9F720FA08F0B2409AFA38
:1031A000AAFCA668B7FA87F71143B840BCFA8CF2BC
:1031B000014396403143CEF800102068010303D547
:1031C000E16BB1F5801F05D0C00241D5206CB0F590
:1031D000800F3DD1DEF800009BFAABF7DEF800303F
:1031E00047F6C07600F44030B7FA87FC616896FA7B
:1031F000A6F620FA0CF099FAA9FC9BFAABF7BCFAF8
:103200008CF8B6FA86F69AFAAAFCB7FA87F7B140B4
:10321000B840BCFA8CFC01E08CE006E1E6689AFA62
:10322000AAF203F0E043B2FA82F7164A06FA08F669
:1032300023FA0CF301438432BB4031431943CEF8E7
:1032400000101068616A20F01F00491E08431060DA
:103250002068C00139D5DEF8001099FAA9F0DEF82F
:10326000003047F6C0769AFAAAFC9BFAABF796FABA
:10327000A6F601F07061BCFA8CFCB7FA87F7B0FAD9
:1032800080F005E00838024000700040FFFCFF0FAE
:10329000C1400091B6FA86F8216999FAA9F66068EA
:1032A00003F0E042B6FA86F6B94000FA08F00843A7
:1032B00000999AFAAAF722FA0CF2B140B7FA87F607
:1032C0000843B2401043CEF800002068800120D5AA
:1032D00047F6C07004F1080190FAA0F260689BFA0A
:1032E000ABFCB2FA82F346C9BCFA8CFC984099FA5E
:1032F000A9F806FA0CF69AFAAAF7B8FA88FC30434D
:1033000002FA0CF2B7FA87F61043B1400843CEF840
:1033100000007B4E306840F080603060FFF772F84C
:10332000074604E0FFF76EF8C01B64287DD83068BC
:103330000001F7D5002D79D0714D286820F080501C
:103340002860FFF75FF8064605E000BFFFF75AF870
:10335000801B642869D86A480068C0438000F5D59E
:103360006748216888300A0301D5E26B1AB1C902A7
:103370003CD5216CD1BB02689BFAABF647F6C07115
:10338000B6FA86F7066802F4403291FAA1FC616948
:10339000FA4099FAA9F7BCFA8CFC9BFAABF501FA52
:1033A0000CF1B7FA87F89AFAAAF7B5FA85FCA5697D
:1033B00006F0E04602FA0CF2B7FA87F79AFAAAF397
:1033C000FE4011434E4A05FA08F5B3FA83F38C32F6
:1033D0009E402943314301606FF0FF071168A36AE3
:1033E00021F4F85107EB0323194311602168890286
:1033F00035D5E16FB1F1006F31D1016899FAA9F2C9
:10340000056847F6C07601F0706196FAA6F7B2FA41
:1034100082F29AFAAAF69BFAABFC21FA02F8216A28
:10342000B6FA86F6BCFA8CFC01E060E066E0626900
:10343000B7FA87F701FA0CF199FAA9FCBA4005F03E
:10344000E0459AFAAAF3BCFA8CF7F5400A4308FA69
:1034500007F1B3FA83F30A439D402A4302602178BF
:10346000090736D5016802689BFAABF799FAA9FCFF
:1034700047F6C07302F44032214DB7FA87F893FA49
:10348000A3F7636922FA08F2BCFA8CF8B7FA87FC52
:103490009BFAABF601F0706103FA0CF3B6FA86F60C
:1034A00021FA08F199FAA9F7B2409AFAAAFCE6695A
:1034B000B7FA87F78C351343B940BCFA8CF20B434B
:1034C0009640334303602868E16A20F440300843A3
:1034D00028600B4C206840F080502060FEF792FF7F
:1034E000054607E0FEF78EFF401B642802D9032043
:1034F000BDE8F88F2068C0438000F3D40020F7E7D0
:10350000003802402DE9F047DFF84C8105460E46B1
:10351000D8F8000000F00F00B0420CD2D8F800102C
:1035200021F00F013143C8F80010D8F8000000F076
:103530000F00B04265D12878484C800705D5A968AE
:10354000206820F0F000084320602878C00747D0AA
:10355000424968680839012816D00968022816D03F
:10356000890700294DDA216821F003010143216018
:10357000FEF748FF6968074641F2883001290FD0FD
:103580000229814619D027E009688903E9E7890102
:10359000E7E700BFFEF736FFC11B494501D918E038
:1035A00081462068C0F381000128F3D118E000BFF4
:1035B000FEF728FFC11B49450BD82068C0F38100E6
:1035C0000228F5D10CE000BFFEF71CFFC11B4945E6
:1035D00002D90320BDE8F087206810F00C0FF3D16A
:1035E000D8F80010404601F00F01B1420BD9016834
:1035F00021F00F0131430160006800F00F00B0427C
:1036000001D00120E6E72878400705D5E968206861
:1036100020F4E050084320602878000706D5286988
:10362000216821F4604141EAC000206000F04CF8BC
:103630002168F02292FAA2F201F0F001B2FA82F2CD
:10364000D140074A515CC840064908600020FFF796
:10365000C5F80020BEE70000003C024008380240E8
:10366000F47200080000012008484FF4E05201689D
:1036700092FAA2F2064801F4E051B2FA82F2D14085
:10368000044A0068515CC840704700000838024096
:10369000000001200473000808484FF460420168EC
:1036A00092FAA2F2064801F46041B2FA82F2D140E5
:1036B000044A0068515CC840704700000838024066
:1036C00000000120047300081D4930B51D48096839
:1036D00011F00C011AD01C4B042916D0082915D161
:1036E000174947F6C072091F0C680D6804F03F04C3
:1036F0006D020CD50D68B3FBF4F092FAA2F31540FD
:10370000B3FA83F2D54068430BE0184630BD0B682E
:10371000B0FBF4F092FAA2F41340B4FA84F2D3406E
:10372000584309684FF4403292FAA2F201F4403152
:10373000B2FA82F2D140491C4900B0FBF1F030BD31
:10374000083802400024F40040787D012DE9F84F4C
:10375000C44F05460078A7F10408A8F10404C00787
:103760004AD03868C0F38100012808D03868C0F317
:10377000810002280AD1D8F80000400206D520684E
:10378000800339D56868002875D035E06868B0F5E1
:10379000803F0BD010B1B0F5A02F11D0206820F4DD
:1037A00080302060206820F4802002E0206840F40F
:1037B00080302060686890B1FEF724FE06460AE07B
:1037C000206840F480202060F0E700BFFEF71AFE7A
:1037D000801B642874D820688003F7D50CE0FEF7BE
:1037E00011FE064605E000BFFEF70CFE801B6428B4
:1037F000F0D820688003F7D42878800744D538684B
:103800004FF0F80910F00C0F08D03868C0F38100B1
:1038100002280AD1D8F80000400206D420688007A8
:1038200016D5E868012826D112E0E868002820684B
:103830001AD040F001002060FEF7E4FD064604E0E7
:10384000FEF7E0FD801B0228C4D820688007F7D56A
:103850002869226899FAA9F1B1FA81F1884022F029
:10386000F801014321600FE020F001002060FEF725
:10387000C9FD064605E0F2E0FEF7C4FD801B022804
:103880001ED820688007F7D42878000729D5754806
:1038900069696C3000298146016812D041F001014C
:1038A0000160FEF7AFFD064605E000BFFEF7AAFD8A
:1038B000801B022804D8D9F800008007F6D510E054
:1038C0007EE021F001010160FEF79CFD064604E068
:1038D000FEF798FD801B022872D8D9F800008007F7
:1038E000F6D42878400756D55E483830016841F054
:1038F000805101600068DFF8709100F08050009006
:10390000D9F8001041F48071C9F80010FEF77AFD73
:10391000064604E0FEF776FD801B642850D8D9F8EF
:103920000000C005F6D54F4EA868683601280AD0B9
:1039300008B1052813D0306820F0010030603068ED
:1039400020F0040002E0306840F001003060A86818
:1039500041F2883A90B1FEF755FD81460AE03068A1
:1039600040F004003060EEE7FEF74CFDA0EB0901EB
:1039700051456CD830688007F6D50CE0FEF742FD63
:10398000814605E0FEF73EFDA0EB090151455ED8FA
:1039900030688007F6D4A869F0B33968C1F38101B3
:1039A00002295CD00228206820F08070206003D0BB
:1039B000FEF728FD05464DE0FEF724FD064606E02D
:1039C00045E000BFFEF71EFD801B02283FD820689F
:1039D0008001F7D447F6C0704FF0FF36D5E90913E0
:1039E00090FAA0F24FF44037B2FA82F297FAA7F7B2
:1039F00006EB53039140D5E907064FF0706CEA6A75
:103A0000B7FA87F79CFAACF5BB4019433043B5FAD7
:103A100085F308439A4000E01FE01043C8F8000017
:103A2000206840F080702060FEF7ECFC054604E062
:103A3000FEF7E8FC401B022809D820688001F7D572
:103A40000BE000BFFEF7DEFC401B022802D903207A
:103A5000BDE8F88F20688001F4D40020F8E7012049
:103A6000F6E70000083802400070004070B504001E
:103A70000D4603D094F82C0010B107E0012070BD72
:103A8000002084F82D00204600F011F8022084F870
:103A90002C002068211DFDF7E1F9D4E90002294638
:103AA000FDF736FA012084F82C00002070BD704725
:103AB00010B5044690F82C00022809D0022084F8A2
:103AC0002C002068FDF7F9F9012084F82C00002073
:103AD00010BD000070B5044690F82C000D46022879
:103AE0000DD0022084F82C002068FDF7ECF928683E
:103AF000022805D05FF0010084F82C00002070BD82
:103B00000520F9E7401EB0F1807F10B501D30120F8
:103B100010BD4FF0E02460610F21601701F0BCF888
:103B20000020A0610721216110BD10B5040003D061
:103B300094F8690010B107E0012010BD002084F85E
:103B40006800204600F026F8242084F869002068E8
:103B5000016821F001010160204602F011F90128FD
:103B6000EBD0606A10B1204602F078F82068416816
:103B700021F4904141602068816821F02A01816030
:103B80002068016841F0010101602046BDE8104055
:103B900002F0C8B8704700002DE9F843044690F8D9
:103BA00069001F4616460D4620284ED135B32EB368
:103BB00094F86800012848D0012284F86820212167
:103BC0004FF00008C4F86C8084F869105034FEF798
:103BD00019FC268081466680B4F150044FF480566B
:103BE0004B460022B4F852008021401EA4F8520037
:103BF0002046009702F0F0F9C0B902E00120BDE8CC
:103C0000F883A068B04201D1206988B115F8010B92
:103C100021688862B4F852000028E1D100224B46A6
:103C200040212046009702F0D7F938B10320E6E79B
:103C300035F8020B2168C0F30800EAE7202184F878
:103C40006910002084F86880D9E70220D7E7FEE7F2
:103C500001688A69D243920701D400228A6200680F
:103C60008169C943C90703D0816941F001018161BC
:103C7000704700002DE9F0410446006890460E466A
:103C80008069C043C0062FD40025202720688069A2
:103C9000C043800611D5701CF8D02EB1FEF7B2FBE0
:103CA000A0EB0800B042F1D984F8417084F842508A
:103CB000032084F84050BDE8F08121681020C861DD
:103CC0002068C7612046FFF7C3FF20680422074928
:103CD00043680B404360626484F8417084F842504A
:103CE000012084F84050E6E70020E4E700E800FE09
:103CF0002DE9F843174604464FF400501E46DAB249
:103D0000009000232046DDE9089800F05FF8424665
:103D10004946204600F0BDF818B1606C04281CD05C
:103D200018E0012EFDB209D02068390A81624246AE
:103D30004946204600F0ADF80028EED120688562A3
:103D4000002240214B462046CDF8008000F050F87C
:103D5000002800D00320BDE8F8830120FBE72DE90F
:103D6000F843044617464FF400501E46DAB200905E
:103D7000C3022046DDE9089800F028F8424649468B
:103D8000204600F086F818B1606C04281CD018E0BA
:103D9000012EFDB209D02068390A816242464946A7
:103DA000204600F076F80028EED1206885620022D7
:103DB00080214B462046CDF8008000F019F80028FD
:103DC00000D00320BDE8F8830120FBE730B5C1F344
:103DD0000901064D41EA02410268039C19435068FB
:103DE000214328400143516030BD0000009800FC91
:103DF0002DE9F0411D4617460E460446DDF81880B1
:103E000013E0681C11D02DB1FEF7FCFAA0EB0800FE
:103E1000A8420AD90020202184F8411084F84200E9
:103E200084F840000320BDE8F0812068806936EA0C
:103E3000000004D00020B842E3D00020F3E70120C6
:103E4000F9E770B516460D4604461BE03246294692
:103E50002046FFF70FFF08B1012070BD25B1FEF726
:103E6000D1FA801BA8420DD9626C002084F8400072
:103E7000202142F02002626484F8411084F842005C
:103E8000032070BD20688069C0438006DED4002016
:103E900070BD70B516460D4604461DE032462946F3
:103EA0002046FFF7E7FE08B1012070BD681C13D063
:103EB00025B1FEF7A7FA801BA8420DD9626C00203D
:103EC00084F84000202142F02002626484F841100E
:103ED00084F84200032070BD20688069C0438007D9
:103EE000DCD4002070BD10B5FEF792FABDE810409A
:103EF00001F054B81CB5044600F00EFC034600F077
:103F0000FBFB02460020CDE900040648064C406851
:103F100000EB800101EBC00104EB8101C96D00F0F1
:103F200039FD1CBD20000120DC0101202DE9F041FC
:103F3000144E0024144D4FF44877804615E000BF1E
:103F400000F0CCFBC088202200FB08F081B22046A4
:103F500000F08CF8706800EB400005EB8000806892
:103F60008088204484B2BC420AD2706800EB4000D2
:103F700005EB800080688088011989B28142DFD218
:103F8000BDE8F08120000120C40201202DE9F047A6
:103F9000344F92B0344E7B6803EB830404EBC303CD
:103FA00006EB83039B6C022B31D04FF4486300BFB8
:103FB00000FB03F50C4611466846FCF7EFFF7868F6
:103FC0000021DFF8A490EA4600EB800300EB4002FA
:103FD00003EBC00009F1E80906EB800001EB4107A3
:103FE00007EB0A0600231AF807C07778B67847EA85
:103FF0000C2746EA07263702876C12D5022F09D014
:1040000059F8227005EB8408D0F85CC012E04FF438
:10401000C863CDE739F8227005EB4408D0F85CC0DE
:104020001CE0D0F85CC0022F09EB820713D07F6838
:1040300005EB84084CF808705B1C7600641CDBB24E
:10404000182BD8D3491CC9B2182904F54274C5D31A
:1040500012B0BDE8F087BF8805EB44082CF8087063
:10406000EAE7000020000120DC01012030B40A4C06
:104070000A4B646804EB440403EB84039B689C884C
:104080001D68E41DDB88E408203A14FB02F203FB00
:10409000025230BCFCF71ABE20000120C4020120ED
:1040A000094810B50068816941F001018161074C40
:1040B000012210212046FEF79FF901222046BDE88B
:1040C00010408021FEF798B9DC010120000C02406D
:1040D0002DE9F041204E0024204F0D4680462AE075
:1040E0007E2814D800F0FAFAC0882A7800FB08F07D
:1040F00081B22046FFF7BAFF70686D1C00EB4000EC
:1041000007EB800080688088204484B210E0288813
:10411000010201EB102082B200F0E0FAC0882146D3
:1041200000FB08F080B2FFF731FF1834A4B2AD1CD9
:10413000B4F5487F0DD2287800280AD0716801EBC9
:10414000410107EB8101896889880A1992B28A4284
:10415000C6D2BDE8F081000020000120C402012089
:104160007CB51C4B06460D461B4C586800EB800185
:1041700001EBC00004EB8000806C02281BD000F033
:10418000BBFA596800FB056001EB810505EBC10135
:1041900004EB8101C96D01EB800158680E4D0024CC
:1041A000E83500EB400355F82330CDE90043012307
:1041B00000F0F0FB7CBD00F09FFA596800FB056041
:1041C00001EB810505EBC10104EB8101C96D01EB38
:1041D0004001E2E720000120DC010120164B70B510
:1041E00006460D465868154C00EB800101EBC000F7
:1041F00004EB8000806C02280ED000F07DFA596834
:1042000005FB006001EB810303EBC10104EB8101BD
:10421000C96D41F8202070BD00F06EFA596805FBA9
:10422000006001EB810303EBC10104EB8101C96D67
:1042300021F8102070BD000020000120DC010120C9
:104240002DE9F0411C4616460D460746FFF788FF4C
:104250002819324681B23846FFF782FF22462946A6
:10426000384600F009F8B81922462946BDE8F04161
:1042700080B200F001B800007CB51F4C05460B462B
:104280001E4E606800EB800101EBC00006EB800071
:10429000806C022821D000F02FFA616800FB0350E7
:1042A00001EB810303EBC10106EB8101C96D01EB59
:1042B000800500BF00F020FA6468401E0F4BE83311
:1042C00004EB440153F8211013460122CDE900010B
:1042D0002946204600F05EFB7CBD00F00DFA6168C7
:1042E00000FB035001EB810303EBC10106EB8101ED
:1042F000C96D01EB4005DDE720000120DC01012054
:104300002DE9F04FEB4887B0016841F08001016072
:10431000016801F080010591016841F080010160B0
:10432000016801F080010591016841F080010160A0
:10433000016801F080010591016841F0020101600E
:10434000016801F002010591016841F0010101607D
:10435000016801F001010591016841F0010101606E
:10436000016801F001010591016841F0020101605D
:10437000016801F002010591016841F0400101600E
:10438000016801F040010591016841F010010160F0
:10439000016801F010010591016841F01001016010
:1043A000016801F010010591016841F08001016090
:1043B000016801F080010591016841F04001016050
:1043C000016801F040010591016841F04001016080
:1043D000016801F040010591016841F480710160BC
:1043E000016801F480710591016841F004010160E8
:1043F000016801F004010591016841F480710160D8
:10440000016801F480710591016841F010010160BB
:10441000016801F010010591016841F0400101605F
:10442000016801F040010591016841F00801016057
:10443000016801F008010591016841F0080101607F
:10444000016801F008010591016841F48071016083
:10445000016801F480710591016841F0010101607A
:10446000016801F001010591016841F0020101605C
:10447000016801F002010591016841F0020101604B
:10448000016801F002010591016841F040010160FD
:10449000016801F040010591016841F480710160FB
:1044A000016801F480710591016841F48071016037
:1044B000016801F480710591016841F020010160FB
:1044C000016801F020010591016841F008010160D7
:1044D000016801F008010591016841F008010160DF
:1044E0000068012102254FF0040800F00800CDF813
:1044F000008003950E24CDE90151CDE904406E48BA
:104500006946FDF78DFE082000906B4869460494CB
:10451000FDF786FEE8010090674869460494FDF7C0
:104520007FFE012000906548092669460496FDF744
:1045300077FEA8020090624869460494FDF770FE79
:104540005F484FF4805A6946CDF800A00494FDF707
:1045500067FE5A48694604960095FDF761FE594882
:104560004027694600970494FDF75AFEDFF858B1DA
:1045700020206946049400905846FDF751FE694694
:10458000584600970494FDF74BFE280300904A48D4
:1045900069460494FDF744FE4A484FF48069694631
:1045A000CDF800900496FDF73BFEA803009042482A
:1045B00069460494FDF734FE0120009043486946A3
:1045C0000494FDF72DFE4248802669460096049427
:1045D000FDF726FE3D486946CDF800800494FDF7BE
:1045E0001FFE4FF0100869465846CDF8008004942D
:1045F000FDF716FE33486946CDF800A00494FDF798
:104600000FFEDFF8D0A06946009750460494FDF7EE
:1046100007FEA80200902B4869460494FDF700FEAF
:104620002A486946CDF800800494FDF7F9FD08207A
:104630000090234869460494FDF7F2FDE8010090DC
:104640001E4869460494FDF7EBFD1C482F0269469D
:1046500000970494FDF7E4FD1A4869460096049417
:10466000FDF7DEFD19486946CDF800900494FDF78A
:10467000D7FD1648694600970494FDF7D1FD16480A
:104680006946CDF800900494FDF7CAFD01A8CDF865
:10469000008001210A4680E8260069465046FDF761
:1046A000BFFD694650460096FDF7BAFD07B0BDE86C
:1046B000F08F000030380240001C0240000402402D
:1046C000000002400018024000100240002002409A
:1046D00000080240000C0240001402400448054952
:1046E000406800EB400001EB8000806870470000EC
:1046F00020000120C40201200548406800EB800131
:1047000001EBC000034901EB8000006E7047000020
:1047100020000120DC0101200548406800EB8001F9
:1047200001EBC000034901EB8000406E70470000C0
:1047300020000120DC0101202B48F0B50168A3B066
:1047400041F080610160006800F08060219026489F
:104750001438016841F40001016000682E21244CE6
:10476000002500F400002190204840F2F71617229F
:1047700040F26237206040F20D20656140F24E3316
:10478000C4E9065122624FF0640EC4E90B70C4E91B
:104790000936CDF814E005214FF480324FF0080CB3
:1047A0006846CDF800C00B920791FEF751FB4FF41D
:1047B000F0714FF44870C4E9180184F8365020466F
:1047C00084F8355084F834506560A560E560256153
:1047D000FEF742F8FFF794FD01F080F9054800F07C
:1047E00065F823B0F0BD0000443802400068014085
:1047F000DC0101202800012070B58EB00D46002399
:1048000004460093FFF778FFCDE90103FFF784FF2B
:10481000FF21039007208DF8303009954FF4C066D2
:104820008DF83130CDE9042106938DF83230CDE991
:104830000760FFF761FF0A90FFF76EFF0B902246BB
:1048400009486946FDF7DEFF074904EB44004FF0D5
:10485000FF34E83101EB800223065460034C94607E
:1048600041F820300EB070BDDC010120280001208D
:104870000149486070470000200001200449054AB2
:10488000496801EB410102EB81014860704700007B
:1048900020000120C40201200B4600B500F014F8EE
:1048A0005DF804EB1846FFF7E9BF00000449054A2C
:1048B000496801EB410102EB81018860704700000B
:1048C00020000120C40201200349044A496801EB89
:1048D000410142F82100704720000120C40201205C
:1048E00002460148FEF739B8DC0101202648F0B540
:1048F000016887B041F080010160016801F080012A
:104900000591016841F080010160016801F08001BA
:104910000591016841F080010160016801F08001AA
:104920000591016841F00801016000680321174FFB
:104930004FF4806500F0080005900120CDE90201E8
:104940006946CDE900503846FDF76AFC6C006946BF
:1049500038460094FDF764FC6600694638460096C8
:10496000FDF75EFC0A4F694600943846FDF758FC97
:10497000064818300560046006600022214638466B
:10498000FDF73AFD07B0F0BD30380240001C024090
:10499000000C02402DE9F84307461B480E46154619
:1049A000DDE908184FF440321C464260174A52684D
:1049B00002EB820303EBC202A0F1A80303EB820225
:1049C000926C022A00D000228260114A0260C1600B
:1049D0000D48FCF779FC002814D10B483946FCF748
:1049E00017FC00280ED108482B4632464146009459
:1049F000FCF71EFD002805D1BDE8F84302480A2156
:104A0000FCF790BCBDE8F88384020120200001205F
:104A100000B002402DE9FE4F81460068882493468D
:104A20008D888C2204EBCB178A46C3689421BE463E
:104A3000C459C3F30B432B4404F470441F0401977F
:104A400002EBCB1240F80E4001EBCB13DAF800700A
:104A50009C214FF0AC0C01EBCB1440F2077102919A
:104A60000CEBCB11D9F800C098250020CDF800C080
:104A7000A02605EBCB15DCF80CC006EBCB16CCF36F
:104A80000B4C0CF1010C07EB0C08DDF800C0019F8A
:104A900048EA07084CF80E80D9F80070BAF80CC044
:104AA000B846FF68C7F30A0767444FEA074E58F84D
:104AB000027007F4704C48F802C0D9F800C0DAF868
:104AC0000870DCF80C80C8F30A0808F10108B84443
:104AD00048EA0E084CF80280D9F80020D75827F091
:104AE0000707D750D9F80070DAF81020FA509AF872
:104AF00031209AF818304FEA022C9AF8322012042A
:104B000042EA0362D9F800301F5918519AF8303040
:104B100043EA0C031343D9F800201351D9F80020BD
:104B2000535923F0FF035351D9F80020DAF8143019
:104B30005351D9F800209359029CA3439351D9F8BB
:104B40000030DAE9072422439A51D9F8002053585B
:104B50005050D9F80020DAF824005050DAF810004C
:104B6000C8B301283AD004283AD0022838D0032804
:104B700036D0072834D00120D9F80030B02505EB15
:104B8000CB11B42284245D5802EBCB1205F0E02552
:104B90005D50DAE9003504EBCB14EB1ABAF8285073
:104BA00043434543D9F80000DB1C43EA0543435027
:104BB000D9F8000081586FF30A018150D9F800003C
:104BC000DAF82C108150D9F80000015941F00101A8
:104BD0000151BDE8FE8FFFE70420CDE70320CBE7BE
:104BE0000220C9E72DE9F047DFF8A4A05FF0020337
:104BF00040F21E3703EBC30101EB031102220AEB63
:104C0000811400BF04EB420014F812C0A0F58051DB
:104C100091F8BE5991F8C29905F01F0610F8025C90
:104C2000ED064FEA956890F83E5605F01F052E44B4
:104C300091F8C05905F01F0108EB4101751890F873
:104C400040160CF01F0601F01F0105EB8606857863
:104C500090F8420606EB410109F01F0C05F01F0514
:104C6000614400F01F0001EB45010844561C000997
:104C7000C10241EA8011014324F81210B2B2BA42D3
:104C8000C0D35B1C9BB2B3F5EF7FB3D3BDE8F08715
:104C9000000030D0FEE77047090700284FEA116195
:104CA00006DA00F00F0000F1E02080F8141D7047D4
:104CB00000F1E02080F8001470470000104808B5AB
:104CC000016841F001010160006820220D4B0021C4
:104CD00000F0010000900C480360C0E90112C160BF
:104CE000016141618161FCF7CFF9002205214E206D
:104CF000FDF760FEBDE808404E20FDF750BE000005
:104D000034380240000005506C0301201948F8B502
:104D1000016841F48001016000680021164E4FF0E7
:104D2000007700F48000009014483215930006606C
:104D3000D601C0E90171C0E903120327C0E9086187
:104D4000C0E90A71016300F11401D4009510A0F1CB
:104D5000500281E8380090640521826300223920E6
:104D6000FDF728FE3920FDF71AFEBDE8F84003489C
:104D7000FDF778B93038024028640240BC030120B6
:104D8000F0B5064617480D46144699B0016841F43F
:104D90008001016000684FF0007C4FF0800E00F44D
:104DA0008000189010484FF4005300218DE8015006
:104DB000071542151002CDE9032703220593069338
:104DC000CDE90710CDE9091268460B910C91FDF76A
:104DD00049F923462A4631466846FDF7B3F919B02A
:104DE000F0BD0000303802401064024065482DE9F3
:104DF000F041016886B041F040010160016801F0B6
:104E000040010591016841F480710160016801F47D
:104E100080710591016841F001010160016801F0B4
:104E200001010591016841F001010160016801F093
:104E300001010591016841F080010160016801F004
:104E400080010591016841F080010160016801F075
:104E500080010591016841F080010160016801F065
:104E600080010591016841F080010160016801F055
:104E700080010591016841F080010160016801F045
:104E800080010591016841F008010160016801F0AD
:104E900008010591016841F480710160016801F425
:104EA00080710591016841F48071016000680125FD
:104EB0000221DFF8D48000F48070059020200D24BA
:104EC0008DE8230003226946CDE903244046FDF71F
:104ED000A7F92E4F10206946049400903846FDF73C
:104EE0009FF940266946384600960494FDF798F9E4
:104EF000274F68026946049400903846FDF790F900
:104F0000A8026946049400903846FDF789F9E80242
:104F10006946049400903846FDF782F928036946F3
:104F2000049400903846FDF77BF9A8036946049481
:104F300000903846FDF774F916480827694600972F
:104F40000494FDF76DF96946404600960494FDF718
:104F500067F980206946049400904046FDF760F9A7
:104F60000D4C6946CDE900752046FDF759F9002240
:104F700020460821FDF740FA00F010F806B0BDE821
:104F8000F081000030380240002002400000024062
:104F9000001C0240000C024000180240204870B57E
:104FA00086B0016841F080710160006800F0807097
:104FB00005901B481038016841F008010160016844
:104FC00001F008010591016841F0080101600068E5
:104FD00004250024134E00F008000590A8021221B9
:104FE0008DE8130003226946CDE903253046FDF71D
:104FF00017F9E8026946049500903046FDF710F96C
:105000000A48012308490A4A80E81600C0E9033427
:105010004461C4610462FDF715FA06B070BD00007A
:1050200040380240000C0240006000402003012094
:105030003227919070B5820701D0012070BD8A0798
:1050400001D0022070BD84088D080021FF2000F0EF
:10505000CFF80421E02000F0CBF80021502000F030
:10506000C7F85A20E1B200F0C3F85B20E9B200F0C3
:10507000BFF8042101EA9511C4F3012001435C202B
:1050800000F0B6F80021E02000F0B2F8002070BD7A
:1050900010B501210446FF2000F0AAF81C2000F002
:1050A0004FF820701D2000F04BF860700A2000F0CF
:1050B00047F8A0700B2000F043F8A2780346E07098
:1050C000262A0ED06FF07F410802FFF7E5FB08208B
:1050D00007A1FEF7FDFF11484FF4916100F0B0FF0A
:1050E000FEE7BDE810400EA040F2824100F0A8BFEC
:1050F000202020202020202020C3BBD3D0BCECB215
:10510000E2B5BD4F5632363430A3ACC7EBD6D8D05B
:10511000C2BCECB2E9C1ACBDD3A1A300F0940008BD
:105120003C3C2D43414D4552412D44454255472D70
:105130003E3E205B25645D257825780A000000004E
:105140001FB5002101238DF80C104FF47A7403AAC7
:105150008DE81C00612102460548FDF7CBF910B12E
:105160000348FEF7C0FE9DF80C0004B010BD00001F
:10517000200301200121FF2010B500F039F8802123
:10518000BDE81040122000F033B8000070B5FFF702
:10519000F1FF164C002500BF04EB450114F8150083
:1051A000497800F025F86D1CDE2DF5D35FF0000581
:1051B00004EB450114F81500497800F019F86D1C4E
:1051C000DE2DF5D35FF0000504EB4500417814F8BF
:1051D000150000F00DF86D1CDE2DF5D3BDE8704014
:1051E0004FF4F0714FF44870FFF724BF5C90000853
:1051F00013B584B001224FF47A7305A98DE80E002F
:105200001346024605486021FDF72AFA040002D041
:105210000248FEF768FE06B0204610BD20030120BC
:105220007047000030B595B0012200210524079495
:1052300013061502CDE90D51CDE90F130C91102382
:105240001291940513911491CDE90112CDE9033225
:10525000CDE9051401AA0346044807A9FDF73EFC61
:10526000002800D0012015B030BD0000DC02012074
:105270002DE9F0434B6A4FF040652BB1AA4203D0B1
:1052800004688B6A5B1E23618B69002B68D00C6AF3
:10529000B4B303688C68DC61CC69FCB1D1E90B382C
:1052A000D1F824C04E6B8F8A43EA080346EA0C0605
:1052B00033430E6A43EA8743D1E9037C43EA0C0394
:1052C00033438E693B430F682343046833433B43B6
:1052D00065E0006849688161BDE8F083D1E90B367B
:1052E0004F6A4C6B8D8A33433C430E6923430C6AEF
:1052F00043EA85438D693343096823432B4362E0C6
:10530000FFE7CC69B4F1000918D0D1E90B484F6A26
:105310004E6BB1F814C044EA08043E430F683443AE
:10532000CE6844EA8C44344344EA09041C430368CD
:105330003C431443AA425C61CBD1CDE7D1E90B4693
:105340004F6A4D6BB1F814C034433D4300682C43A1
:10535000096844EA8C441C430C4314434461BBE792
:105360000B6AABB303688C68DC61CC69E4B1D1E94A
:105370000B38D1F824C04E6B8F8A43EA080346EA03
:105380000C0633430E6A43EA8743D1E9037C43EAC0
:105390000C0333438E693B43234304683343134375
:1053A000AA42636195D197E7D1E90B364F6A4C6BFE
:1053B0008D8A33433C430E6923430C6A43EA854399
:1053C00089693343234300680B431343436183E7F5
:1053D000FFE7CC6984B1D1E90B384F6A4E6BB1F865
:1053E00014C043EA08033E433343CE6843EA8C4388
:1053F000334323430468D2E74C6A002C9DD0D1E9A3
:105400000B368F8A4D6B0168334325432B4343EAA8
:105410008740104348615FE72DE9F04F434887B06C
:10542000016841F002010160006800F0020005908F
:105430003E480838016841F002010160016801F04E
:1054400002010591016841F020010160016801F04D
:1054500020010591016841F020010160016801F01F
:1054600020010591016841F020010160016801F00F
:1054700020010591016841F020010160016801F0FF
:1054800020010591016841F00201016000680924D2
:1054900003214FF0000800F002000590CDE903144D
:1054A00004252348022669468DE86001FCF7B8FE12
:1054B000DFF880B00A274FF4807969465846CDF866
:1054C00000900497FCF7ACFEE80169460497009051
:1054D0005846FCF7A5FE8020694604940090584683
:1054E000FCF79EFE4FF0400A69465846CDF800A0F2
:1054F0000494FCF795FE0E486946CDF800A0049789
:10550000FCF78EFE0D4810230B4F172400F10C0101
:10551000C0F81880076081E81802C0E90165FDF74E
:1055200077FBFBF769F907B0BDE8F08F3838024028
:105530000004024000140240001000A0DC02012020
:1055400010B58EB041F2883400204FF4807166228D
:105550000092CDE906100890224609906946059010
:105560000B900C900D900A48FDF70EFB60B9992046
:105570000090074822466946FDF706FB20B9204601
:10558000FFF750FE002800D001200EB010BD000033
:10559000DC0201202DE9F041984616460F460446EC
:1055A000069D12E0681C10D02DB1FCF72BFFA0EB7C
:1055B0000800A84209D9042084F83900E06B40F0C3
:1055C0000100E0630120BDE8F08120688068384078
:1055D00000D00120B042E5D10020F4E7F0B595B04D
:1055E00041F2883500242A464FF480700621069146
:1055F000CDE90C040E9406A911480F940B94119454
:1056000012941394FDF7C0FAB0B902200090012162
:105610004305102205260696CDE90221CDE9044373
:10562000C7050190CDE90F71054806A92B466A46CA
:10563000FDF754FA002800D0012015B0F0BD00009D
:10564000DC02012000F01F006421C0EB0013C0EB5E
:1056500000125B0000EB800003EB820202EB4000D3
:10566000B0FBF1F0C10241EA8011014388B27047FA
:105670002DE9F04FFE4887B0016841F0200101603C
:10568000016801F020010591016841F020010160ED
:10569000016801F020010591016841F020010160DD
:1056A000016801F020010591016841F020010160CD
:1056B000016801F020010591016841F020010160BD
:1056C000016801F020010591016841F020010160AD
:1056D000016801F020010591016841F0200101609D
:1056E000016801F020010591016841F0200101608D
:1056F000016801F020010591016841F0200101607D
:10570000016801F020010591016841F0200101606C
:10571000016801F020010591016841F0400101603C
:10572000016801F040010591016841F0400101600C
:10573000016801F040010591016841F00801016034
:10574000016801F008010591016841F0080101605C
:10575000016801F008010591016841F0080101604C
:10576000016801F008010591016841F0080101603C
:10577000016801F008010591016841F01001016024
:10578000016801F010010591016841F0100101600C
:10579000016801F010010591016841F010010160FC
:1057A000016801F010010591016841F010010160EC
:1057B000016801F010010591016841F010010160DC
:1057C000016801F010010591016841F010010160CC
:1057D000016801F010010591016841F010010160BC
:1057E000016801F010010591016841F010010160AC
:1057F000016801F010010591016841F0100101609C
:10580000016801F010010591016841F00801016093
:10581000016801F008010591016841F0080101608B
:10582000016801F008010591016841F0080101607B
:10583000016801F008010591016841F080010160F3
:10584000016801F080010591016841F040010160AB
:10585000016801F040010591016841F040010160DB
:10586000016801F040010591016841F00401016007
:10587000016801F004010591016841F02001016017
:10588000016801F020010591016841F040010160CB
:10589000016801F040010591016841F0400101609B
:1058A000016801F040010591016841F0800101604B
:1058B000016801F080010591016841F0100101606B
:1058C000016801F010010591016841F010010160CB
:1058D0000068022101220B4600F0100005900C2404
:1058E00010468DE81F0063486946FCF799FC0220CA
:1058F000009060486946FCF793FC042000905D48E6
:105900006946FCF78DFC082000905A486946FCF770
:1059100087FC5848102769460097FCF781FC202037
:10592000009054486946FCF77BFC52484FF4805A7B
:105930006946CDF800A0FCF773FC4E484FF4005BBD
:105940006946CDF800B0FCF76BFC4A48BD026946D9
:105950000095FCF765FC47486C0069460094FCF72D
:105960005FFC0120009044486946FCF759FC022086
:10597000009041486946FCF753FC40486946009551
:10598000FCF74EFC3D4869460094FCF749FC0120B9
:1059900000903A486946FCF743FC022000903748E3
:1059A0006946FCF73DFC8020009035486946FCF7CD
:1059B00037FC3348E61169460096FCF731FC304865
:1059C0004FF400786946CDF80080FCF729FC60119F
:1059D00000902B486946FCF723FC29484FF40069E6
:1059E0006946CDF80090FCF71BFC25486946CDF8C8
:1059F00000A0FCF715FC22486946CDF800B0FCF782
:105A00000FFC1F4869460095FCF70AFC1C486946D4
:105A10000094FCF705FC194869460096FCF700FC69
:105A200016486946CDF80080FCF7FAFB601100903B
:105A300012486946FCF7F4FB124D4020694600907D
:105A40002846FCF7EDFB0C4869460097FCF7E8FB9D
:105A50002020009008486946FCF7E2FB01200090F6
:105A600009486946FCF7DCFB024869460EE0000085
:105A7000303802400014024000180240000C02407E
:105A800000100240001C024000080240CDF80090C7
:105A9000FCF7C6FB0F4869460094FCF7C1FB0D48B4
:105AA00069460096FCF7BCFB8020694600902846BA
:105AB000FCF7B6FB0220009007486946FCF7B0FBF4
:105AC0000120009004486946FCF7AAFB07B0BDE836
:105AD000F08F00000018024000100240F0B589B0BD
